{
	"PramanToken_flattened.sol": {
		"Praman": {
			"abi": [
				{
					"inputs": [],
					"stateMutability": "nonpayable",
					"type": "constructor"
				},
				{
					"inputs": [],
					"name": "AccessControlBadConfirmation",
					"type": "error"
				},
				{
					"inputs": [
						{
							"internalType": "address",
							"name": "account",
							"type": "address"
						},
						{
							"internalType": "bytes32",
							"name": "neededRole",
							"type": "bytes32"
						}
					],
					"name": "AccessControlUnauthorizedAccount",
					"type": "error"
				},
				{
					"inputs": [
						{
							"internalType": "address",
							"name": "spender",
							"type": "address"
						},
						{
							"internalType": "uint256",
							"name": "allowance",
							"type": "uint256"
						},
						{
							"internalType": "uint256",
							"name": "needed",
							"type": "uint256"
						}
					],
					"name": "ERC20InsufficientAllowance",
					"type": "error"
				},
				{
					"inputs": [
						{
							"internalType": "address",
							"name": "sender",
							"type": "address"
						},
						{
							"internalType": "uint256",
							"name": "balance",
							"type": "uint256"
						},
						{
							"internalType": "uint256",
							"name": "needed",
							"type": "uint256"
						}
					],
					"name": "ERC20InsufficientBalance",
					"type": "error"
				},
				{
					"inputs": [
						{
							"internalType": "address",
							"name": "approver",
							"type": "address"
						}
					],
					"name": "ERC20InvalidApprover",
					"type": "error"
				},
				{
					"inputs": [
						{
							"internalType": "address",
							"name": "receiver",
							"type": "address"
						}
					],
					"name": "ERC20InvalidReceiver",
					"type": "error"
				},
				{
					"inputs": [
						{
							"internalType": "address",
							"name": "sender",
							"type": "address"
						}
					],
					"name": "ERC20InvalidSender",
					"type": "error"
				},
				{
					"inputs": [
						{
							"internalType": "address",
							"name": "spender",
							"type": "address"
						}
					],
					"name": "ERC20InvalidSpender",
					"type": "error"
				},
				{
					"anonymous": false,
					"inputs": [
						{
							"indexed": true,
							"internalType": "address",
							"name": "owner",
							"type": "address"
						},
						{
							"indexed": true,
							"internalType": "address",
							"name": "spender",
							"type": "address"
						},
						{
							"indexed": false,
							"internalType": "uint256",
							"name": "value",
							"type": "uint256"
						}
					],
					"name": "Approval",
					"type": "event"
				},
				{
					"anonymous": false,
					"inputs": [
						{
							"indexed": true,
							"internalType": "bytes32",
							"name": "role",
							"type": "bytes32"
						},
						{
							"indexed": true,
							"internalType": "bytes32",
							"name": "previousAdminRole",
							"type": "bytes32"
						},
						{
							"indexed": true,
							"internalType": "bytes32",
							"name": "newAdminRole",
							"type": "bytes32"
						}
					],
					"name": "RoleAdminChanged",
					"type": "event"
				},
				{
					"anonymous": false,
					"inputs": [
						{
							"indexed": true,
							"internalType": "bytes32",
							"name": "role",
							"type": "bytes32"
						},
						{
							"indexed": true,
							"internalType": "address",
							"name": "account",
							"type": "address"
						},
						{
							"indexed": true,
							"internalType": "address",
							"name": "sender",
							"type": "address"
						}
					],
					"name": "RoleGranted",
					"type": "event"
				},
				{
					"anonymous": false,
					"inputs": [
						{
							"indexed": true,
							"internalType": "bytes32",
							"name": "role",
							"type": "bytes32"
						},
						{
							"indexed": true,
							"internalType": "address",
							"name": "account",
							"type": "address"
						},
						{
							"indexed": true,
							"internalType": "address",
							"name": "sender",
							"type": "address"
						}
					],
					"name": "RoleRevoked",
					"type": "event"
				},
				{
					"anonymous": false,
					"inputs": [
						{
							"indexed": true,
							"internalType": "address",
							"name": "from",
							"type": "address"
						},
						{
							"indexed": true,
							"internalType": "address",
							"name": "to",
							"type": "address"
						},
						{
							"indexed": false,
							"internalType": "uint256",
							"name": "value",
							"type": "uint256"
						}
					],
					"name": "Transfer",
					"type": "event"
				},
				{
					"inputs": [],
					"name": "DEFAULT_ADMIN_ROLE",
					"outputs": [
						{
							"internalType": "bytes32",
							"name": "",
							"type": "bytes32"
						}
					],
					"stateMutability": "view",
					"type": "function"
				},
				{
					"inputs": [],
					"name": "MINTER_ROLE",
					"outputs": [
						{
							"internalType": "bytes32",
							"name": "",
							"type": "bytes32"
						}
					],
					"stateMutability": "view",
					"type": "function"
				},
				{
					"inputs": [
						{
							"internalType": "address",
							"name": "owner",
							"type": "address"
						},
						{
							"internalType": "address",
							"name": "spender",
							"type": "address"
						}
					],
					"name": "allowance",
					"outputs": [
						{
							"internalType": "uint256",
							"name": "",
							"type": "uint256"
						}
					],
					"stateMutability": "view",
					"type": "function"
				},
				{
					"inputs": [
						{
							"internalType": "address",
							"name": "spender",
							"type": "address"
						},
						{
							"internalType": "uint256",
							"name": "value",
							"type": "uint256"
						}
					],
					"name": "approve",
					"outputs": [
						{
							"internalType": "bool",
							"name": "",
							"type": "bool"
						}
					],
					"stateMutability": "nonpayable",
					"type": "function"
				},
				{
					"inputs": [
						{
							"internalType": "address",
							"name": "account",
							"type": "address"
						}
					],
					"name": "balanceOf",
					"outputs": [
						{
							"internalType": "uint256",
							"name": "",
							"type": "uint256"
						}
					],
					"stateMutability": "view",
					"type": "function"
				},
				{
					"inputs": [],
					"name": "decimals",
					"outputs": [
						{
							"internalType": "uint8",
							"name": "",
							"type": "uint8"
						}
					],
					"stateMutability": "view",
					"type": "function"
				},
				{
					"inputs": [
						{
							"internalType": "bytes32",
							"name": "role",
							"type": "bytes32"
						}
					],
					"name": "getRoleAdmin",
					"outputs": [
						{
							"internalType": "bytes32",
							"name": "",
							"type": "bytes32"
						}
					],
					"stateMutability": "view",
					"type": "function"
				},
				{
					"inputs": [
						{
							"internalType": "bytes32",
							"name": "role",
							"type": "bytes32"
						},
						{
							"internalType": "address",
							"name": "account",
							"type": "address"
						}
					],
					"name": "grantRole",
					"outputs": [],
					"stateMutability": "nonpayable",
					"type": "function"
				},
				{
					"inputs": [
						{
							"internalType": "bytes32",
							"name": "role",
							"type": "bytes32"
						},
						{
							"internalType": "address",
							"name": "account",
							"type": "address"
						}
					],
					"name": "hasRole",
					"outputs": [
						{
							"internalType": "bool",
							"name": "",
							"type": "bool"
						}
					],
					"stateMutability": "view",
					"type": "function"
				},
				{
					"inputs": [
						{
							"internalType": "address",
							"name": "to",
							"type": "address"
						},
						{
							"internalType": "uint256",
							"name": "amount",
							"type": "uint256"
						}
					],
					"name": "mint",
					"outputs": [],
					"stateMutability": "nonpayable",
					"type": "function"
				},
				{
					"inputs": [],
					"name": "name",
					"outputs": [
						{
							"internalType": "string",
							"name": "",
							"type": "string"
						}
					],
					"stateMutability": "view",
					"type": "function"
				},
				{
					"inputs": [
						{
							"internalType": "bytes32",
							"name": "role",
							"type": "bytes32"
						},
						{
							"internalType": "address",
							"name": "callerConfirmation",
							"type": "address"
						}
					],
					"name": "renounceRole",
					"outputs": [],
					"stateMutability": "nonpayable",
					"type": "function"
				},
				{
					"inputs": [
						{
							"internalType": "bytes32",
							"name": "role",
							"type": "bytes32"
						},
						{
							"internalType": "address",
							"name": "account",
							"type": "address"
						}
					],
					"name": "revokeRole",
					"outputs": [],
					"stateMutability": "nonpayable",
					"type": "function"
				},
				{
					"inputs": [
						{
							"internalType": "bytes4",
							"name": "interfaceId",
							"type": "bytes4"
						}
					],
					"name": "supportsInterface",
					"outputs": [
						{
							"internalType": "bool",
							"name": "",
							"type": "bool"
						}
					],
					"stateMutability": "view",
					"type": "function"
				},
				{
					"inputs": [],
					"name": "symbol",
					"outputs": [
						{
							"internalType": "string",
							"name": "",
							"type": "string"
						}
					],
					"stateMutability": "view",
					"type": "function"
				},
				{
					"inputs": [],
					"name": "totalSupply",
					"outputs": [
						{
							"internalType": "uint256",
							"name": "",
							"type": "uint256"
						}
					],
					"stateMutability": "view",
					"type": "function"
				},
				{
					"inputs": [
						{
							"internalType": "address",
							"name": "to",
							"type": "address"
						},
						{
							"internalType": "uint256",
							"name": "value",
							"type": "uint256"
						}
					],
					"name": "transfer",
					"outputs": [
						{
							"internalType": "bool",
							"name": "",
							"type": "bool"
						}
					],
					"stateMutability": "nonpayable",
					"type": "function"
				},
				{
					"inputs": [
						{
							"internalType": "address",
							"name": "from",
							"type": "address"
						},
						{
							"internalType": "address",
							"name": "to",
							"type": "address"
						},
						{
							"internalType": "uint256",
							"name": "value",
							"type": "uint256"
						}
					],
					"name": "transferFrom",
					"outputs": [
						{
							"internalType": "bool",
							"name": "",
							"type": "bool"
						}
					],
					"stateMutability": "nonpayable",
					"type": "function"
				}
			],
			"devdoc": {
				"errors": {
					"AccessControlBadConfirmation()": [
						{
							"details": "The caller of a function is not the expected one. NOTE: Don't confuse with {AccessControlUnauthorizedAccount}."
						}
					],
					"AccessControlUnauthorizedAccount(address,bytes32)": [
						{
							"details": "The `account` is missing a role."
						}
					],
					"ERC20InsufficientAllowance(address,uint256,uint256)": [
						{
							"details": "Indicates a failure with the `spender`’s `allowance`. Used in transfers.",
							"params": {
								"allowance": "Amount of tokens a `spender` is allowed to operate with.",
								"needed": "Minimum amount required to perform a transfer.",
								"spender": "Address that may be allowed to operate on tokens without being their owner."
							}
						}
					],
					"ERC20InsufficientBalance(address,uint256,uint256)": [
						{
							"details": "Indicates an error related to the current `balance` of a `sender`. Used in transfers.",
							"params": {
								"balance": "Current balance for the interacting account.",
								"needed": "Minimum amount required to perform a transfer.",
								"sender": "Address whose tokens are being transferred."
							}
						}
					],
					"ERC20InvalidApprover(address)": [
						{
							"details": "Indicates a failure with the `approver` of a token to be approved. Used in approvals.",
							"params": {
								"approver": "Address initiating an approval operation."
							}
						}
					],
					"ERC20InvalidReceiver(address)": [
						{
							"details": "Indicates a failure with the token `receiver`. Used in transfers.",
							"params": {
								"receiver": "Address to which tokens are being transferred."
							}
						}
					],
					"ERC20InvalidSender(address)": [
						{
							"details": "Indicates a failure with the token `sender`. Used in transfers.",
							"params": {
								"sender": "Address whose tokens are being transferred."
							}
						}
					],
					"ERC20InvalidSpender(address)": [
						{
							"details": "Indicates a failure with the `spender` to be approved. Used in approvals.",
							"params": {
								"spender": "Address that may be allowed to operate on tokens without being their owner."
							}
						}
					]
				},
				"events": {
					"Approval(address,address,uint256)": {
						"details": "Emitted when the allowance of a `spender` for an `owner` is set by a call to {approve}. `value` is the new allowance."
					},
					"RoleAdminChanged(bytes32,bytes32,bytes32)": {
						"details": "Emitted when `newAdminRole` is set as ``role``'s admin role, replacing `previousAdminRole` `DEFAULT_ADMIN_ROLE` is the starting admin for all roles, despite {RoleAdminChanged} not being emitted to signal this."
					},
					"RoleGranted(bytes32,address,address)": {
						"details": "Emitted when `account` is granted `role`. `sender` is the account that originated the contract call. This account bears the admin role (for the granted role). Expected in cases where the role was granted using the internal {AccessControl-_grantRole}."
					},
					"RoleRevoked(bytes32,address,address)": {
						"details": "Emitted when `account` is revoked `role`. `sender` is the account that originated the contract call:   - if using `revokeRole`, it is the admin role bearer   - if using `renounceRole`, it is the role bearer (i.e. `account`)"
					},
					"Transfer(address,address,uint256)": {
						"details": "Emitted when `value` tokens are moved from one account (`from`) to another (`to`). Note that `value` may be zero."
					}
				},
				"kind": "dev",
				"methods": {
					"allowance(address,address)": {
						"details": "Returns the remaining number of tokens that `spender` will be allowed to spend on behalf of `owner` through {transferFrom}. This is zero by default. This value changes when {approve} or {transferFrom} are called."
					},
					"approve(address,uint256)": {
						"details": "See {IERC20-approve}. NOTE: If `value` is the maximum `uint256`, the allowance is not updated on `transferFrom`. This is semantically equivalent to an infinite approval. Requirements: - `spender` cannot be the zero address."
					},
					"balanceOf(address)": {
						"details": "Returns the value of tokens owned by `account`."
					},
					"decimals()": {
						"details": "Returns the number of decimals used to get its user representation. For example, if `decimals` equals `2`, a balance of `505` tokens should be displayed to a user as `5.05` (`505 / 10 ** 2`). Tokens usually opt for a value of 18, imitating the relationship between Ether and Wei. This is the default value returned by this function, unless it's overridden. NOTE: This information is only used for _display_ purposes: it in no way affects any of the arithmetic of the contract, including {IERC20-balanceOf} and {IERC20-transfer}."
					},
					"getRoleAdmin(bytes32)": {
						"details": "Returns the admin role that controls `role`. See {grantRole} and {revokeRole}. To change a role's admin, use {_setRoleAdmin}."
					},
					"grantRole(bytes32,address)": {
						"details": "Grants `role` to `account`. If `account` had not been already granted `role`, emits a {RoleGranted} event. Requirements: - the caller must have ``role``'s admin role. May emit a {RoleGranted} event."
					},
					"hasRole(bytes32,address)": {
						"details": "Returns `true` if `account` has been granted `role`."
					},
					"name()": {
						"details": "Returns the name of the token."
					},
					"renounceRole(bytes32,address)": {
						"details": "Revokes `role` from the calling account. Roles are often managed via {grantRole} and {revokeRole}: this function's purpose is to provide a mechanism for accounts to lose their privileges if they are compromised (such as when a trusted device is misplaced). If the calling account had been revoked `role`, emits a {RoleRevoked} event. Requirements: - the caller must be `callerConfirmation`. May emit a {RoleRevoked} event."
					},
					"revokeRole(bytes32,address)": {
						"details": "Revokes `role` from `account`. If `account` had been granted `role`, emits a {RoleRevoked} event. Requirements: - the caller must have ``role``'s admin role. May emit a {RoleRevoked} event."
					},
					"supportsInterface(bytes4)": {
						"details": "Returns true if this contract implements the interface defined by `interfaceId`. See the corresponding https://eips.ethereum.org/EIPS/eip-165#how-interfaces-are-identified[ERC section] to learn more about how these ids are created. This function call must use less than 30 000 gas."
					},
					"symbol()": {
						"details": "Returns the symbol of the token, usually a shorter version of the name."
					},
					"totalSupply()": {
						"details": "Returns the value of tokens in existence."
					},
					"transfer(address,uint256)": {
						"details": "See {IERC20-transfer}. Requirements: - `to` cannot be the zero address. - the caller must have a balance of at least `value`."
					},
					"transferFrom(address,address,uint256)": {
						"details": "See {IERC20-transferFrom}. Skips emitting an {Approval} event indicating an allowance update. This is not required by the ERC. See {xref-ERC20-_approve-address-address-uint256-bool-}[_approve]. NOTE: Does not update the allowance if the current allowance is the maximum `uint256`. Requirements: - `from` and `to` cannot be the zero address. - `from` must have a balance of at least `value`. - the caller must have allowance for ``from``'s tokens of at least `value`."
					}
				},
				"version": 1
			},
			"evm": {
				"assembly": "    /* \"PramanToken_flattened.sol\":33804:34265  contract Praman is ERC20, AccessControl {... */\n  mstore(0x40, 0x80)\n    /* \"PramanToken_flattened.sol\":33919:34152  constructor() ERC20(\"Praman\", \"PRM\") {... */\n  callvalue\n  dup1\n  iszero\n  tag_1\n  jumpi\n  revert(0x00, 0x00)\ntag_1:\n  pop\n    /* \"PramanToken_flattened.sol\":12484:12597  constructor(string memory name_, string memory symbol_) {... */\n  mload(0x40)\n  dup1\n  0x40\n  add\n  0x40\n  mstore\n  dup1\n  0x06\n  dup2\n  mstore\n  0x20\n  add\n  0x5072616d616e0000000000000000000000000000000000000000000000000000\n  dup2\n  mstore\n  pop\n  mload(0x40)\n  dup1\n  0x40\n  add\n  0x40\n  mstore\n  dup1\n  0x03\n  dup2\n  mstore\n  0x20\n  add\n  0x50524d0000000000000000000000000000000000000000000000000000000000\n  dup2\n  mstore\n  pop\n    /* \"PramanToken_flattened.sol\":12558:12563  name_ */\n  dup2\n    /* \"PramanToken_flattened.sol\":12550:12555  _name */\n  0x03\n    /* \"PramanToken_flattened.sol\":12550:12563  _name = name_ */\n  swap1\n  dup2\n  tag_5\n  swap2\n  swap1\n  tag_6\n  jump\t// in\ntag_5:\n  pop\n    /* \"PramanToken_flattened.sol\":12583:12590  symbol_ */\n  dup1\n    /* \"PramanToken_flattened.sol\":12573:12580  _symbol */\n  0x04\n    /* \"PramanToken_flattened.sol\":12573:12590  _symbol = symbol_ */\n  swap1\n  dup2\n  tag_7\n  swap2\n  swap1\n  tag_6\n  jump\t// in\ntag_7:\n  pop\n    /* \"PramanToken_flattened.sol\":12484:12597  constructor(string memory name_, string memory symbol_) {... */\n  pop\n  pop\n    /* \"PramanToken_flattened.sol\":33966:34005  hasRole(DEFAULT_ADMIN_ROLE, msg.sender) */\n  tag_9\n    /* \"PramanToken_flattened.sol\":28961:28965  0x00 */\n  0x00\n    /* \"PramanToken_flattened.sol\":33974:33992  DEFAULT_ADMIN_ROLE */\n  0x00\n  shl\n    /* \"PramanToken_flattened.sol\":33994:34004  msg.sender */\n  caller\n    /* \"PramanToken_flattened.sol\":33966:33973  hasRole */\n  shl(0x20, tag_10)\n    /* \"PramanToken_flattened.sol\":33966:34005  hasRole(DEFAULT_ADMIN_ROLE, msg.sender) */\n  0x20\n  shr\n  jump\t// in\ntag_9:\n  pop\n    /* \"PramanToken_flattened.sol\":34015:34047  hasRole(MINTER_ROLE, msg.sender) */\n  tag_11\n    /* \"PramanToken_flattened.sol\":33888:33912  keccak256(\"MINTER_ROLE\") */\n  0x9f2df0fed2c77648de5860a4cc508cd0818c85b8b8a1ab4ceeef8d981c8956a6\n    /* \"PramanToken_flattened.sol\":34036:34046  msg.sender */\n  caller\n    /* \"PramanToken_flattened.sol\":34015:34022  hasRole */\n  shl(0x20, tag_10)\n    /* \"PramanToken_flattened.sol\":34015:34047  hasRole(MINTER_ROLE, msg.sender) */\n  0x20\n  shr\n  jump\t// in\ntag_11:\n  pop\n    /* \"PramanToken_flattened.sol\":34100:34145  _mint(msg.sender, 1000000 * 10 ** decimals()) */\n  tag_12\n    /* \"PramanToken_flattened.sol\":34106:34116  msg.sender */\n  caller\n    /* \"PramanToken_flattened.sol\":34134:34144  decimals() */\n  tag_13\n    /* \"PramanToken_flattened.sol\":34134:34142  decimals */\n  shl(0x20, tag_14)\n    /* \"PramanToken_flattened.sol\":34134:34144  decimals() */\n  0x20\n  shr\n  jump\t// in\ntag_13:\n    /* \"PramanToken_flattened.sol\":34128:34130  10 */\n  0x0a\n    /* \"PramanToken_flattened.sol\":34128:34144  10 ** decimals() */\n  tag_15\n  swap2\n  swap1\n  tag_16\n  jump\t// in\ntag_15:\n    /* \"PramanToken_flattened.sol\":34118:34125  1000000 */\n  0x0f4240\n    /* \"PramanToken_flattened.sol\":34118:34144  1000000 * 10 ** decimals() */\n  tag_17\n  swap2\n  swap1\n  tag_18\n  jump\t// in\ntag_17:\n    /* \"PramanToken_flattened.sol\":34100:34105  _mint */\n  shl(0x20, tag_19)\n    /* \"PramanToken_flattened.sol\":34100:34145  _mint(msg.sender, 1000000 * 10 ** decimals()) */\n  0x20\n  shr\n  jump\t// in\ntag_12:\n    /* \"PramanToken_flattened.sol\":33804:34265  contract Praman is ERC20, AccessControl {... */\n  jump(tag_20)\n    /* \"PramanToken_flattened.sol\":29550:29686  function hasRole(bytes32 role, address account) public view virtual returns (bool) {... */\ntag_10:\n    /* \"PramanToken_flattened.sol\":29627:29631  bool */\n  0x00\n    /* \"PramanToken_flattened.sol\":29650:29656  _roles */\n  0x05\n    /* \"PramanToken_flattened.sol\":29650:29662  _roles[role] */\n  0x00\n    /* \"PramanToken_flattened.sol\":29657:29661  role */\n  dup5\n    /* \"PramanToken_flattened.sol\":29650:29662  _roles[role] */\n  dup2\n  mstore\n  0x20\n  add\n  swap1\n  dup2\n  mstore\n  0x20\n  add\n  0x00\n  keccak256\n    /* \"PramanToken_flattened.sol\":29650:29670  _roles[role].hasRole */\n  0x00\n  add\n    /* \"PramanToken_flattened.sol\":29650:29679  _roles[role].hasRole[account] */\n  0x00\n    /* \"PramanToken_flattened.sol\":29671:29678  account */\n  dup4\n    /* \"PramanToken_flattened.sol\":29650:29679  _roles[role].hasRole[account] */\n  0xffffffffffffffffffffffffffffffffffffffff\n  and\n  0xffffffffffffffffffffffffffffffffffffffff\n  and\n  dup2\n  mstore\n  0x20\n  add\n  swap1\n  dup2\n  mstore\n  0x20\n  add\n  0x00\n  keccak256\n  0x00\n  swap1\n  sload\n  swap1\n  0x0100\n  exp\n  swap1\n  div\n  0xff\n  and\n    /* \"PramanToken_flattened.sol\":29643:29679  return _roles[role].hasRole[account] */\n  swap1\n  pop\n    /* \"PramanToken_flattened.sol\":29550:29686  function hasRole(bytes32 role, address account) public view virtual returns (bool) {... */\n  swap3\n  swap2\n  pop\n  pop\n  jump\t// out\n    /* \"PramanToken_flattened.sol\":13590:13672  function decimals() public view virtual returns (uint8) {... */\ntag_14:\n    /* \"PramanToken_flattened.sol\":13639:13644  uint8 */\n  0x00\n    /* \"PramanToken_flattened.sol\":13663:13665  18 */\n  0x12\n    /* \"PramanToken_flattened.sol\":13656:13665  return 18 */\n  swap1\n  pop\n    /* \"PramanToken_flattened.sol\":13590:13672  function decimals() public view virtual returns (uint8) {... */\n  swap1\n  jump\t// out\n    /* \"PramanToken_flattened.sol\":18264:18472  function _mint(address account, uint256 value) internal {... */\ntag_19:\n    /* \"PramanToken_flattened.sol\":18353:18354  0 */\n  0x00\n    /* \"PramanToken_flattened.sol\":18334:18355  account == address(0) */\n  0xffffffffffffffffffffffffffffffffffffffff\n  and\n    /* \"PramanToken_flattened.sol\":18334:18341  account */\n  dup3\n    /* \"PramanToken_flattened.sol\":18334:18355  account == address(0) */\n  0xffffffffffffffffffffffffffffffffffffffff\n  and\n  sub\n    /* \"PramanToken_flattened.sol\":18330:18421  if (account == address(0)) {... */\n  tag_24\n  jumpi\n    /* \"PramanToken_flattened.sol\":18407:18408  0 */\n  0x00\n    /* \"PramanToken_flattened.sol\":18378:18410  ERC20InvalidReceiver(address(0)) */\n  mload(0x40)\n  0xec442f0500000000000000000000000000000000000000000000000000000000\n  dup2\n  mstore\n  0x04\n  add\n  tag_25\n  swap2\n  swap1\n  tag_26\n  jump\t// in\ntag_25:\n  mload(0x40)\n  dup1\n  swap2\n  sub\n  swap1\n  revert\n    /* \"PramanToken_flattened.sol\":18330:18421  if (account == address(0)) {... */\ntag_24:\n    /* \"PramanToken_flattened.sol\":18430:18465  _update(address(0), account, value) */\n  tag_27\n    /* \"PramanToken_flattened.sol\":18446:18447  0 */\n  0x00\n    /* \"PramanToken_flattened.sol\":18450:18457  account */\n  dup4\n    /* \"PramanToken_flattened.sol\":18459:18464  value */\n  dup4\n    /* \"PramanToken_flattened.sol\":18430:18437  _update */\n  shl(0x20, tag_28)\n    /* \"PramanToken_flattened.sol\":18430:18465  _update(address(0), account, value) */\n  0x20\n  shr\n  jump\t// in\ntag_27:\n    /* \"PramanToken_flattened.sol\":18264:18472  function _mint(address account, uint256 value) internal {... */\n  pop\n  pop\n  jump\t// out\n    /* \"PramanToken_flattened.sol\":16814:17921  function _update(address from, address to, uint256 value) internal virtual {... */\ntag_28:\n    /* \"PramanToken_flattened.sol\":16919:16920  0 */\n  0x00\n    /* \"PramanToken_flattened.sol\":16903:16921  from == address(0) */\n  0xffffffffffffffffffffffffffffffffffffffff\n  and\n    /* \"PramanToken_flattened.sol\":16903:16907  from */\n  dup4\n    /* \"PramanToken_flattened.sol\":16903:16921  from == address(0) */\n  0xffffffffffffffffffffffffffffffffffffffff\n  and\n  sub\n    /* \"PramanToken_flattened.sol\":16899:17439  if (from == address(0)) {... */\n  tag_30\n  jumpi\n    /* \"PramanToken_flattened.sol\":17055:17060  value */\n  dup1\n    /* \"PramanToken_flattened.sol\":17039:17051  _totalSupply */\n  0x02\n  0x00\n    /* \"PramanToken_flattened.sol\":17039:17060  _totalSupply += value */\n  dup3\n  dup3\n  sload\n  tag_31\n  swap2\n  swap1\n  tag_32\n  jump\t// in\ntag_31:\n  swap3\n  pop\n  pop\n  dup2\n  swap1\n  sstore\n  pop\n    /* \"PramanToken_flattened.sol\":16899:17439  if (from == address(0)) {... */\n  jump(tag_33)\ntag_30:\n    /* \"PramanToken_flattened.sol\":17091:17110  uint256 fromBalance */\n  0x00\n    /* \"PramanToken_flattened.sol\":17113:17122  _balances */\n  0x00\n    /* \"PramanToken_flattened.sol\":17113:17128  _balances[from] */\n  0x00\n    /* \"PramanToken_flattened.sol\":17123:17127  from */\n  dup6\n    /* \"PramanToken_flattened.sol\":17113:17128  _balances[from] */\n  0xffffffffffffffffffffffffffffffffffffffff\n  and\n  0xffffffffffffffffffffffffffffffffffffffff\n  and\n  dup2\n  mstore\n  0x20\n  add\n  swap1\n  dup2\n  mstore\n  0x20\n  add\n  0x00\n  keccak256\n  sload\n    /* \"PramanToken_flattened.sol\":17091:17128  uint256 fromBalance = _balances[from] */\n  swap1\n  pop\n    /* \"PramanToken_flattened.sol\":17160:17165  value */\n  dup2\n    /* \"PramanToken_flattened.sol\":17146:17157  fromBalance */\n  dup2\n    /* \"PramanToken_flattened.sol\":17146:17165  fromBalance < value */\n  lt\n    /* \"PramanToken_flattened.sol\":17142:17257  if (fromBalance < value) {... */\n  iszero\n  tag_34\n  jumpi\n    /* \"PramanToken_flattened.sol\":17217:17221  from */\n  dup4\n    /* \"PramanToken_flattened.sol\":17223:17234  fromBalance */\n  dup2\n    /* \"PramanToken_flattened.sol\":17236:17241  value */\n  dup4\n    /* \"PramanToken_flattened.sol\":17192:17242  ERC20InsufficientBalance(from, fromBalance, value) */\n  mload(0x40)\n  0xe450d38c00000000000000000000000000000000000000000000000000000000\n  dup2\n  mstore\n  0x04\n  add\n  tag_35\n  swap4\n  swap3\n  swap2\n  swap1\n  tag_36\n  jump\t// in\ntag_35:\n  mload(0x40)\n  dup1\n  swap2\n  sub\n  swap1\n  revert\n    /* \"PramanToken_flattened.sol\":17142:17257  if (fromBalance < value) {... */\ntag_34:\n    /* \"PramanToken_flattened.sol\":17409:17414  value */\n  dup2\n    /* \"PramanToken_flattened.sol\":17395:17406  fromBalance */\n  dup2\n    /* \"PramanToken_flattened.sol\":17395:17414  fromBalance - value */\n  sub\n    /* \"PramanToken_flattened.sol\":17377:17386  _balances */\n  0x00\n    /* \"PramanToken_flattened.sol\":17377:17392  _balances[from] */\n  0x00\n    /* \"PramanToken_flattened.sol\":17387:17391  from */\n  dup7\n    /* \"PramanToken_flattened.sol\":17377:17392  _balances[from] */\n  0xffffffffffffffffffffffffffffffffffffffff\n  and\n  0xffffffffffffffffffffffffffffffffffffffff\n  and\n  dup2\n  mstore\n  0x20\n  add\n  swap1\n  dup2\n  mstore\n  0x20\n  add\n  0x00\n  keccak256\n    /* \"PramanToken_flattened.sol\":17377:17414  _balances[from] = fromBalance - value */\n  dup2\n  swap1\n  sstore\n  pop\n    /* \"PramanToken_flattened.sol\":17077:17439  {... */\n  pop\n    /* \"PramanToken_flattened.sol\":16899:17439  if (from == address(0)) {... */\ntag_33:\n    /* \"PramanToken_flattened.sol\":17467:17468  0 */\n  0x00\n    /* \"PramanToken_flattened.sol\":17453:17469  to == address(0) */\n  0xffffffffffffffffffffffffffffffffffffffff\n  and\n    /* \"PramanToken_flattened.sol\":17453:17455  to */\n  dup3\n    /* \"PramanToken_flattened.sol\":17453:17469  to == address(0) */\n  0xffffffffffffffffffffffffffffffffffffffff\n  and\n  sub\n    /* \"PramanToken_flattened.sol\":17449:17874  if (to == address(0)) {... */\n  tag_37\n  jumpi\n    /* \"PramanToken_flattened.sol\":17632:17637  value */\n  dup1\n    /* \"PramanToken_flattened.sol\":17616:17628  _totalSupply */\n  0x02\n  0x00\n    /* \"PramanToken_flattened.sol\":17616:17637  _totalSupply -= value */\n  dup3\n  dup3\n  sload\n  sub\n  swap3\n  pop\n  pop\n  dup2\n  swap1\n  sstore\n  pop\n    /* \"PramanToken_flattened.sol\":17449:17874  if (to == address(0)) {... */\n  jump(tag_38)\ntag_37:\n    /* \"PramanToken_flattened.sol\":17844:17849  value */\n  dup1\n    /* \"PramanToken_flattened.sol\":17827:17836  _balances */\n  0x00\n    /* \"PramanToken_flattened.sol\":17827:17840  _balances[to] */\n  0x00\n    /* \"PramanToken_flattened.sol\":17837:17839  to */\n  dup5\n    /* \"PramanToken_flattened.sol\":17827:17840  _balances[to] */\n  0xffffffffffffffffffffffffffffffffffffffff\n  and\n  0xffffffffffffffffffffffffffffffffffffffff\n  and\n  dup2\n  mstore\n  0x20\n  add\n  swap1\n  dup2\n  mstore\n  0x20\n  add\n  0x00\n  keccak256\n  0x00\n    /* \"PramanToken_flattened.sol\":17827:17849  _balances[to] += value */\n  dup3\n  dup3\n  sload\n  add\n  swap3\n  pop\n  pop\n  dup2\n  swap1\n  sstore\n  pop\n    /* \"PramanToken_flattened.sol\":17449:17874  if (to == address(0)) {... */\ntag_38:\n    /* \"PramanToken_flattened.sol\":17904:17906  to */\n  dup2\n    /* \"PramanToken_flattened.sol\":17889:17914  Transfer(from, to, value) */\n  0xffffffffffffffffffffffffffffffffffffffff\n  and\n    /* \"PramanToken_flattened.sol\":17898:17902  from */\n  dup4\n    /* \"PramanToken_flattened.sol\":17889:17914  Transfer(from, to, value) */\n  0xffffffffffffffffffffffffffffffffffffffff\n  and\n  0xddf252ad1be2c89b69c2b068fc378daa952ba7f163c4a11628f55a4df523b3ef\n    /* \"PramanToken_flattened.sol\":17908:17913  value */\n  dup4\n    /* \"PramanToken_flattened.sol\":17889:17914  Transfer(from, to, value) */\n  mload(0x40)\n  tag_39\n  swap2\n  swap1\n  tag_40\n  jump\t// in\ntag_39:\n  mload(0x40)\n  dup1\n  swap2\n  sub\n  swap1\n  log3\n    /* \"PramanToken_flattened.sol\":16814:17921  function _update(address from, address to, uint256 value) internal virtual {... */\n  pop\n  pop\n  pop\n  jump\t// out\n    /* \"#utility.yul\":7:106   */\ntag_41:\n    /* \"#utility.yul\":59:65   */\n  0x00\n    /* \"#utility.yul\":93:98   */\n  dup2\n    /* \"#utility.yul\":87:99   */\n  mload\n    /* \"#utility.yul\":77:99   */\n  swap1\n  pop\n    /* \"#utility.yul\":7:106   */\n  swap2\n  swap1\n  pop\n  jump\t// out\n    /* \"#utility.yul\":112:292   */\ntag_42:\n    /* \"#utility.yul\":160:237   */\n  0x4e487b7100000000000000000000000000000000000000000000000000000000\n    /* \"#utility.yul\":157:158   */\n  0x00\n    /* \"#utility.yul\":150:238   */\n  mstore\n    /* \"#utility.yul\":257:261   */\n  0x41\n    /* \"#utility.yul\":254:255   */\n  0x04\n    /* \"#utility.yul\":247:262   */\n  mstore\n    /* \"#utility.yul\":281:285   */\n  0x24\n    /* \"#utility.yul\":278:279   */\n  0x00\n    /* \"#utility.yul\":271:286   */\n  revert\n    /* \"#utility.yul\":298:478   */\ntag_43:\n    /* \"#utility.yul\":346:423   */\n  0x4e487b7100000000000000000000000000000000000000000000000000000000\n    /* \"#utility.yul\":343:344   */\n  0x00\n    /* \"#utility.yul\":336:424   */\n  mstore\n    /* \"#utility.yul\":443:447   */\n  0x22\n    /* \"#utility.yul\":440:441   */\n  0x04\n    /* \"#utility.yul\":433:448   */\n  mstore\n    /* \"#utility.yul\":467:471   */\n  0x24\n    /* \"#utility.yul\":464:465   */\n  0x00\n    /* \"#utility.yul\":457:472   */\n  revert\n    /* \"#utility.yul\":484:804   */\ntag_44:\n    /* \"#utility.yul\":528:534   */\n  0x00\n    /* \"#utility.yul\":565:566   */\n  0x02\n    /* \"#utility.yul\":559:563   */\n  dup3\n    /* \"#utility.yul\":555:567   */\n  div\n    /* \"#utility.yul\":545:567   */\n  swap1\n  pop\n    /* \"#utility.yul\":612:613   */\n  0x01\n    /* \"#utility.yul\":606:610   */\n  dup3\n    /* \"#utility.yul\":602:614   */\n  and\n    /* \"#utility.yul\":633:651   */\n  dup1\n    /* \"#utility.yul\":623:704   */\n  tag_75\n  jumpi\n    /* \"#utility.yul\":689:693   */\n  0x7f\n    /* \"#utility.yul\":681:687   */\n  dup3\n    /* \"#utility.yul\":677:694   */\n  and\n    /* \"#utility.yul\":667:694   */\n  swap2\n  pop\n    /* \"#utility.yul\":623:704   */\ntag_75:\n    /* \"#utility.yul\":751:753   */\n  0x20\n    /* \"#utility.yul\":743:749   */\n  dup3\n    /* \"#utility.yul\":740:754   */\n  lt\n    /* \"#utility.yul\":720:738   */\n  dup2\n    /* \"#utility.yul\":717:755   */\n  sub\n    /* \"#utility.yul\":714:798   */\n  tag_76\n  jumpi\n    /* \"#utility.yul\":770:788   */\n  tag_77\n  tag_43\n  jump\t// in\ntag_77:\n    /* \"#utility.yul\":714:798   */\ntag_76:\n    /* \"#utility.yul\":535:804   */\n  pop\n    /* \"#utility.yul\":484:804   */\n  swap2\n  swap1\n  pop\n  jump\t// out\n    /* \"#utility.yul\":810:951   */\ntag_45:\n    /* \"#utility.yul\":859:863   */\n  0x00\n    /* \"#utility.yul\":882:885   */\n  dup2\n    /* \"#utility.yul\":874:885   */\n  swap1\n  pop\n    /* \"#utility.yul\":905:908   */\n  dup2\n    /* \"#utility.yul\":902:903   */\n  0x00\n    /* \"#utility.yul\":895:909   */\n  mstore\n    /* \"#utility.yul\":939:943   */\n  0x20\n    /* \"#utility.yul\":936:937   */\n  0x00\n    /* \"#utility.yul\":926:944   */\n  keccak256\n    /* \"#utility.yul\":918:944   */\n  swap1\n  pop\n    /* \"#utility.yul\":810:951   */\n  swap2\n  swap1\n  pop\n  jump\t// out\n    /* \"#utility.yul\":957:1050   */\ntag_46:\n    /* \"#utility.yul\":994:1000   */\n  0x00\n    /* \"#utility.yul\":1041:1043   */\n  0x20\n    /* \"#utility.yul\":1036:1038   */\n  0x1f\n    /* \"#utility.yul\":1029:1034   */\n  dup4\n    /* \"#utility.yul\":1025:1039   */\n  add\n    /* \"#utility.yul\":1021:1044   */\n  div\n    /* \"#utility.yul\":1011:1044   */\n  swap1\n  pop\n    /* \"#utility.yul\":957:1050   */\n  swap2\n  swap1\n  pop\n  jump\t// out\n    /* \"#utility.yul\":1056:1163   */\ntag_47:\n    /* \"#utility.yul\":1100:1108   */\n  0x00\n    /* \"#utility.yul\":1150:1155   */\n  dup3\n    /* \"#utility.yul\":1144:1148   */\n  dup3\n    /* \"#utility.yul\":1140:1156   */\n  shl\n    /* \"#utility.yul\":1119:1156   */\n  swap1\n  pop\n    /* \"#utility.yul\":1056:1163   */\n  swap3\n  swap2\n  pop\n  pop\n  jump\t// out\n    /* \"#utility.yul\":1169:1562   */\ntag_48:\n    /* \"#utility.yul\":1238:1244   */\n  0x00\n    /* \"#utility.yul\":1288:1289   */\n  0x08\n    /* \"#utility.yul\":1276:1286   */\n  dup4\n    /* \"#utility.yul\":1272:1290   */\n  mul\n    /* \"#utility.yul\":1311:1408   */\n  tag_82\n    /* \"#utility.yul\":1341:1407   */\n  0xffffffffffffffffffffffffffffffffffffffffffffffffffffffffffffffff\n    /* \"#utility.yul\":1330:1339   */\n  dup3\n    /* \"#utility.yul\":1311:1408   */\n  tag_47\n  jump\t// in\ntag_82:\n    /* \"#utility.yul\":1429:1468   */\n  tag_83\n    /* \"#utility.yul\":1459:1467   */\n  dup7\n    /* \"#utility.yul\":1448:1457   */\n  dup4\n    /* \"#utility.yul\":1429:1468   */\n  tag_47\n  jump\t// in\ntag_83:\n    /* \"#utility.yul\":1417:1468   */\n  swap6\n  pop\n    /* \"#utility.yul\":1501:1505   */\n  dup1\n    /* \"#utility.yul\":1497:1506   */\n  not\n    /* \"#utility.yul\":1490:1495   */\n  dup5\n    /* \"#utility.yul\":1486:1507   */\n  and\n    /* \"#utility.yul\":1477:1507   */\n  swap4\n  pop\n    /* \"#utility.yul\":1550:1554   */\n  dup1\n    /* \"#utility.yul\":1540:1548   */\n  dup7\n    /* \"#utility.yul\":1536:1555   */\n  and\n    /* \"#utility.yul\":1529:1534   */\n  dup5\n    /* \"#utility.yul\":1526:1556   */\n  or\n    /* \"#utility.yul\":1516:1556   */\n  swap3\n  pop\n    /* \"#utility.yul\":1245:1562   */\n  pop\n  pop\n    /* \"#utility.yul\":1169:1562   */\n  swap4\n  swap3\n  pop\n  pop\n  pop\n  jump\t// out\n    /* \"#utility.yul\":1568:1645   */\ntag_49:\n    /* \"#utility.yul\":1605:1612   */\n  0x00\n    /* \"#utility.yul\":1634:1639   */\n  dup2\n    /* \"#utility.yul\":1623:1639   */\n  swap1\n  pop\n    /* \"#utility.yul\":1568:1645   */\n  swap2\n  swap1\n  pop\n  jump\t// out\n    /* \"#utility.yul\":1651:1711   */\ntag_50:\n    /* \"#utility.yul\":1679:1682   */\n  0x00\n    /* \"#utility.yul\":1700:1705   */\n  dup2\n    /* \"#utility.yul\":1693:1705   */\n  swap1\n  pop\n    /* \"#utility.yul\":1651:1711   */\n  swap2\n  swap1\n  pop\n  jump\t// out\n    /* \"#utility.yul\":1717:1859   */\ntag_51:\n    /* \"#utility.yul\":1767:1776   */\n  0x00\n    /* \"#utility.yul\":1800:1853   */\n  tag_87\n    /* \"#utility.yul\":1818:1852   */\n  tag_88\n    /* \"#utility.yul\":1827:1851   */\n  tag_89\n    /* \"#utility.yul\":1845:1850   */\n  dup5\n    /* \"#utility.yul\":1827:1851   */\n  tag_49\n  jump\t// in\ntag_89:\n    /* \"#utility.yul\":1818:1852   */\n  tag_50\n  jump\t// in\ntag_88:\n    /* \"#utility.yul\":1800:1853   */\n  tag_49\n  jump\t// in\ntag_87:\n    /* \"#utility.yul\":1787:1853   */\n  swap1\n  pop\n    /* \"#utility.yul\":1717:1859   */\n  swap2\n  swap1\n  pop\n  jump\t// out\n    /* \"#utility.yul\":1865:1940   */\ntag_52:\n    /* \"#utility.yul\":1908:1911   */\n  0x00\n    /* \"#utility.yul\":1929:1934   */\n  dup2\n    /* \"#utility.yul\":1922:1934   */\n  swap1\n  pop\n    /* \"#utility.yul\":1865:1940   */\n  swap2\n  swap1\n  pop\n  jump\t// out\n    /* \"#utility.yul\":1946:2215   */\ntag_53:\n    /* \"#utility.yul\":2056:2095   */\n  tag_92\n    /* \"#utility.yul\":2087:2094   */\n  dup4\n    /* \"#utility.yul\":2056:2095   */\n  tag_51\n  jump\t// in\ntag_92:\n    /* \"#utility.yul\":2117:2208   */\n  tag_93\n    /* \"#utility.yul\":2166:2207   */\n  tag_94\n    /* \"#utility.yul\":2190:2206   */\n  dup3\n    /* \"#utility.yul\":2166:2207   */\n  tag_52\n  jump\t// in\ntag_94:\n    /* \"#utility.yul\":2158:2164   */\n  dup5\n    /* \"#utility.yul\":2151:2155   */\n  dup5\n    /* \"#utility.yul\":2145:2156   */\n  sload\n    /* \"#utility.yul\":2117:2208   */\n  tag_48\n  jump\t// in\ntag_93:\n    /* \"#utility.yul\":2111:2115   */\n  dup3\n    /* \"#utility.yul\":2104:2209   */\n  sstore\n    /* \"#utility.yul\":2022:2215   */\n  pop\n    /* \"#utility.yul\":1946:2215   */\n  pop\n  pop\n  pop\n  jump\t// out\n    /* \"#utility.yul\":2221:2294   */\ntag_54:\n    /* \"#utility.yul\":2266:2269   */\n  0x00\n    /* \"#utility.yul\":2287:2288   */\n  0x00\n    /* \"#utility.yul\":2280:2288   */\n  swap1\n  pop\n    /* \"#utility.yul\":2221:2294   */\n  swap1\n  jump\t// out\n    /* \"#utility.yul\":2300:2489   */\ntag_55:\n    /* \"#utility.yul\":2377:2409   */\n  tag_97\n  tag_54\n  jump\t// in\ntag_97:\n    /* \"#utility.yul\":2418:2483   */\n  tag_98\n    /* \"#utility.yul\":2476:2482   */\n  dup2\n    /* \"#utility.yul\":2468:2474   */\n  dup5\n    /* \"#utility.yul\":2462:2466   */\n  dup5\n    /* \"#utility.yul\":2418:2483   */\n  tag_53\n  jump\t// in\ntag_98:\n    /* \"#utility.yul\":2353:2489   */\n  pop\n    /* \"#utility.yul\":2300:2489   */\n  pop\n  pop\n  jump\t// out\n    /* \"#utility.yul\":2495:2681   */\ntag_56:\n    /* \"#utility.yul\":2555:2675   */\ntag_100:\n    /* \"#utility.yul\":2572:2575   */\n  dup2\n    /* \"#utility.yul\":2565:2570   */\n  dup2\n    /* \"#utility.yul\":2562:2576   */\n  lt\n    /* \"#utility.yul\":2555:2675   */\n  iszero\n  tag_102\n  jumpi\n    /* \"#utility.yul\":2626:2665   */\n  tag_103\n    /* \"#utility.yul\":2663:2664   */\n  0x00\n    /* \"#utility.yul\":2656:2661   */\n  dup3\n    /* \"#utility.yul\":2626:2665   */\n  tag_55\n  jump\t// in\ntag_103:\n    /* \"#utility.yul\":2599:2600   */\n  0x01\n    /* \"#utility.yul\":2592:2597   */\n  dup2\n    /* \"#utility.yul\":2588:2601   */\n  add\n    /* \"#utility.yul\":2579:2601   */\n  swap1\n  pop\n    /* \"#utility.yul\":2555:2675   */\n  jump(tag_100)\ntag_102:\n    /* \"#utility.yul\":2495:2681   */\n  pop\n  pop\n  jump\t// out\n    /* \"#utility.yul\":2687:3230   */\ntag_57:\n    /* \"#utility.yul\":2788:2790   */\n  0x1f\n    /* \"#utility.yul\":2783:2786   */\n  dup3\n    /* \"#utility.yul\":2780:2791   */\n  gt\n    /* \"#utility.yul\":2777:3223   */\n  iszero\n  tag_105\n  jumpi\n    /* \"#utility.yul\":2822:2860   */\n  tag_106\n    /* \"#utility.yul\":2854:2859   */\n  dup2\n    /* \"#utility.yul\":2822:2860   */\n  tag_45\n  jump\t// in\ntag_106:\n    /* \"#utility.yul\":2906:2935   */\n  tag_107\n    /* \"#utility.yul\":2924:2934   */\n  dup5\n    /* \"#utility.yul\":2906:2935   */\n  tag_46\n  jump\t// in\ntag_107:\n    /* \"#utility.yul\":2896:2904   */\n  dup2\n    /* \"#utility.yul\":2892:2936   */\n  add\n    /* \"#utility.yul\":3089:3091   */\n  0x20\n    /* \"#utility.yul\":3077:3087   */\n  dup6\n    /* \"#utility.yul\":3074:3092   */\n  lt\n    /* \"#utility.yul\":3071:3120   */\n  iszero\n  tag_108\n  jumpi\n    /* \"#utility.yul\":3110:3118   */\n  dup2\n    /* \"#utility.yul\":3095:3118   */\n  swap1\n  pop\n    /* \"#utility.yul\":3071:3120   */\ntag_108:\n    /* \"#utility.yul\":3133:3213   */\n  tag_109\n    /* \"#utility.yul\":3189:3211   */\n  tag_110\n    /* \"#utility.yul\":3207:3210   */\n  dup6\n    /* \"#utility.yul\":3189:3211   */\n  tag_46\n  jump\t// in\ntag_110:\n    /* \"#utility.yul\":3179:3187   */\n  dup4\n    /* \"#utility.yul\":3175:3212   */\n  add\n    /* \"#utility.yul\":3162:3173   */\n  dup3\n    /* \"#utility.yul\":3133:3213   */\n  tag_56\n  jump\t// in\ntag_109:\n    /* \"#utility.yul\":2792:3223   */\n  pop\n  pop\n    /* \"#utility.yul\":2777:3223   */\ntag_105:\n    /* \"#utility.yul\":2687:3230   */\n  pop\n  pop\n  pop\n  jump\t// out\n    /* \"#utility.yul\":3236:3353   */\ntag_58:\n    /* \"#utility.yul\":3290:3298   */\n  0x00\n    /* \"#utility.yul\":3340:3345   */\n  dup3\n    /* \"#utility.yul\":3334:3338   */\n  dup3\n    /* \"#utility.yul\":3330:3346   */\n  shr\n    /* \"#utility.yul\":3309:3346   */\n  swap1\n  pop\n    /* \"#utility.yul\":3236:3353   */\n  swap3\n  swap2\n  pop\n  pop\n  jump\t// out\n    /* \"#utility.yul\":3359:3528   */\ntag_59:\n    /* \"#utility.yul\":3403:3409   */\n  0x00\n    /* \"#utility.yul\":3436:3487   */\n  tag_113\n    /* \"#utility.yul\":3484:3485   */\n  0x00\n    /* \"#utility.yul\":3480:3486   */\n  not\n    /* \"#utility.yul\":3472:3477   */\n  dup5\n    /* \"#utility.yul\":3469:3470   */\n  0x08\n    /* \"#utility.yul\":3465:3478   */\n  mul\n    /* \"#utility.yul\":3436:3487   */\n  tag_58\n  jump\t// in\ntag_113:\n    /* \"#utility.yul\":3432:3488   */\n  not\n    /* \"#utility.yul\":3517:3521   */\n  dup1\n    /* \"#utility.yul\":3511:3515   */\n  dup4\n    /* \"#utility.yul\":3507:3522   */\n  and\n    /* \"#utility.yul\":3497:3522   */\n  swap2\n  pop\n    /* \"#utility.yul\":3410:3528   */\n  pop\n    /* \"#utility.yul\":3359:3528   */\n  swap3\n  swap2\n  pop\n  pop\n  jump\t// out\n    /* \"#utility.yul\":3533:3828   */\ntag_60:\n    /* \"#utility.yul\":3609:3613   */\n  0x00\n    /* \"#utility.yul\":3755:3784   */\n  tag_115\n    /* \"#utility.yul\":3780:3783   */\n  dup4\n    /* \"#utility.yul\":3774:3778   */\n  dup4\n    /* \"#utility.yul\":3755:3784   */\n  tag_59\n  jump\t// in\ntag_115:\n    /* \"#utility.yul\":3747:3784   */\n  swap2\n  pop\n    /* \"#utility.yul\":3817:3820   */\n  dup3\n    /* \"#utility.yul\":3814:3815   */\n  0x02\n    /* \"#utility.yul\":3810:3821   */\n  mul\n    /* \"#utility.yul\":3804:3808   */\n  dup3\n    /* \"#utility.yul\":3801:3822   */\n  or\n    /* \"#utility.yul\":3793:3822   */\n  swap1\n  pop\n    /* \"#utility.yul\":3533:3828   */\n  swap3\n  swap2\n  pop\n  pop\n  jump\t// out\n    /* \"#utility.yul\":3833:5228   */\ntag_6:\n    /* \"#utility.yul\":3950:3987   */\n  tag_117\n    /* \"#utility.yul\":3983:3986   */\n  dup3\n    /* \"#utility.yul\":3950:3987   */\n  tag_41\n  jump\t// in\ntag_117:\n    /* \"#utility.yul\":4052:4070   */\n  0xffffffffffffffff\n    /* \"#utility.yul\":4044:4050   */\n  dup2\n    /* \"#utility.yul\":4041:4071   */\n  gt\n    /* \"#utility.yul\":4038:4094   */\n  iszero\n  tag_118\n  jumpi\n    /* \"#utility.yul\":4074:4092   */\n  tag_119\n  tag_42\n  jump\t// in\ntag_119:\n    /* \"#utility.yul\":4038:4094   */\ntag_118:\n    /* \"#utility.yul\":4118:4156   */\n  tag_120\n    /* \"#utility.yul\":4150:4154   */\n  dup3\n    /* \"#utility.yul\":4144:4155   */\n  sload\n    /* \"#utility.yul\":4118:4156   */\n  tag_44\n  jump\t// in\ntag_120:\n    /* \"#utility.yul\":4203:4270   */\n  tag_121\n    /* \"#utility.yul\":4263:4269   */\n  dup3\n    /* \"#utility.yul\":4255:4261   */\n  dup3\n    /* \"#utility.yul\":4249:4253   */\n  dup6\n    /* \"#utility.yul\":4203:4270   */\n  tag_57\n  jump\t// in\ntag_121:\n    /* \"#utility.yul\":4297:4298   */\n  0x00\n    /* \"#utility.yul\":4321:4325   */\n  0x20\n    /* \"#utility.yul\":4308:4325   */\n  swap1\n  pop\n    /* \"#utility.yul\":4353:4355   */\n  0x1f\n    /* \"#utility.yul\":4345:4351   */\n  dup4\n    /* \"#utility.yul\":4342:4356   */\n  gt\n    /* \"#utility.yul\":4370:4371   */\n  0x01\n    /* \"#utility.yul\":4365:4983   */\n  dup2\n  eq\n  tag_123\n  jumpi\n    /* \"#utility.yul\":5027:5028   */\n  0x00\n    /* \"#utility.yul\":5044:5050   */\n  dup5\n    /* \"#utility.yul\":5041:5118   */\n  iszero\n  tag_124\n  jumpi\n    /* \"#utility.yul\":5093:5102   */\n  dup3\n    /* \"#utility.yul\":5088:5091   */\n  dup8\n    /* \"#utility.yul\":5084:5103   */\n  add\n    /* \"#utility.yul\":5078:5104   */\n  mload\n    /* \"#utility.yul\":5069:5104   */\n  swap1\n  pop\n    /* \"#utility.yul\":5041:5118   */\ntag_124:\n    /* \"#utility.yul\":5144:5211   */\n  tag_125\n    /* \"#utility.yul\":5204:5210   */\n  dup6\n    /* \"#utility.yul\":5197:5202   */\n  dup3\n    /* \"#utility.yul\":5144:5211   */\n  tag_60\n  jump\t// in\ntag_125:\n    /* \"#utility.yul\":5138:5142   */\n  dup7\n    /* \"#utility.yul\":5131:5212   */\n  sstore\n    /* \"#utility.yul\":5000:5222   */\n  pop\n    /* \"#utility.yul\":4335:5222   */\n  jump(tag_122)\n    /* \"#utility.yul\":4365:4983   */\ntag_123:\n    /* \"#utility.yul\":4417:4421   */\n  0x1f\n    /* \"#utility.yul\":4413:4422   */\n  not\n    /* \"#utility.yul\":4405:4411   */\n  dup5\n    /* \"#utility.yul\":4401:4423   */\n  and\n    /* \"#utility.yul\":4451:4488   */\n  tag_126\n    /* \"#utility.yul\":4483:4487   */\n  dup7\n    /* \"#utility.yul\":4451:4488   */\n  tag_45\n  jump\t// in\ntag_126:\n    /* \"#utility.yul\":4510:4511   */\n  0x00\n    /* \"#utility.yul\":4524:4732   */\ntag_127:\n    /* \"#utility.yul\":4538:4545   */\n  dup3\n    /* \"#utility.yul\":4535:4536   */\n  dup2\n    /* \"#utility.yul\":4532:4546   */\n  lt\n    /* \"#utility.yul\":4524:4732   */\n  iszero\n  tag_129\n  jumpi\n    /* \"#utility.yul\":4617:4626   */\n  dup5\n    /* \"#utility.yul\":4612:4615   */\n  dup10\n    /* \"#utility.yul\":4608:4627   */\n  add\n    /* \"#utility.yul\":4602:4628   */\n  mload\n    /* \"#utility.yul\":4594:4600   */\n  dup3\n    /* \"#utility.yul\":4587:4629   */\n  sstore\n    /* \"#utility.yul\":4668:4669   */\n  0x01\n    /* \"#utility.yul\":4660:4666   */\n  dup3\n    /* \"#utility.yul\":4656:4670   */\n  add\n    /* \"#utility.yul\":4646:4670   */\n  swap2\n  pop\n    /* \"#utility.yul\":4715:4717   */\n  0x20\n    /* \"#utility.yul\":4704:4713   */\n  dup6\n    /* \"#utility.yul\":4700:4718   */\n  add\n    /* \"#utility.yul\":4687:4718   */\n  swap5\n  pop\n    /* \"#utility.yul\":4561:4565   */\n  0x20\n    /* \"#utility.yul\":4558:4559   */\n  dup2\n    /* \"#utility.yul\":4554:4566   */\n  add\n    /* \"#utility.yul\":4549:4566   */\n  swap1\n  pop\n    /* \"#utility.yul\":4524:4732   */\n  jump(tag_127)\ntag_129:\n    /* \"#utility.yul\":4760:4766   */\n  dup7\n    /* \"#utility.yul\":4751:4758   */\n  dup4\n    /* \"#utility.yul\":4748:4767   */\n  lt\n    /* \"#utility.yul\":4745:4924   */\n  iszero\n  tag_130\n  jumpi\n    /* \"#utility.yul\":4818:4827   */\n  dup5\n    /* \"#utility.yul\":4813:4816   */\n  dup10\n    /* \"#utility.yul\":4809:4828   */\n  add\n    /* \"#utility.yul\":4803:4829   */\n  mload\n    /* \"#utility.yul\":4861:4909   */\n  tag_131\n    /* \"#utility.yul\":4903:4907   */\n  0x1f\n    /* \"#utility.yul\":4895:4901   */\n  dup10\n    /* \"#utility.yul\":4891:4908   */\n  and\n    /* \"#utility.yul\":4880:4889   */\n  dup3\n    /* \"#utility.yul\":4861:4909   */\n  tag_59\n  jump\t// in\ntag_131:\n    /* \"#utility.yul\":4853:4859   */\n  dup4\n    /* \"#utility.yul\":4846:4910   */\n  sstore\n    /* \"#utility.yul\":4768:4924   */\n  pop\n    /* \"#utility.yul\":4745:4924   */\ntag_130:\n    /* \"#utility.yul\":4970:4971   */\n  0x01\n    /* \"#utility.yul\":4966:4967   */\n  0x02\n    /* \"#utility.yul\":4958:4964   */\n  dup9\n    /* \"#utility.yul\":4954:4968   */\n  mul\n    /* \"#utility.yul\":4950:4972   */\n  add\n    /* \"#utility.yul\":4944:4948   */\n  dup9\n    /* \"#utility.yul\":4937:4973   */\n  sstore\n    /* \"#utility.yul\":4372:4983   */\n  pop\n  pop\n  pop\n    /* \"#utility.yul\":4335:5222   */\ntag_122:\n  pop\n    /* \"#utility.yul\":3925:5228   */\n  pop\n  pop\n  pop\n    /* \"#utility.yul\":3833:5228   */\n  pop\n  pop\n  jump\t// out\n    /* \"#utility.yul\":5234:5414   */\ntag_61:\n    /* \"#utility.yul\":5282:5359   */\n  0x4e487b7100000000000000000000000000000000000000000000000000000000\n    /* \"#utility.yul\":5279:5280   */\n  0x00\n    /* \"#utility.yul\":5272:5360   */\n  mstore\n    /* \"#utility.yul\":5379:5383   */\n  0x11\n    /* \"#utility.yul\":5376:5377   */\n  0x04\n    /* \"#utility.yul\":5369:5384   */\n  mstore\n    /* \"#utility.yul\":5403:5407   */\n  0x24\n    /* \"#utility.yul\":5400:5401   */\n  0x00\n    /* \"#utility.yul\":5393:5408   */\n  revert\n    /* \"#utility.yul\":5420:5522   */\ntag_62:\n    /* \"#utility.yul\":5462:5470   */\n  0x00\n    /* \"#utility.yul\":5509:5514   */\n  dup2\n    /* \"#utility.yul\":5506:5507   */\n  0x01\n    /* \"#utility.yul\":5502:5515   */\n  shr\n    /* \"#utility.yul\":5481:5515   */\n  swap1\n  pop\n    /* \"#utility.yul\":5420:5522   */\n  swap2\n  swap1\n  pop\n  jump\t// out\n    /* \"#utility.yul\":5528:6376   */\ntag_63:\n    /* \"#utility.yul\":5589:5594   */\n  0x00\n    /* \"#utility.yul\":5596:5600   */\n  0x00\n    /* \"#utility.yul\":5620:5626   */\n  dup3\n    /* \"#utility.yul\":5611:5626   */\n  swap2\n  pop\n    /* \"#utility.yul\":5644:5649   */\n  dup4\n    /* \"#utility.yul\":5635:5649   */\n  swap1\n  pop\n    /* \"#utility.yul\":5658:6370   */\ntag_135:\n    /* \"#utility.yul\":5679:5680   */\n  0x01\n    /* \"#utility.yul\":5669:5677   */\n  dup6\n    /* \"#utility.yul\":5666:5681   */\n  gt\n    /* \"#utility.yul\":5658:6370   */\n  iszero\n  tag_137\n  jumpi\n    /* \"#utility.yul\":5774:5778   */\n  dup1\n    /* \"#utility.yul\":5769:5772   */\n  dup7\n    /* \"#utility.yul\":5765:5779   */\n  div\n    /* \"#utility.yul\":5759:5763   */\n  dup2\n    /* \"#utility.yul\":5756:5780   */\n  gt\n    /* \"#utility.yul\":5753:5803   */\n  iszero\n  tag_138\n  jumpi\n    /* \"#utility.yul\":5783:5801   */\n  tag_139\n  tag_61\n  jump\t// in\ntag_139:\n    /* \"#utility.yul\":5753:5803   */\ntag_138:\n    /* \"#utility.yul\":5833:5834   */\n  0x01\n    /* \"#utility.yul\":5823:5831   */\n  dup6\n    /* \"#utility.yul\":5819:5835   */\n  and\n    /* \"#utility.yul\":5816:6267   */\n  iszero\n  tag_140\n  jumpi\n    /* \"#utility.yul\":6248:6252   */\n  dup1\n    /* \"#utility.yul\":6241:6246   */\n  dup3\n    /* \"#utility.yul\":6237:6253   */\n  mul\n    /* \"#utility.yul\":6228:6253   */\n  swap2\n  pop\n    /* \"#utility.yul\":5816:6267   */\ntag_140:\n    /* \"#utility.yul\":6298:6302   */\n  dup1\n    /* \"#utility.yul\":6292:6296   */\n  dup2\n    /* \"#utility.yul\":6288:6303   */\n  mul\n    /* \"#utility.yul\":6280:6303   */\n  swap1\n  pop\n    /* \"#utility.yul\":6328:6360   */\n  tag_141\n    /* \"#utility.yul\":6351:6359   */\n  dup6\n    /* \"#utility.yul\":6328:6360   */\n  tag_62\n  jump\t// in\ntag_141:\n    /* \"#utility.yul\":6316:6360   */\n  swap5\n  pop\n    /* \"#utility.yul\":5658:6370   */\n  jump(tag_135)\ntag_137:\n    /* \"#utility.yul\":5528:6376   */\n  swap5\n  pop\n  swap5\n  swap3\n  pop\n  pop\n  pop\n  jump\t// out\n    /* \"#utility.yul\":6382:7455   */\ntag_64:\n    /* \"#utility.yul\":6436:6441   */\n  0x00\n    /* \"#utility.yul\":6627:6635   */\n  dup3\n    /* \"#utility.yul\":6617:6657   */\n  tag_143\n  jumpi\n    /* \"#utility.yul\":6648:6649   */\n  0x01\n    /* \"#utility.yul\":6639:6649   */\n  swap1\n  pop\n    /* \"#utility.yul\":6650:6655   */\n  jump(tag_142)\n    /* \"#utility.yul\":6617:6657   */\ntag_143:\n    /* \"#utility.yul\":6676:6680   */\n  dup2\n    /* \"#utility.yul\":6666:6702   */\n  tag_144\n  jumpi\n    /* \"#utility.yul\":6693:6694   */\n  0x00\n    /* \"#utility.yul\":6684:6694   */\n  swap1\n  pop\n    /* \"#utility.yul\":6695:6700   */\n  jump(tag_142)\n    /* \"#utility.yul\":6666:6702   */\ntag_144:\n    /* \"#utility.yul\":6762:6766   */\n  dup2\n    /* \"#utility.yul\":6810:6811   */\n  0x01\n    /* \"#utility.yul\":6805:6832   */\n  dup2\n  eq\n  tag_146\n  jumpi\n    /* \"#utility.yul\":6846:6847   */\n  0x02\n    /* \"#utility.yul\":6841:7032   */\n  dup2\n  eq\n  tag_147\n  jumpi\n    /* \"#utility.yul\":6755:7032   */\n  jump(tag_145)\n    /* \"#utility.yul\":6805:6832   */\ntag_146:\n    /* \"#utility.yul\":6823:6824   */\n  0x01\n    /* \"#utility.yul\":6814:6824   */\n  swap2\n  pop\n    /* \"#utility.yul\":6825:6830   */\n  pop\n  jump(tag_142)\n    /* \"#utility.yul\":6841:7032   */\ntag_147:\n    /* \"#utility.yul\":6886:6889   */\n  0xff\n    /* \"#utility.yul\":6876:6884   */\n  dup5\n    /* \"#utility.yul\":6873:6890   */\n  gt\n    /* \"#utility.yul\":6870:6913   */\n  iszero\n  tag_148\n  jumpi\n    /* \"#utility.yul\":6893:6911   */\n  tag_149\n  tag_61\n  jump\t// in\ntag_149:\n    /* \"#utility.yul\":6870:6913   */\ntag_148:\n    /* \"#utility.yul\":6942:6950   */\n  dup4\n    /* \"#utility.yul\":6939:6940   */\n  0x02\n    /* \"#utility.yul\":6935:6951   */\n  exp\n    /* \"#utility.yul\":6926:6951   */\n  swap2\n  pop\n    /* \"#utility.yul\":6977:6980   */\n  dup5\n    /* \"#utility.yul\":6970:6975   */\n  dup3\n    /* \"#utility.yul\":6967:6981   */\n  gt\n    /* \"#utility.yul\":6964:7004   */\n  iszero\n  tag_150\n  jumpi\n    /* \"#utility.yul\":6984:7002   */\n  tag_151\n  tag_61\n  jump\t// in\ntag_151:\n    /* \"#utility.yul\":6964:7004   */\ntag_150:\n    /* \"#utility.yul\":7017:7022   */\n  pop\n  jump(tag_142)\n    /* \"#utility.yul\":6755:7032   */\ntag_145:\n  pop\n    /* \"#utility.yul\":7141:7143   */\n  0x20\n    /* \"#utility.yul\":7131:7139   */\n  dup4\n    /* \"#utility.yul\":7128:7144   */\n  lt\n    /* \"#utility.yul\":7122:7125   */\n  0x0133\n    /* \"#utility.yul\":7116:7120   */\n  dup4\n    /* \"#utility.yul\":7113:7126   */\n  lt\n    /* \"#utility.yul\":7109:7145   */\n  and\n    /* \"#utility.yul\":7091:7093   */\n  0x4e\n    /* \"#utility.yul\":7081:7089   */\n  dup5\n    /* \"#utility.yul\":7078:7094   */\n  lt\n    /* \"#utility.yul\":7073:7075   */\n  0x0b\n    /* \"#utility.yul\":7067:7071   */\n  dup5\n    /* \"#utility.yul\":7064:7076   */\n  lt\n    /* \"#utility.yul\":7060:7095   */\n  and\n    /* \"#utility.yul\":7044:7155   */\n  or\n    /* \"#utility.yul\":7041:7287   */\n  iszero\n  tag_152\n  jumpi\n    /* \"#utility.yul\":7197:7205   */\n  dup3\n    /* \"#utility.yul\":7191:7195   */\n  dup3\n    /* \"#utility.yul\":7187:7206   */\n  exp\n    /* \"#utility.yul\":7178:7206   */\n  swap1\n  pop\n    /* \"#utility.yul\":7232:7235   */\n  dup4\n    /* \"#utility.yul\":7225:7230   */\n  dup2\n    /* \"#utility.yul\":7222:7236   */\n  gt\n    /* \"#utility.yul\":7219:7259   */\n  iszero\n  tag_153\n  jumpi\n    /* \"#utility.yul\":7239:7257   */\n  tag_154\n  tag_61\n  jump\t// in\ntag_154:\n    /* \"#utility.yul\":7219:7259   */\ntag_153:\n    /* \"#utility.yul\":7272:7277   */\n  jump(tag_142)\n    /* \"#utility.yul\":7041:7287   */\ntag_152:\n    /* \"#utility.yul\":7312:7354   */\n  tag_155\n    /* \"#utility.yul\":7350:7353   */\n  dup5\n    /* \"#utility.yul\":7340:7348   */\n  dup5\n    /* \"#utility.yul\":7334:7338   */\n  dup5\n    /* \"#utility.yul\":7331:7332   */\n  0x01\n    /* \"#utility.yul\":7312:7354   */\n  tag_63\n  jump\t// in\ntag_155:\n    /* \"#utility.yul\":7297:7354   */\n  swap3\n  pop\n  swap1\n  pop\n    /* \"#utility.yul\":7386:7390   */\n  dup2\n    /* \"#utility.yul\":7381:7384   */\n  dup5\n    /* \"#utility.yul\":7377:7391   */\n  div\n    /* \"#utility.yul\":7370:7375   */\n  dup2\n    /* \"#utility.yul\":7367:7392   */\n  gt\n    /* \"#utility.yul\":7364:7415   */\n  iszero\n  tag_156\n  jumpi\n    /* \"#utility.yul\":7395:7413   */\n  tag_157\n  tag_61\n  jump\t// in\ntag_157:\n    /* \"#utility.yul\":7364:7415   */\ntag_156:\n    /* \"#utility.yul\":7444:7448   */\n  dup2\n    /* \"#utility.yul\":7437:7442   */\n  dup2\n    /* \"#utility.yul\":7433:7449   */\n  mul\n    /* \"#utility.yul\":7424:7449   */\n  swap1\n  pop\n    /* \"#utility.yul\":6382:7455   */\ntag_142:\n  swap4\n  swap3\n  pop\n  pop\n  pop\n  jump\t// out\n    /* \"#utility.yul\":7461:7547   */\ntag_65:\n    /* \"#utility.yul\":7496:7503   */\n  0x00\n    /* \"#utility.yul\":7536:7540   */\n  0xff\n    /* \"#utility.yul\":7529:7534   */\n  dup3\n    /* \"#utility.yul\":7525:7541   */\n  and\n    /* \"#utility.yul\":7514:7541   */\n  swap1\n  pop\n    /* \"#utility.yul\":7461:7547   */\n  swap2\n  swap1\n  pop\n  jump\t// out\n    /* \"#utility.yul\":7553:7834   */\ntag_16:\n    /* \"#utility.yul\":7611:7616   */\n  0x00\n    /* \"#utility.yul\":7635:7658   */\n  tag_160\n    /* \"#utility.yul\":7653:7657   */\n  dup3\n    /* \"#utility.yul\":7635:7658   */\n  tag_49\n  jump\t// in\ntag_160:\n    /* \"#utility.yul\":7627:7658   */\n  swap2\n  pop\n    /* \"#utility.yul\":7679:7704   */\n  tag_161\n    /* \"#utility.yul\":7695:7703   */\n  dup4\n    /* \"#utility.yul\":7679:7704   */\n  tag_65\n  jump\t// in\ntag_161:\n    /* \"#utility.yul\":7667:7704   */\n  swap3\n  pop\n    /* \"#utility.yul\":7723:7827   */\n  tag_162\n    /* \"#utility.yul\":7760:7826   */\n  0xffffffffffffffffffffffffffffffffffffffffffffffffffffffffffffffff\n    /* \"#utility.yul\":7750:7758   */\n  dup5\n    /* \"#utility.yul\":7744:7748   */\n  dup5\n    /* \"#utility.yul\":7723:7827   */\n  tag_64\n  jump\t// in\ntag_162:\n    /* \"#utility.yul\":7714:7827   */\n  swap1\n  pop\n    /* \"#utility.yul\":7553:7834   */\n  swap3\n  swap2\n  pop\n  pop\n  jump\t// out\n    /* \"#utility.yul\":7840:8250   */\ntag_18:\n    /* \"#utility.yul\":7880:7887   */\n  0x00\n    /* \"#utility.yul\":7903:7923   */\n  tag_164\n    /* \"#utility.yul\":7921:7922   */\n  dup3\n    /* \"#utility.yul\":7903:7923   */\n  tag_49\n  jump\t// in\ntag_164:\n    /* \"#utility.yul\":7898:7923   */\n  swap2\n  pop\n    /* \"#utility.yul\":7937:7957   */\n  tag_165\n    /* \"#utility.yul\":7955:7956   */\n  dup4\n    /* \"#utility.yul\":7937:7957   */\n  tag_49\n  jump\t// in\ntag_165:\n    /* \"#utility.yul\":7932:7957   */\n  swap3\n  pop\n    /* \"#utility.yul\":7992:7993   */\n  dup3\n    /* \"#utility.yul\":7989:7990   */\n  dup3\n    /* \"#utility.yul\":7985:7994   */\n  mul\n    /* \"#utility.yul\":8014:8044   */\n  tag_166\n    /* \"#utility.yul\":8032:8043   */\n  dup2\n    /* \"#utility.yul\":8014:8044   */\n  tag_49\n  jump\t// in\ntag_166:\n    /* \"#utility.yul\":8003:8044   */\n  swap2\n  pop\n    /* \"#utility.yul\":8193:8194   */\n  dup3\n    /* \"#utility.yul\":8184:8191   */\n  dup3\n    /* \"#utility.yul\":8180:8195   */\n  div\n    /* \"#utility.yul\":8177:8178   */\n  dup5\n    /* \"#utility.yul\":8174:8196   */\n  eq\n    /* \"#utility.yul\":8154:8155   */\n  dup4\n    /* \"#utility.yul\":8147:8156   */\n  iszero\n    /* \"#utility.yul\":8127:8210   */\n  or\n    /* \"#utility.yul\":8104:8243   */\n  tag_167\n  jumpi\n    /* \"#utility.yul\":8223:8241   */\n  tag_168\n  tag_61\n  jump\t// in\ntag_168:\n    /* \"#utility.yul\":8104:8243   */\ntag_167:\n    /* \"#utility.yul\":7888:8250   */\n  pop\n    /* \"#utility.yul\":7840:8250   */\n  swap3\n  swap2\n  pop\n  pop\n  jump\t// out\n    /* \"#utility.yul\":8256:8382   */\ntag_66:\n    /* \"#utility.yul\":8293:8300   */\n  0x00\n    /* \"#utility.yul\":8333:8375   */\n  0xffffffffffffffffffffffffffffffffffffffff\n    /* \"#utility.yul\":8326:8331   */\n  dup3\n    /* \"#utility.yul\":8322:8376   */\n  and\n    /* \"#utility.yul\":8311:8376   */\n  swap1\n  pop\n    /* \"#utility.yul\":8256:8382   */\n  swap2\n  swap1\n  pop\n  jump\t// out\n    /* \"#utility.yul\":8388:8484   */\ntag_67:\n    /* \"#utility.yul\":8425:8432   */\n  0x00\n    /* \"#utility.yul\":8454:8478   */\n  tag_171\n    /* \"#utility.yul\":8472:8477   */\n  dup3\n    /* \"#utility.yul\":8454:8478   */\n  tag_66\n  jump\t// in\ntag_171:\n    /* \"#utility.yul\":8443:8478   */\n  swap1\n  pop\n    /* \"#utility.yul\":8388:8484   */\n  swap2\n  swap1\n  pop\n  jump\t// out\n    /* \"#utility.yul\":8490:8608   */\ntag_68:\n    /* \"#utility.yul\":8577:8601   */\n  tag_173\n    /* \"#utility.yul\":8595:8600   */\n  dup2\n    /* \"#utility.yul\":8577:8601   */\n  tag_67\n  jump\t// in\ntag_173:\n    /* \"#utility.yul\":8572:8575   */\n  dup3\n    /* \"#utility.yul\":8565:8602   */\n  mstore\n    /* \"#utility.yul\":8490:8608   */\n  pop\n  pop\n  jump\t// out\n    /* \"#utility.yul\":8614:8836   */\ntag_26:\n    /* \"#utility.yul\":8707:8711   */\n  0x00\n    /* \"#utility.yul\":8745:8747   */\n  0x20\n    /* \"#utility.yul\":8734:8743   */\n  dup3\n    /* \"#utility.yul\":8730:8748   */\n  add\n    /* \"#utility.yul\":8722:8748   */\n  swap1\n  pop\n    /* \"#utility.yul\":8758:8829   */\n  tag_175\n    /* \"#utility.yul\":8826:8827   */\n  0x00\n    /* \"#utility.yul\":8815:8824   */\n  dup4\n    /* \"#utility.yul\":8811:8828   */\n  add\n    /* \"#utility.yul\":8802:8808   */\n  dup5\n    /* \"#utility.yul\":8758:8829   */\n  tag_68\n  jump\t// in\ntag_175:\n    /* \"#utility.yul\":8614:8836   */\n  swap3\n  swap2\n  pop\n  pop\n  jump\t// out\n    /* \"#utility.yul\":8842:9033   */\ntag_32:\n    /* \"#utility.yul\":8882:8885   */\n  0x00\n    /* \"#utility.yul\":8901:8921   */\n  tag_177\n    /* \"#utility.yul\":8919:8920   */\n  dup3\n    /* \"#utility.yul\":8901:8921   */\n  tag_49\n  jump\t// in\ntag_177:\n    /* \"#utility.yul\":8896:8921   */\n  swap2\n  pop\n    /* \"#utility.yul\":8935:8955   */\n  tag_178\n    /* \"#utility.yul\":8953:8954   */\n  dup4\n    /* \"#utility.yul\":8935:8955   */\n  tag_49\n  jump\t// in\ntag_178:\n    /* \"#utility.yul\":8930:8955   */\n  swap3\n  pop\n    /* \"#utility.yul\":8978:8979   */\n  dup3\n    /* \"#utility.yul\":8975:8976   */\n  dup3\n    /* \"#utility.yul\":8971:8980   */\n  add\n    /* \"#utility.yul\":8964:8980   */\n  swap1\n  pop\n    /* \"#utility.yul\":8999:9002   */\n  dup1\n    /* \"#utility.yul\":8996:8997   */\n  dup3\n    /* \"#utility.yul\":8993:9003   */\n  gt\n    /* \"#utility.yul\":8990:9026   */\n  iszero\n  tag_179\n  jumpi\n    /* \"#utility.yul\":9006:9024   */\n  tag_180\n  tag_61\n  jump\t// in\ntag_180:\n    /* \"#utility.yul\":8990:9026   */\ntag_179:\n    /* \"#utility.yul\":8842:9033   */\n  swap3\n  swap2\n  pop\n  pop\n  jump\t// out\n    /* \"#utility.yul\":9039:9157   */\ntag_69:\n    /* \"#utility.yul\":9126:9150   */\n  tag_182\n    /* \"#utility.yul\":9144:9149   */\n  dup2\n    /* \"#utility.yul\":9126:9150   */\n  tag_49\n  jump\t// in\ntag_182:\n    /* \"#utility.yul\":9121:9124   */\n  dup3\n    /* \"#utility.yul\":9114:9151   */\n  mstore\n    /* \"#utility.yul\":9039:9157   */\n  pop\n  pop\n  jump\t// out\n    /* \"#utility.yul\":9163:9605   */\ntag_36:\n    /* \"#utility.yul\":9312:9316   */\n  0x00\n    /* \"#utility.yul\":9350:9352   */\n  0x60\n    /* \"#utility.yul\":9339:9348   */\n  dup3\n    /* \"#utility.yul\":9335:9353   */\n  add\n    /* \"#utility.yul\":9327:9353   */\n  swap1\n  pop\n    /* \"#utility.yul\":9363:9434   */\n  tag_184\n    /* \"#utility.yul\":9431:9432   */\n  0x00\n    /* \"#utility.yul\":9420:9429   */\n  dup4\n    /* \"#utility.yul\":9416:9433   */\n  add\n    /* \"#utility.yul\":9407:9413   */\n  dup7\n    /* \"#utility.yul\":9363:9434   */\n  tag_68\n  jump\t// in\ntag_184:\n    /* \"#utility.yul\":9444:9516   */\n  tag_185\n    /* \"#utility.yul\":9512:9514   */\n  0x20\n    /* \"#utility.yul\":9501:9510   */\n  dup4\n    /* \"#utility.yul\":9497:9515   */\n  add\n    /* \"#utility.yul\":9488:9494   */\n  dup6\n    /* \"#utility.yul\":9444:9516   */\n  tag_69\n  jump\t// in\ntag_185:\n    /* \"#utility.yul\":9526:9598   */\n  tag_186\n    /* \"#utility.yul\":9594:9596   */\n  0x40\n    /* \"#utility.yul\":9583:9592   */\n  dup4\n    /* \"#utility.yul\":9579:9597   */\n  add\n    /* \"#utility.yul\":9570:9576   */\n  dup5\n    /* \"#utility.yul\":9526:9598   */\n  tag_69\n  jump\t// in\ntag_186:\n    /* \"#utility.yul\":9163:9605   */\n  swap5\n  swap4\n  pop\n  pop\n  pop\n  pop\n  jump\t// out\n    /* \"#utility.yul\":9611:9833   */\ntag_40:\n    /* \"#utility.yul\":9704:9708   */\n  0x00\n    /* \"#utility.yul\":9742:9744   */\n  0x20\n    /* \"#utility.yul\":9731:9740   */\n  dup3\n    /* \"#utility.yul\":9727:9745   */\n  add\n    /* \"#utility.yul\":9719:9745   */\n  swap1\n  pop\n    /* \"#utility.yul\":9755:9826   */\n  tag_188\n    /* \"#utility.yul\":9823:9824   */\n  0x00\n    /* \"#utility.yul\":9812:9821   */\n  dup4\n    /* \"#utility.yul\":9808:9825   */\n  add\n    /* \"#utility.yul\":9799:9805   */\n  dup5\n    /* \"#utility.yul\":9755:9826   */\n  tag_69\n  jump\t// in\ntag_188:\n    /* \"#utility.yul\":9611:9833   */\n  swap3\n  swap2\n  pop\n  pop\n  jump\t// out\n    /* \"PramanToken_flattened.sol\":33804:34265  contract Praman is ERC20, AccessControl {... */\ntag_20:\n  dataSize(sub_0)\n  dup1\n  dataOffset(sub_0)\n  0x00\n  codecopy\n  0x00\n  return\nstop\n\nsub_0: assembly {\n        /* \"PramanToken_flattened.sol\":33804:34265  contract Praman is ERC20, AccessControl {... */\n      mstore(0x40, 0x80)\n      callvalue\n      dup1\n      iszero\n      tag_1\n      jumpi\n      revert(0x00, 0x00)\n    tag_1:\n      pop\n      jumpi(tag_2, lt(calldatasize, 0x04))\n      shr(0xe0, calldataload(0x00))\n      dup1\n      0x40c10f19\n      gt\n      tag_21\n      jumpi\n      dup1\n      0xa217fddf\n      gt\n      tag_22\n      jumpi\n      dup1\n      0xa217fddf\n      eq\n      tag_16\n      jumpi\n      dup1\n      0xa9059cbb\n      eq\n      tag_17\n      jumpi\n      dup1\n      0xd5391393\n      eq\n      tag_18\n      jumpi\n      dup1\n      0xd547741f\n      eq\n      tag_19\n      jumpi\n      dup1\n      0xdd62ed3e\n      eq\n      tag_20\n      jumpi\n      jump(tag_2)\n    tag_22:\n      dup1\n      0x40c10f19\n      eq\n      tag_12\n      jumpi\n      dup1\n      0x70a08231\n      eq\n      tag_13\n      jumpi\n      dup1\n      0x91d14854\n      eq\n      tag_14\n      jumpi\n      dup1\n      0x95d89b41\n      eq\n      tag_15\n      jumpi\n      jump(tag_2)\n    tag_21:\n      dup1\n      0x23b872dd\n      gt\n      tag_23\n      jumpi\n      dup1\n      0x23b872dd\n      eq\n      tag_7\n      jumpi\n      dup1\n      0x248a9ca3\n      eq\n      tag_8\n      jumpi\n      dup1\n      0x2f2ff15d\n      eq\n      tag_9\n      jumpi\n      dup1\n      0x313ce567\n      eq\n      tag_10\n      jumpi\n      dup1\n      0x36568abe\n      eq\n      tag_11\n      jumpi\n      jump(tag_2)\n    tag_23:\n      dup1\n      0x01ffc9a7\n      eq\n      tag_3\n      jumpi\n      dup1\n      0x06fdde03\n      eq\n      tag_4\n      jumpi\n      dup1\n      0x095ea7b3\n      eq\n      tag_5\n      jumpi\n      dup1\n      0x18160ddd\n      eq\n      tag_6\n      jumpi\n    tag_2:\n      revert(0x00, 0x00)\n        /* \"PramanToken_flattened.sol\":29261:29463  function supportsInterface(bytes4 interfaceId) public view virtual override returns (bool) {... */\n    tag_3:\n      tag_24\n      0x04\n      dup1\n      calldatasize\n      sub\n      dup2\n      add\n      swap1\n      tag_25\n      swap2\n      swap1\n      tag_26\n      jump\t// in\n    tag_25:\n      tag_27\n      jump\t// in\n    tag_24:\n      mload(0x40)\n      tag_28\n      swap2\n      swap1\n      tag_29\n      jump\t// in\n    tag_28:\n      mload(0x40)\n      dup1\n      swap2\n      sub\n      swap1\n      return\n        /* \"PramanToken_flattened.sol\":12662:12751  function name() public view virtual returns (string memory) {... */\n    tag_4:\n      tag_30\n      tag_31\n      jump\t// in\n    tag_30:\n      mload(0x40)\n      tag_32\n      swap2\n      swap1\n      tag_33\n      jump\t// in\n    tag_32:\n      mload(0x40)\n      dup1\n      swap2\n      sub\n      swap1\n      return\n        /* \"PramanToken_flattened.sol\":14804:14990  function approve(address spender, uint256 value) public virtual returns (bool) {... */\n    tag_5:\n      tag_34\n      0x04\n      dup1\n      calldatasize\n      sub\n      dup2\n      add\n      swap1\n      tag_35\n      swap2\n      swap1\n      tag_36\n      jump\t// in\n    tag_35:\n      tag_37\n      jump\t// in\n    tag_34:\n      mload(0x40)\n      tag_38\n      swap2\n      swap1\n      tag_29\n      jump\t// in\n    tag_38:\n      mload(0x40)\n      dup1\n      swap2\n      sub\n      swap1\n      return\n        /* \"PramanToken_flattened.sol\":13705:13802  function totalSupply() public view virtual returns (uint256) {... */\n    tag_6:\n      tag_39\n      tag_40\n      jump\t// in\n    tag_39:\n      mload(0x40)\n      tag_41\n      swap2\n      swap1\n      tag_42\n      jump\t// in\n    tag_41:\n      mload(0x40)\n      dup1\n      swap2\n      sub\n      swap1\n      return\n        /* \"PramanToken_flattened.sol\":15582:15826  function transferFrom(address from, address to, uint256 value) public virtual returns (bool) {... */\n    tag_7:\n      tag_43\n      0x04\n      dup1\n      calldatasize\n      sub\n      dup2\n      add\n      swap1\n      tag_44\n      swap2\n      swap1\n      tag_45\n      jump\t// in\n    tag_44:\n      tag_46\n      jump\t// in\n    tag_43:\n      mload(0x40)\n      tag_47\n      swap2\n      swap1\n      tag_29\n      jump\t// in\n    tag_47:\n      mload(0x40)\n      dup1\n      swap2\n      sub\n      swap1\n      return\n        /* \"PramanToken_flattened.sol\":30506:30626  function getRoleAdmin(bytes32 role) public view virtual returns (bytes32) {... */\n    tag_8:\n      tag_48\n      0x04\n      dup1\n      calldatasize\n      sub\n      dup2\n      add\n      swap1\n      tag_49\n      swap2\n      swap1\n      tag_50\n      jump\t// in\n    tag_49:\n      tag_51\n      jump\t// in\n    tag_48:\n      mload(0x40)\n      tag_52\n      swap2\n      swap1\n      tag_53\n      jump\t// in\n    tag_52:\n      mload(0x40)\n      dup1\n      swap2\n      sub\n      swap1\n      return\n        /* \"PramanToken_flattened.sol\":30922:31058  function grantRole(bytes32 role, address account) public virtual onlyRole(getRoleAdmin(role)) {... */\n    tag_9:\n      tag_54\n      0x04\n      dup1\n      calldatasize\n      sub\n      dup2\n      add\n      swap1\n      tag_55\n      swap2\n      swap1\n      tag_56\n      jump\t// in\n    tag_55:\n      tag_57\n      jump\t// in\n    tag_54:\n      stop\n        /* \"PramanToken_flattened.sol\":13590:13672  function decimals() public view virtual returns (uint8) {... */\n    tag_10:\n      tag_58\n      tag_59\n      jump\t// in\n    tag_58:\n      mload(0x40)\n      tag_60\n      swap2\n      swap1\n      tag_61\n      jump\t// in\n    tag_60:\n      mload(0x40)\n      dup1\n      swap2\n      sub\n      swap1\n      return\n        /* \"PramanToken_flattened.sol\":32024:32269  function renounceRole(bytes32 role, address callerConfirmation) public virtual {... */\n    tag_11:\n      tag_62\n      0x04\n      dup1\n      calldatasize\n      sub\n      dup2\n      add\n      swap1\n      tag_63\n      swap2\n      swap1\n      tag_56\n      jump\t// in\n    tag_63:\n      tag_64\n      jump\t// in\n    tag_62:\n      stop\n        /* \"PramanToken_flattened.sol\":34158:34263  function mint(address to, uint256 amount) public onlyRole(MINTER_ROLE) {... */\n    tag_12:\n      tag_65\n      0x04\n      dup1\n      calldatasize\n      sub\n      dup2\n      add\n      swap1\n      tag_66\n      swap2\n      swap1\n      tag_36\n      jump\t// in\n    tag_66:\n      tag_67\n      jump\t// in\n    tag_65:\n      stop\n        /* \"PramanToken_flattened.sol\":13835:13951  function balanceOf(address account) public view virtual returns (uint256) {... */\n    tag_13:\n      tag_68\n      0x04\n      dup1\n      calldatasize\n      sub\n      dup2\n      add\n      swap1\n      tag_69\n      swap2\n      swap1\n      tag_70\n      jump\t// in\n    tag_69:\n      tag_71\n      jump\t// in\n    tag_68:\n      mload(0x40)\n      tag_72\n      swap2\n      swap1\n      tag_42\n      jump\t// in\n    tag_72:\n      mload(0x40)\n      dup1\n      swap2\n      sub\n      swap1\n      return\n        /* \"PramanToken_flattened.sol\":29550:29686  function hasRole(bytes32 role, address account) public view virtual returns (bool) {... */\n    tag_14:\n      tag_73\n      0x04\n      dup1\n      calldatasize\n      sub\n      dup2\n      add\n      swap1\n      tag_74\n      swap2\n      swap1\n      tag_56\n      jump\t// in\n    tag_74:\n      tag_75\n      jump\t// in\n    tag_73:\n      mload(0x40)\n      tag_76\n      swap2\n      swap1\n      tag_29\n      jump\t// in\n    tag_76:\n      mload(0x40)\n      dup1\n      swap2\n      sub\n      swap1\n      return\n        /* \"PramanToken_flattened.sol\":12864:12957  function symbol() public view virtual returns (string memory) {... */\n    tag_15:\n      tag_77\n      tag_78\n      jump\t// in\n    tag_77:\n      mload(0x40)\n      tag_79\n      swap2\n      swap1\n      tag_33\n      jump\t// in\n    tag_79:\n      mload(0x40)\n      dup1\n      swap2\n      sub\n      swap1\n      return\n        /* \"PramanToken_flattened.sol\":28916:28965  bytes32 public constant DEFAULT_ADMIN_ROLE = 0x00 */\n    tag_16:\n      tag_80\n      tag_81\n      jump\t// in\n    tag_80:\n      mload(0x40)\n      tag_82\n      swap2\n      swap1\n      tag_53\n      jump\t// in\n    tag_82:\n      mload(0x40)\n      dup1\n      swap2\n      sub\n      swap1\n      return\n        /* \"PramanToken_flattened.sol\":14146:14324  function transfer(address to, uint256 value) public virtual returns (bool) {... */\n    tag_17:\n      tag_83\n      0x04\n      dup1\n      calldatasize\n      sub\n      dup2\n      add\n      swap1\n      tag_84\n      swap2\n      swap1\n      tag_36\n      jump\t// in\n    tag_84:\n      tag_85\n      jump\t// in\n    tag_83:\n      mload(0x40)\n      tag_86\n      swap2\n      swap1\n      tag_29\n      jump\t// in\n    tag_86:\n      mload(0x40)\n      dup1\n      swap2\n      sub\n      swap1\n      return\n        /* \"PramanToken_flattened.sol\":33850:33912  bytes32 public constant MINTER_ROLE = keccak256(\"MINTER_ROLE\") */\n    tag_18:\n      tag_87\n      tag_88\n      jump\t// in\n    tag_87:\n      mload(0x40)\n      tag_89\n      swap2\n      swap1\n      tag_53\n      jump\t// in\n    tag_89:\n      mload(0x40)\n      dup1\n      swap2\n      sub\n      swap1\n      return\n        /* \"PramanToken_flattened.sol\":31338:31476  function revokeRole(bytes32 role, address account) public virtual onlyRole(getRoleAdmin(role)) {... */\n    tag_19:\n      tag_90\n      0x04\n      dup1\n      calldatasize\n      sub\n      dup2\n      add\n      swap1\n      tag_91\n      swap2\n      swap1\n      tag_56\n      jump\t// in\n    tag_91:\n      tag_92\n      jump\t// in\n    tag_90:\n      stop\n        /* \"PramanToken_flattened.sol\":14357:14497  function allowance(address owner, address spender) public view virtual returns (uint256) {... */\n    tag_20:\n      tag_93\n      0x04\n      dup1\n      calldatasize\n      sub\n      dup2\n      add\n      swap1\n      tag_94\n      swap2\n      swap1\n      tag_95\n      jump\t// in\n    tag_94:\n      tag_96\n      jump\t// in\n    tag_93:\n      mload(0x40)\n      tag_97\n      swap2\n      swap1\n      tag_42\n      jump\t// in\n    tag_97:\n      mload(0x40)\n      dup1\n      swap2\n      sub\n      swap1\n      return\n        /* \"PramanToken_flattened.sol\":29261:29463  function supportsInterface(bytes4 interfaceId) public view virtual override returns (bool) {... */\n    tag_27:\n        /* \"PramanToken_flattened.sol\":29346:29350  bool */\n      0x00\n        /* \"PramanToken_flattened.sol\":29384:29416  type(IAccessControl).interfaceId */\n      0x7965db0b00000000000000000000000000000000000000000000000000000000\n        /* \"PramanToken_flattened.sol\":29369:29416  interfaceId == type(IAccessControl).interfaceId */\n      not(0xffffffffffffffffffffffffffffffffffffffffffffffffffffffff)\n      and\n        /* \"PramanToken_flattened.sol\":29369:29380  interfaceId */\n      dup3\n        /* \"PramanToken_flattened.sol\":29369:29416  interfaceId == type(IAccessControl).interfaceId */\n      not(0xffffffffffffffffffffffffffffffffffffffffffffffffffffffff)\n      and\n      eq\n        /* \"PramanToken_flattened.sol\":29369:29456  interfaceId == type(IAccessControl).interfaceId || super.supportsInterface(interfaceId) */\n      dup1\n      tag_99\n      jumpi\n      pop\n        /* \"PramanToken_flattened.sol\":29420:29456  super.supportsInterface(interfaceId) */\n      tag_100\n        /* \"PramanToken_flattened.sol\":29444:29455  interfaceId */\n      dup3\n        /* \"PramanToken_flattened.sol\":29420:29443  super.supportsInterface */\n      tag_101\n        /* \"PramanToken_flattened.sol\":29420:29456  super.supportsInterface(interfaceId) */\n      jump\t// in\n    tag_100:\n        /* \"PramanToken_flattened.sol\":29369:29456  interfaceId == type(IAccessControl).interfaceId || super.supportsInterface(interfaceId) */\n    tag_99:\n        /* \"PramanToken_flattened.sol\":29362:29456  return interfaceId == type(IAccessControl).interfaceId || super.supportsInterface(interfaceId) */\n      swap1\n      pop\n        /* \"PramanToken_flattened.sol\":29261:29463  function supportsInterface(bytes4 interfaceId) public view virtual override returns (bool) {... */\n      swap2\n      swap1\n      pop\n      jump\t// out\n        /* \"PramanToken_flattened.sol\":12662:12751  function name() public view virtual returns (string memory) {... */\n    tag_31:\n        /* \"PramanToken_flattened.sol\":12707:12720  string memory */\n      0x60\n        /* \"PramanToken_flattened.sol\":12739:12744  _name */\n      0x03\n        /* \"PramanToken_flattened.sol\":12732:12744  return _name */\n      dup1\n      sload\n      tag_103\n      swap1\n      tag_104\n      jump\t// in\n    tag_103:\n      dup1\n      0x1f\n      add\n      0x20\n      dup1\n      swap2\n      div\n      mul\n      0x20\n      add\n      mload(0x40)\n      swap1\n      dup2\n      add\n      0x40\n      mstore\n      dup1\n      swap3\n      swap2\n      swap1\n      dup2\n      dup2\n      mstore\n      0x20\n      add\n      dup3\n      dup1\n      sload\n      tag_105\n      swap1\n      tag_104\n      jump\t// in\n    tag_105:\n      dup1\n      iszero\n      tag_106\n      jumpi\n      dup1\n      0x1f\n      lt\n      tag_107\n      jumpi\n      0x0100\n      dup1\n      dup4\n      sload\n      div\n      mul\n      dup4\n      mstore\n      swap2\n      0x20\n      add\n      swap2\n      jump(tag_106)\n    tag_107:\n      dup3\n      add\n      swap2\n      swap1\n      0x00\n      mstore\n      keccak256(0x00, 0x20)\n      swap1\n    tag_108:\n      dup2\n      sload\n      dup2\n      mstore\n      swap1\n      0x01\n      add\n      swap1\n      0x20\n      add\n      dup1\n      dup4\n      gt\n      tag_108\n      jumpi\n      dup3\n      swap1\n      sub\n      0x1f\n      and\n      dup3\n      add\n      swap2\n    tag_106:\n      pop\n      pop\n      pop\n      pop\n      pop\n      swap1\n      pop\n        /* \"PramanToken_flattened.sol\":12662:12751  function name() public view virtual returns (string memory) {... */\n      swap1\n      jump\t// out\n        /* \"PramanToken_flattened.sol\":14804:14990  function approve(address spender, uint256 value) public virtual returns (bool) {... */\n    tag_37:\n        /* \"PramanToken_flattened.sol\":14877:14881  bool */\n      0x00\n        /* \"PramanToken_flattened.sol\":14893:14906  address owner */\n      0x00\n        /* \"PramanToken_flattened.sol\":14909:14921  _msgSender() */\n      tag_110\n        /* \"PramanToken_flattened.sol\":14909:14919  _msgSender */\n      tag_111\n        /* \"PramanToken_flattened.sol\":14909:14921  _msgSender() */\n      jump\t// in\n    tag_110:\n        /* \"PramanToken_flattened.sol\":14893:14921  address owner = _msgSender() */\n      swap1\n      pop\n        /* \"PramanToken_flattened.sol\":14931:14962  _approve(owner, spender, value) */\n      tag_112\n        /* \"PramanToken_flattened.sol\":14940:14945  owner */\n      dup2\n        /* \"PramanToken_flattened.sol\":14947:14954  spender */\n      dup6\n        /* \"PramanToken_flattened.sol\":14956:14961  value */\n      dup6\n        /* \"PramanToken_flattened.sol\":14931:14939  _approve */\n      tag_113\n        /* \"PramanToken_flattened.sol\":14931:14962  _approve(owner, spender, value) */\n      jump\t// in\n    tag_112:\n        /* \"PramanToken_flattened.sol\":14979:14983  true */\n      0x01\n        /* \"PramanToken_flattened.sol\":14972:14983  return true */\n      swap2\n      pop\n      pop\n        /* \"PramanToken_flattened.sol\":14804:14990  function approve(address spender, uint256 value) public virtual returns (bool) {... */\n      swap3\n      swap2\n      pop\n      pop\n      jump\t// out\n        /* \"PramanToken_flattened.sol\":13705:13802  function totalSupply() public view virtual returns (uint256) {... */\n    tag_40:\n        /* \"PramanToken_flattened.sol\":13757:13764  uint256 */\n      0x00\n        /* \"PramanToken_flattened.sol\":13783:13795  _totalSupply */\n      sload(0x02)\n        /* \"PramanToken_flattened.sol\":13776:13795  return _totalSupply */\n      swap1\n      pop\n        /* \"PramanToken_flattened.sol\":13705:13802  function totalSupply() public view virtual returns (uint256) {... */\n      swap1\n      jump\t// out\n        /* \"PramanToken_flattened.sol\":15582:15826  function transferFrom(address from, address to, uint256 value) public virtual returns (bool) {... */\n    tag_46:\n        /* \"PramanToken_flattened.sol\":15669:15673  bool */\n      0x00\n        /* \"PramanToken_flattened.sol\":15685:15700  address spender */\n      0x00\n        /* \"PramanToken_flattened.sol\":15703:15715  _msgSender() */\n      tag_116\n        /* \"PramanToken_flattened.sol\":15703:15713  _msgSender */\n      tag_111\n        /* \"PramanToken_flattened.sol\":15703:15715  _msgSender() */\n      jump\t// in\n    tag_116:\n        /* \"PramanToken_flattened.sol\":15685:15715  address spender = _msgSender() */\n      swap1\n      pop\n        /* \"PramanToken_flattened.sol\":15725:15762  _spendAllowance(from, spender, value) */\n      tag_117\n        /* \"PramanToken_flattened.sol\":15741:15745  from */\n      dup6\n        /* \"PramanToken_flattened.sol\":15747:15754  spender */\n      dup3\n        /* \"PramanToken_flattened.sol\":15756:15761  value */\n      dup6\n        /* \"PramanToken_flattened.sol\":15725:15740  _spendAllowance */\n      tag_118\n        /* \"PramanToken_flattened.sol\":15725:15762  _spendAllowance(from, spender, value) */\n      jump\t// in\n    tag_117:\n        /* \"PramanToken_flattened.sol\":15772:15798  _transfer(from, to, value) */\n      tag_119\n        /* \"PramanToken_flattened.sol\":15782:15786  from */\n      dup6\n        /* \"PramanToken_flattened.sol\":15788:15790  to */\n      dup6\n        /* \"PramanToken_flattened.sol\":15792:15797  value */\n      dup6\n        /* \"PramanToken_flattened.sol\":15772:15781  _transfer */\n      tag_120\n        /* \"PramanToken_flattened.sol\":15772:15798  _transfer(from, to, value) */\n      jump\t// in\n    tag_119:\n        /* \"PramanToken_flattened.sol\":15815:15819  true */\n      0x01\n        /* \"PramanToken_flattened.sol\":15808:15819  return true */\n      swap2\n      pop\n      pop\n        /* \"PramanToken_flattened.sol\":15582:15826  function transferFrom(address from, address to, uint256 value) public virtual returns (bool) {... */\n      swap4\n      swap3\n      pop\n      pop\n      pop\n      jump\t// out\n        /* \"PramanToken_flattened.sol\":30506:30626  function getRoleAdmin(bytes32 role) public view virtual returns (bytes32) {... */\n    tag_51:\n        /* \"PramanToken_flattened.sol\":30571:30578  bytes32 */\n      0x00\n        /* \"PramanToken_flattened.sol\":30597:30603  _roles */\n      0x05\n        /* \"PramanToken_flattened.sol\":30597:30609  _roles[role] */\n      0x00\n        /* \"PramanToken_flattened.sol\":30604:30608  role */\n      dup4\n        /* \"PramanToken_flattened.sol\":30597:30609  _roles[role] */\n      dup2\n      mstore\n      0x20\n      add\n      swap1\n      dup2\n      mstore\n      0x20\n      add\n      0x00\n      keccak256\n        /* \"PramanToken_flattened.sol\":30597:30619  _roles[role].adminRole */\n      0x01\n      add\n      sload\n        /* \"PramanToken_flattened.sol\":30590:30619  return _roles[role].adminRole */\n      swap1\n      pop\n        /* \"PramanToken_flattened.sol\":30506:30626  function getRoleAdmin(bytes32 role) public view virtual returns (bytes32) {... */\n      swap2\n      swap1\n      pop\n      jump\t// out\n        /* \"PramanToken_flattened.sol\":30922:31058  function grantRole(bytes32 role, address account) public virtual onlyRole(getRoleAdmin(role)) {... */\n    tag_57:\n        /* \"PramanToken_flattened.sol\":30996:31014  getRoleAdmin(role) */\n      tag_122\n        /* \"PramanToken_flattened.sol\":31009:31013  role */\n      dup3\n        /* \"PramanToken_flattened.sol\":30996:31008  getRoleAdmin */\n      tag_51\n        /* \"PramanToken_flattened.sol\":30996:31014  getRoleAdmin(role) */\n      jump\t// in\n    tag_122:\n        /* \"PramanToken_flattened.sol\":29193:29209  _checkRole(role) */\n      tag_124\n        /* \"PramanToken_flattened.sol\":29204:29208  role */\n      dup2\n        /* \"PramanToken_flattened.sol\":29193:29203  _checkRole */\n      tag_125\n        /* \"PramanToken_flattened.sol\":29193:29209  _checkRole(role) */\n      jump\t// in\n    tag_124:\n        /* \"PramanToken_flattened.sol\":31026:31051  _grantRole(role, account) */\n      tag_127\n        /* \"PramanToken_flattened.sol\":31037:31041  role */\n      dup4\n        /* \"PramanToken_flattened.sol\":31043:31050  account */\n      dup4\n        /* \"PramanToken_flattened.sol\":31026:31036  _grantRole */\n      tag_128\n        /* \"PramanToken_flattened.sol\":31026:31051  _grantRole(role, account) */\n      jump\t// in\n    tag_127:\n      pop\n        /* \"PramanToken_flattened.sol\":30922:31058  function grantRole(bytes32 role, address account) public virtual onlyRole(getRoleAdmin(role)) {... */\n      pop\n      pop\n      pop\n      jump\t// out\n        /* \"PramanToken_flattened.sol\":13590:13672  function decimals() public view virtual returns (uint8) {... */\n    tag_59:\n        /* \"PramanToken_flattened.sol\":13639:13644  uint8 */\n      0x00\n        /* \"PramanToken_flattened.sol\":13663:13665  18 */\n      0x12\n        /* \"PramanToken_flattened.sol\":13656:13665  return 18 */\n      swap1\n      pop\n        /* \"PramanToken_flattened.sol\":13590:13672  function decimals() public view virtual returns (uint8) {... */\n      swap1\n      jump\t// out\n        /* \"PramanToken_flattened.sol\":32024:32269  function renounceRole(bytes32 role, address callerConfirmation) public virtual {... */\n    tag_64:\n        /* \"PramanToken_flattened.sol\":32139:32151  _msgSender() */\n      tag_131\n        /* \"PramanToken_flattened.sol\":32139:32149  _msgSender */\n      tag_111\n        /* \"PramanToken_flattened.sol\":32139:32151  _msgSender() */\n      jump\t// in\n    tag_131:\n        /* \"PramanToken_flattened.sol\":32117:32151  callerConfirmation != _msgSender() */\n      0xffffffffffffffffffffffffffffffffffffffff\n      and\n        /* \"PramanToken_flattened.sol\":32117:32135  callerConfirmation */\n      dup2\n        /* \"PramanToken_flattened.sol\":32117:32151  callerConfirmation != _msgSender() */\n      0xffffffffffffffffffffffffffffffffffffffff\n      and\n      eq\n        /* \"PramanToken_flattened.sol\":32113:32215  if (callerConfirmation != _msgSender()) {... */\n      tag_132\n      jumpi\n        /* \"PramanToken_flattened.sol\":32174:32204  AccessControlBadConfirmation() */\n      mload(0x40)\n      0x6697b23200000000000000000000000000000000000000000000000000000000\n      dup2\n      mstore\n      0x04\n      add\n      mload(0x40)\n      dup1\n      swap2\n      sub\n      swap1\n      revert\n        /* \"PramanToken_flattened.sol\":32113:32215  if (callerConfirmation != _msgSender()) {... */\n    tag_132:\n        /* \"PramanToken_flattened.sol\":32225:32262  _revokeRole(role, callerConfirmation) */\n      tag_133\n        /* \"PramanToken_flattened.sol\":32237:32241  role */\n      dup3\n        /* \"PramanToken_flattened.sol\":32243:32261  callerConfirmation */\n      dup3\n        /* \"PramanToken_flattened.sol\":32225:32236  _revokeRole */\n      tag_134\n        /* \"PramanToken_flattened.sol\":32225:32262  _revokeRole(role, callerConfirmation) */\n      jump\t// in\n    tag_133:\n      pop\n        /* \"PramanToken_flattened.sol\":32024:32269  function renounceRole(bytes32 role, address callerConfirmation) public virtual {... */\n      pop\n      pop\n      jump\t// out\n        /* \"PramanToken_flattened.sol\":34158:34263  function mint(address to, uint256 amount) public onlyRole(MINTER_ROLE) {... */\n    tag_67:\n        /* \"PramanToken_flattened.sol\":33888:33912  keccak256(\"MINTER_ROLE\") */\n      0x9f2df0fed2c77648de5860a4cc508cd0818c85b8b8a1ab4ceeef8d981c8956a6\n        /* \"PramanToken_flattened.sol\":29193:29209  _checkRole(role) */\n      tag_136\n        /* \"PramanToken_flattened.sol\":29204:29208  role */\n      dup2\n        /* \"PramanToken_flattened.sol\":29193:29203  _checkRole */\n      tag_125\n        /* \"PramanToken_flattened.sol\":29193:29209  _checkRole(role) */\n      jump\t// in\n    tag_136:\n        /* \"PramanToken_flattened.sol\":34239:34256  _mint(to, amount) */\n      tag_138\n        /* \"PramanToken_flattened.sol\":34245:34247  to */\n      dup4\n        /* \"PramanToken_flattened.sol\":34249:34255  amount */\n      dup4\n        /* \"PramanToken_flattened.sol\":34239:34244  _mint */\n      tag_139\n        /* \"PramanToken_flattened.sol\":34239:34256  _mint(to, amount) */\n      jump\t// in\n    tag_138:\n        /* \"PramanToken_flattened.sol\":34158:34263  function mint(address to, uint256 amount) public onlyRole(MINTER_ROLE) {... */\n      pop\n      pop\n      pop\n      jump\t// out\n        /* \"PramanToken_flattened.sol\":13835:13951  function balanceOf(address account) public view virtual returns (uint256) {... */\n    tag_71:\n        /* \"PramanToken_flattened.sol\":13900:13907  uint256 */\n      0x00\n        /* \"PramanToken_flattened.sol\":13926:13935  _balances */\n      0x00\n        /* \"PramanToken_flattened.sol\":13926:13944  _balances[account] */\n      0x00\n        /* \"PramanToken_flattened.sol\":13936:13943  account */\n      dup4\n        /* \"PramanToken_flattened.sol\":13926:13944  _balances[account] */\n      0xffffffffffffffffffffffffffffffffffffffff\n      and\n      0xffffffffffffffffffffffffffffffffffffffff\n      and\n      dup2\n      mstore\n      0x20\n      add\n      swap1\n      dup2\n      mstore\n      0x20\n      add\n      0x00\n      keccak256\n      sload\n        /* \"PramanToken_flattened.sol\":13919:13944  return _balances[account] */\n      swap1\n      pop\n        /* \"PramanToken_flattened.sol\":13835:13951  function balanceOf(address account) public view virtual returns (uint256) {... */\n      swap2\n      swap1\n      pop\n      jump\t// out\n        /* \"PramanToken_flattened.sol\":29550:29686  function hasRole(bytes32 role, address account) public view virtual returns (bool) {... */\n    tag_75:\n        /* \"PramanToken_flattened.sol\":29627:29631  bool */\n      0x00\n        /* \"PramanToken_flattened.sol\":29650:29656  _roles */\n      0x05\n        /* \"PramanToken_flattened.sol\":29650:29662  _roles[role] */\n      0x00\n        /* \"PramanToken_flattened.sol\":29657:29661  role */\n      dup5\n        /* \"PramanToken_flattened.sol\":29650:29662  _roles[role] */\n      dup2\n      mstore\n      0x20\n      add\n      swap1\n      dup2\n      mstore\n      0x20\n      add\n      0x00\n      keccak256\n        /* \"PramanToken_flattened.sol\":29650:29670  _roles[role].hasRole */\n      0x00\n      add\n        /* \"PramanToken_flattened.sol\":29650:29679  _roles[role].hasRole[account] */\n      0x00\n        /* \"PramanToken_flattened.sol\":29671:29678  account */\n      dup4\n        /* \"PramanToken_flattened.sol\":29650:29679  _roles[role].hasRole[account] */\n      0xffffffffffffffffffffffffffffffffffffffff\n      and\n      0xffffffffffffffffffffffffffffffffffffffff\n      and\n      dup2\n      mstore\n      0x20\n      add\n      swap1\n      dup2\n      mstore\n      0x20\n      add\n      0x00\n      keccak256\n      0x00\n      swap1\n      sload\n      swap1\n      0x0100\n      exp\n      swap1\n      div\n      0xff\n      and\n        /* \"PramanToken_flattened.sol\":29643:29679  return _roles[role].hasRole[account] */\n      swap1\n      pop\n        /* \"PramanToken_flattened.sol\":29550:29686  function hasRole(bytes32 role, address account) public view virtual returns (bool) {... */\n      swap3\n      swap2\n      pop\n      pop\n      jump\t// out\n        /* \"PramanToken_flattened.sol\":12864:12957  function symbol() public view virtual returns (string memory) {... */\n    tag_78:\n        /* \"PramanToken_flattened.sol\":12911:12924  string memory */\n      0x60\n        /* \"PramanToken_flattened.sol\":12943:12950  _symbol */\n      0x04\n        /* \"PramanToken_flattened.sol\":12936:12950  return _symbol */\n      dup1\n      sload\n      tag_143\n      swap1\n      tag_104\n      jump\t// in\n    tag_143:\n      dup1\n      0x1f\n      add\n      0x20\n      dup1\n      swap2\n      div\n      mul\n      0x20\n      add\n      mload(0x40)\n      swap1\n      dup2\n      add\n      0x40\n      mstore\n      dup1\n      swap3\n      swap2\n      swap1\n      dup2\n      dup2\n      mstore\n      0x20\n      add\n      dup3\n      dup1\n      sload\n      tag_144\n      swap1\n      tag_104\n      jump\t// in\n    tag_144:\n      dup1\n      iszero\n      tag_145\n      jumpi\n      dup1\n      0x1f\n      lt\n      tag_146\n      jumpi\n      0x0100\n      dup1\n      dup4\n      sload\n      div\n      mul\n      dup4\n      mstore\n      swap2\n      0x20\n      add\n      swap2\n      jump(tag_145)\n    tag_146:\n      dup3\n      add\n      swap2\n      swap1\n      0x00\n      mstore\n      keccak256(0x00, 0x20)\n      swap1\n    tag_147:\n      dup2\n      sload\n      dup2\n      mstore\n      swap1\n      0x01\n      add\n      swap1\n      0x20\n      add\n      dup1\n      dup4\n      gt\n      tag_147\n      jumpi\n      dup3\n      swap1\n      sub\n      0x1f\n      and\n      dup3\n      add\n      swap2\n    tag_145:\n      pop\n      pop\n      pop\n      pop\n      pop\n      swap1\n      pop\n        /* \"PramanToken_flattened.sol\":12864:12957  function symbol() public view virtual returns (string memory) {... */\n      swap1\n      jump\t// out\n        /* \"PramanToken_flattened.sol\":28916:28965  bytes32 public constant DEFAULT_ADMIN_ROLE = 0x00 */\n    tag_81:\n        /* \"PramanToken_flattened.sol\":28961:28965  0x00 */\n      0x00\n        /* \"PramanToken_flattened.sol\":28916:28965  bytes32 public constant DEFAULT_ADMIN_ROLE = 0x00 */\n      0x00\n      shl\n      dup2\n      jump\t// out\n        /* \"PramanToken_flattened.sol\":14146:14324  function transfer(address to, uint256 value) public virtual returns (bool) {... */\n    tag_85:\n        /* \"PramanToken_flattened.sol\":14215:14219  bool */\n      0x00\n        /* \"PramanToken_flattened.sol\":14231:14244  address owner */\n      0x00\n        /* \"PramanToken_flattened.sol\":14247:14259  _msgSender() */\n      tag_149\n        /* \"PramanToken_flattened.sol\":14247:14257  _msgSender */\n      tag_111\n        /* \"PramanToken_flattened.sol\":14247:14259  _msgSender() */\n      jump\t// in\n    tag_149:\n        /* \"PramanToken_flattened.sol\":14231:14259  address owner = _msgSender() */\n      swap1\n      pop\n        /* \"PramanToken_flattened.sol\":14269:14296  _transfer(owner, to, value) */\n      tag_150\n        /* \"PramanToken_flattened.sol\":14279:14284  owner */\n      dup2\n        /* \"PramanToken_flattened.sol\":14286:14288  to */\n      dup6\n        /* \"PramanToken_flattened.sol\":14290:14295  value */\n      dup6\n        /* \"PramanToken_flattened.sol\":14269:14278  _transfer */\n      tag_120\n        /* \"PramanToken_flattened.sol\":14269:14296  _transfer(owner, to, value) */\n      jump\t// in\n    tag_150:\n        /* \"PramanToken_flattened.sol\":14313:14317  true */\n      0x01\n        /* \"PramanToken_flattened.sol\":14306:14317  return true */\n      swap2\n      pop\n      pop\n        /* \"PramanToken_flattened.sol\":14146:14324  function transfer(address to, uint256 value) public virtual returns (bool) {... */\n      swap3\n      swap2\n      pop\n      pop\n      jump\t// out\n        /* \"PramanToken_flattened.sol\":33850:33912  bytes32 public constant MINTER_ROLE = keccak256(\"MINTER_ROLE\") */\n    tag_88:\n        /* \"PramanToken_flattened.sol\":33888:33912  keccak256(\"MINTER_ROLE\") */\n      0x9f2df0fed2c77648de5860a4cc508cd0818c85b8b8a1ab4ceeef8d981c8956a6\n        /* \"PramanToken_flattened.sol\":33850:33912  bytes32 public constant MINTER_ROLE = keccak256(\"MINTER_ROLE\") */\n      dup2\n      jump\t// out\n        /* \"PramanToken_flattened.sol\":31338:31476  function revokeRole(bytes32 role, address account) public virtual onlyRole(getRoleAdmin(role)) {... */\n    tag_92:\n        /* \"PramanToken_flattened.sol\":31413:31431  getRoleAdmin(role) */\n      tag_151\n        /* \"PramanToken_flattened.sol\":31426:31430  role */\n      dup3\n        /* \"PramanToken_flattened.sol\":31413:31425  getRoleAdmin */\n      tag_51\n        /* \"PramanToken_flattened.sol\":31413:31431  getRoleAdmin(role) */\n      jump\t// in\n    tag_151:\n        /* \"PramanToken_flattened.sol\":29193:29209  _checkRole(role) */\n      tag_153\n        /* \"PramanToken_flattened.sol\":29204:29208  role */\n      dup2\n        /* \"PramanToken_flattened.sol\":29193:29203  _checkRole */\n      tag_125\n        /* \"PramanToken_flattened.sol\":29193:29209  _checkRole(role) */\n      jump\t// in\n    tag_153:\n        /* \"PramanToken_flattened.sol\":31443:31469  _revokeRole(role, account) */\n      tag_155\n        /* \"PramanToken_flattened.sol\":31455:31459  role */\n      dup4\n        /* \"PramanToken_flattened.sol\":31461:31468  account */\n      dup4\n        /* \"PramanToken_flattened.sol\":31443:31454  _revokeRole */\n      tag_134\n        /* \"PramanToken_flattened.sol\":31443:31469  _revokeRole(role, account) */\n      jump\t// in\n    tag_155:\n      pop\n        /* \"PramanToken_flattened.sol\":31338:31476  function revokeRole(bytes32 role, address account) public virtual onlyRole(getRoleAdmin(role)) {... */\n      pop\n      pop\n      pop\n      jump\t// out\n        /* \"PramanToken_flattened.sol\":14357:14497  function allowance(address owner, address spender) public view virtual returns (uint256) {... */\n    tag_96:\n        /* \"PramanToken_flattened.sol\":14437:14444  uint256 */\n      0x00\n        /* \"PramanToken_flattened.sol\":14463:14474  _allowances */\n      0x01\n        /* \"PramanToken_flattened.sol\":14463:14481  _allowances[owner] */\n      0x00\n        /* \"PramanToken_flattened.sol\":14475:14480  owner */\n      dup5\n        /* \"PramanToken_flattened.sol\":14463:14481  _allowances[owner] */\n      0xffffffffffffffffffffffffffffffffffffffff\n      and\n      0xffffffffffffffffffffffffffffffffffffffff\n      and\n      dup2\n      mstore\n      0x20\n      add\n      swap1\n      dup2\n      mstore\n      0x20\n      add\n      0x00\n      keccak256\n        /* \"PramanToken_flattened.sol\":14463:14490  _allowances[owner][spender] */\n      0x00\n        /* \"PramanToken_flattened.sol\":14482:14489  spender */\n      dup4\n        /* \"PramanToken_flattened.sol\":14463:14490  _allowances[owner][spender] */\n      0xffffffffffffffffffffffffffffffffffffffff\n      and\n      0xffffffffffffffffffffffffffffffffffffffff\n      and\n      dup2\n      mstore\n      0x20\n      add\n      swap1\n      dup2\n      mstore\n      0x20\n      add\n      0x00\n      keccak256\n      sload\n        /* \"PramanToken_flattened.sol\":14456:14490  return _allowances[owner][spender] */\n      swap1\n      pop\n        /* \"PramanToken_flattened.sol\":14357:14497  function allowance(address owner, address spender) public view virtual returns (uint256) {... */\n      swap3\n      swap2\n      pop\n      pop\n      jump\t// out\n        /* \"PramanToken_flattened.sol\":26706:26852  function supportsInterface(bytes4 interfaceId) public view virtual returns (bool) {... */\n    tag_101:\n        /* \"PramanToken_flattened.sol\":26782:26786  bool */\n      0x00\n        /* \"PramanToken_flattened.sol\":26820:26845  type(IERC165).interfaceId */\n      0x01ffc9a700000000000000000000000000000000000000000000000000000000\n        /* \"PramanToken_flattened.sol\":26805:26845  interfaceId == type(IERC165).interfaceId */\n      not(0xffffffffffffffffffffffffffffffffffffffffffffffffffffffff)\n      and\n        /* \"PramanToken_flattened.sol\":26805:26816  interfaceId */\n      dup3\n        /* \"PramanToken_flattened.sol\":26805:26845  interfaceId == type(IERC165).interfaceId */\n      not(0xffffffffffffffffffffffffffffffffffffffffffffffffffffffff)\n      and\n      eq\n        /* \"PramanToken_flattened.sol\":26798:26845  return interfaceId == type(IERC165).interfaceId */\n      swap1\n      pop\n        /* \"PramanToken_flattened.sol\":26706:26852  function supportsInterface(bytes4 interfaceId) public view virtual returns (bool) {... */\n      swap2\n      swap1\n      pop\n      jump\t// out\n        /* \"PramanToken_flattened.sol\":4210:4306  function _msgSender() internal view virtual returns (address) {... */\n    tag_111:\n        /* \"PramanToken_flattened.sol\":4263:4270  address */\n      0x00\n        /* \"PramanToken_flattened.sol\":4289:4299  msg.sender */\n      caller\n        /* \"PramanToken_flattened.sol\":4282:4299  return msg.sender */\n      swap1\n      pop\n        /* \"PramanToken_flattened.sol\":4210:4306  function _msgSender() internal view virtual returns (address) {... */\n      swap1\n      jump\t// out\n        /* \"PramanToken_flattened.sol\":19532:19660  function _approve(address owner, address spender, uint256 value) internal {... */\n    tag_113:\n        /* \"PramanToken_flattened.sol\":19616:19653  _approve(owner, spender, value, true) */\n      tag_160\n        /* \"PramanToken_flattened.sol\":19625:19630  owner */\n      dup4\n        /* \"PramanToken_flattened.sol\":19632:19639  spender */\n      dup4\n        /* \"PramanToken_flattened.sol\":19641:19646  value */\n      dup4\n        /* \"PramanToken_flattened.sol\":19648:19652  true */\n      0x01\n        /* \"PramanToken_flattened.sol\":19616:19624  _approve */\n      tag_161\n        /* \"PramanToken_flattened.sol\":19616:19653  _approve(owner, spender, value, true) */\n      jump\t// in\n    tag_160:\n        /* \"PramanToken_flattened.sol\":19532:19660  function _approve(address owner, address spender, uint256 value) internal {... */\n      pop\n      pop\n      pop\n      jump\t// out\n        /* \"PramanToken_flattened.sol\":21221:21697  function _spendAllowance(address owner, address spender, uint256 value) internal virtual {... */\n    tag_118:\n        /* \"PramanToken_flattened.sol\":21320:21344  uint256 currentAllowance */\n      0x00\n        /* \"PramanToken_flattened.sol\":21347:21372  allowance(owner, spender) */\n      tag_163\n        /* \"PramanToken_flattened.sol\":21357:21362  owner */\n      dup5\n        /* \"PramanToken_flattened.sol\":21364:21371  spender */\n      dup5\n        /* \"PramanToken_flattened.sol\":21347:21356  allowance */\n      tag_96\n        /* \"PramanToken_flattened.sol\":21347:21372  allowance(owner, spender) */\n      jump\t// in\n    tag_163:\n        /* \"PramanToken_flattened.sol\":21320:21372  uint256 currentAllowance = allowance(owner, spender) */\n      swap1\n      pop\n        /* \"PramanToken_flattened.sol\":21405:21422  type(uint256).max */\n      0xffffffffffffffffffffffffffffffffffffffffffffffffffffffffffffffff\n        /* \"PramanToken_flattened.sol\":21386:21402  currentAllowance */\n      dup2\n        /* \"PramanToken_flattened.sol\":21386:21422  currentAllowance < type(uint256).max */\n      lt\n        /* \"PramanToken_flattened.sol\":21382:21691  if (currentAllowance < type(uint256).max) {... */\n      iszero\n      tag_164\n      jumpi\n        /* \"PramanToken_flattened.sol\":21461:21466  value */\n      dup2\n        /* \"PramanToken_flattened.sol\":21442:21458  currentAllowance */\n      dup2\n        /* \"PramanToken_flattened.sol\":21442:21466  currentAllowance < value */\n      lt\n        /* \"PramanToken_flattened.sol\":21438:21568  if (currentAllowance < value) {... */\n      iszero\n      tag_165\n      jumpi\n        /* \"PramanToken_flattened.sol\":21520:21527  spender */\n      dup3\n        /* \"PramanToken_flattened.sol\":21529:21545  currentAllowance */\n      dup2\n        /* \"PramanToken_flattened.sol\":21547:21552  value */\n      dup4\n        /* \"PramanToken_flattened.sol\":21493:21553  ERC20InsufficientAllowance(spender, currentAllowance, value) */\n      mload(0x40)\n      0xfb8f41b200000000000000000000000000000000000000000000000000000000\n      dup2\n      mstore\n      0x04\n      add\n      tag_166\n      swap4\n      swap3\n      swap2\n      swap1\n      tag_167\n      jump\t// in\n    tag_166:\n      mload(0x40)\n      dup1\n      swap2\n      sub\n      swap1\n      revert\n        /* \"PramanToken_flattened.sol\":21438:21568  if (currentAllowance < value) {... */\n    tag_165:\n        /* \"PramanToken_flattened.sol\":21609:21666  _approve(owner, spender, currentAllowance - value, false) */\n      tag_168\n        /* \"PramanToken_flattened.sol\":21618:21623  owner */\n      dup5\n        /* \"PramanToken_flattened.sol\":21625:21632  spender */\n      dup5\n        /* \"PramanToken_flattened.sol\":21653:21658  value */\n      dup5\n        /* \"PramanToken_flattened.sol\":21634:21650  currentAllowance */\n      dup5\n        /* \"PramanToken_flattened.sol\":21634:21658  currentAllowance - value */\n      sub\n        /* \"PramanToken_flattened.sol\":21660:21665  false */\n      0x00\n        /* \"PramanToken_flattened.sol\":21609:21617  _approve */\n      tag_161\n        /* \"PramanToken_flattened.sol\":21609:21666  _approve(owner, spender, currentAllowance - value, false) */\n      jump\t// in\n    tag_168:\n        /* \"PramanToken_flattened.sol\":21382:21691  if (currentAllowance < type(uint256).max) {... */\n    tag_164:\n        /* \"PramanToken_flattened.sol\":21310:21697  {... */\n      pop\n        /* \"PramanToken_flattened.sol\":21221:21697  function _spendAllowance(address owner, address spender, uint256 value) internal virtual {... */\n      pop\n      pop\n      pop\n      jump\t// out\n        /* \"PramanToken_flattened.sol\":16199:16499  function _transfer(address from, address to, uint256 value) internal {... */\n    tag_120:\n        /* \"PramanToken_flattened.sol\":16298:16299  0 */\n      0x00\n        /* \"PramanToken_flattened.sol\":16282:16300  from == address(0) */\n      0xffffffffffffffffffffffffffffffffffffffff\n      and\n        /* \"PramanToken_flattened.sol\":16282:16286  from */\n      dup4\n        /* \"PramanToken_flattened.sol\":16282:16300  from == address(0) */\n      0xffffffffffffffffffffffffffffffffffffffff\n      and\n      sub\n        /* \"PramanToken_flattened.sol\":16278:16364  if (from == address(0)) {... */\n      tag_170\n      jumpi\n        /* \"PramanToken_flattened.sol\":16350:16351  0 */\n      0x00\n        /* \"PramanToken_flattened.sol\":16323:16353  ERC20InvalidSender(address(0)) */\n      mload(0x40)\n      0x96c6fd1e00000000000000000000000000000000000000000000000000000000\n      dup2\n      mstore\n      0x04\n      add\n      tag_171\n      swap2\n      swap1\n      tag_172\n      jump\t// in\n    tag_171:\n      mload(0x40)\n      dup1\n      swap2\n      sub\n      swap1\n      revert\n        /* \"PramanToken_flattened.sol\":16278:16364  if (from == address(0)) {... */\n    tag_170:\n        /* \"PramanToken_flattened.sol\":16391:16392  0 */\n      0x00\n        /* \"PramanToken_flattened.sol\":16377:16393  to == address(0) */\n      0xffffffffffffffffffffffffffffffffffffffff\n      and\n        /* \"PramanToken_flattened.sol\":16377:16379  to */\n      dup3\n        /* \"PramanToken_flattened.sol\":16377:16393  to == address(0) */\n      0xffffffffffffffffffffffffffffffffffffffff\n      and\n      sub\n        /* \"PramanToken_flattened.sol\":16373:16459  if (to == address(0)) {... */\n      tag_173\n      jumpi\n        /* \"PramanToken_flattened.sol\":16445:16446  0 */\n      0x00\n        /* \"PramanToken_flattened.sol\":16416:16448  ERC20InvalidReceiver(address(0)) */\n      mload(0x40)\n      0xec442f0500000000000000000000000000000000000000000000000000000000\n      dup2\n      mstore\n      0x04\n      add\n      tag_174\n      swap2\n      swap1\n      tag_172\n      jump\t// in\n    tag_174:\n      mload(0x40)\n      dup1\n      swap2\n      sub\n      swap1\n      revert\n        /* \"PramanToken_flattened.sol\":16373:16459  if (to == address(0)) {... */\n    tag_173:\n        /* \"PramanToken_flattened.sol\":16468:16492  _update(from, to, value) */\n      tag_175\n        /* \"PramanToken_flattened.sol\":16476:16480  from */\n      dup4\n        /* \"PramanToken_flattened.sol\":16482:16484  to */\n      dup4\n        /* \"PramanToken_flattened.sol\":16486:16491  value */\n      dup4\n        /* \"PramanToken_flattened.sol\":16468:16475  _update */\n      tag_176\n        /* \"PramanToken_flattened.sol\":16468:16492  _update(from, to, value) */\n      jump\t// in\n    tag_175:\n        /* \"PramanToken_flattened.sol\":16199:16499  function _transfer(address from, address to, uint256 value) internal {... */\n      pop\n      pop\n      pop\n      jump\t// out\n        /* \"PramanToken_flattened.sol\":29895:29998  function _checkRole(bytes32 role) internal view virtual {... */\n    tag_125:\n        /* \"PramanToken_flattened.sol\":29961:29991  _checkRole(role, _msgSender()) */\n      tag_178\n        /* \"PramanToken_flattened.sol\":29972:29976  role */\n      dup2\n        /* \"PramanToken_flattened.sol\":29978:29990  _msgSender() */\n      tag_179\n        /* \"PramanToken_flattened.sol\":29978:29988  _msgSender */\n      tag_111\n        /* \"PramanToken_flattened.sol\":29978:29990  _msgSender() */\n      jump\t// in\n    tag_179:\n        /* \"PramanToken_flattened.sol\":29961:29971  _checkRole */\n      tag_180\n        /* \"PramanToken_flattened.sol\":29961:29991  _checkRole(role, _msgSender()) */\n      jump\t// in\n    tag_178:\n        /* \"PramanToken_flattened.sol\":29895:29998  function _checkRole(bytes32 role) internal view virtual {... */\n      pop\n      jump\t// out\n        /* \"PramanToken_flattened.sol\":32875:33191  function _grantRole(bytes32 role, address account) internal virtual returns (bool) {... */\n    tag_128:\n        /* \"PramanToken_flattened.sol\":32952:32956  bool */\n      0x00\n        /* \"PramanToken_flattened.sol\":32973:32995  hasRole(role, account) */\n      tag_182\n        /* \"PramanToken_flattened.sol\":32981:32985  role */\n      dup4\n        /* \"PramanToken_flattened.sol\":32987:32994  account */\n      dup4\n        /* \"PramanToken_flattened.sol\":32973:32980  hasRole */\n      tag_75\n        /* \"PramanToken_flattened.sol\":32973:32995  hasRole(role, account) */\n      jump\t// in\n    tag_182:\n        /* \"PramanToken_flattened.sol\":32968:33185  if (!hasRole(role, account)) {... */\n      tag_183\n      jumpi\n        /* \"PramanToken_flattened.sol\":33043:33047  true */\n      0x01\n        /* \"PramanToken_flattened.sol\":33011:33017  _roles */\n      0x05\n        /* \"PramanToken_flattened.sol\":33011:33023  _roles[role] */\n      0x00\n        /* \"PramanToken_flattened.sol\":33018:33022  role */\n      dup6\n        /* \"PramanToken_flattened.sol\":33011:33023  _roles[role] */\n      dup2\n      mstore\n      0x20\n      add\n      swap1\n      dup2\n      mstore\n      0x20\n      add\n      0x00\n      keccak256\n        /* \"PramanToken_flattened.sol\":33011:33031  _roles[role].hasRole */\n      0x00\n      add\n        /* \"PramanToken_flattened.sol\":33011:33040  _roles[role].hasRole[account] */\n      0x00\n        /* \"PramanToken_flattened.sol\":33032:33039  account */\n      dup5\n        /* \"PramanToken_flattened.sol\":33011:33040  _roles[role].hasRole[account] */\n      0xffffffffffffffffffffffffffffffffffffffff\n      and\n      0xffffffffffffffffffffffffffffffffffffffff\n      and\n      dup2\n      mstore\n      0x20\n      add\n      swap1\n      dup2\n      mstore\n      0x20\n      add\n      0x00\n      keccak256\n      0x00\n        /* \"PramanToken_flattened.sol\":33011:33047  _roles[role].hasRole[account] = true */\n      0x0100\n      exp\n      dup2\n      sload\n      dup2\n      0xff\n      mul\n      not\n      and\n      swap1\n      dup4\n      iszero\n      iszero\n      mul\n      or\n      swap1\n      sstore\n      pop\n        /* \"PramanToken_flattened.sol\":33093:33105  _msgSender() */\n      tag_184\n        /* \"PramanToken_flattened.sol\":33093:33103  _msgSender */\n      tag_111\n        /* \"PramanToken_flattened.sol\":33093:33105  _msgSender() */\n      jump\t// in\n    tag_184:\n        /* \"PramanToken_flattened.sol\":33066:33106  RoleGranted(role, account, _msgSender()) */\n      0xffffffffffffffffffffffffffffffffffffffff\n      and\n        /* \"PramanToken_flattened.sol\":33084:33091  account */\n      dup3\n        /* \"PramanToken_flattened.sol\":33066:33106  RoleGranted(role, account, _msgSender()) */\n      0xffffffffffffffffffffffffffffffffffffffff\n      and\n        /* \"PramanToken_flattened.sol\":33078:33082  role */\n      dup5\n        /* \"PramanToken_flattened.sol\":33066:33106  RoleGranted(role, account, _msgSender()) */\n      0x2f8788117e7eff1d82e926ec794901d17c78024a50270940304540a733656f0d\n      mload(0x40)\n      mload(0x40)\n      dup1\n      swap2\n      sub\n      swap1\n      log4\n        /* \"PramanToken_flattened.sol\":33127:33131  true */\n      0x01\n        /* \"PramanToken_flattened.sol\":33120:33131  return true */\n      swap1\n      pop\n      jump(tag_181)\n        /* \"PramanToken_flattened.sol\":32968:33185  if (!hasRole(role, account)) {... */\n    tag_183:\n        /* \"PramanToken_flattened.sol\":33169:33174  false */\n      0x00\n        /* \"PramanToken_flattened.sol\":33162:33174  return false */\n      swap1\n      pop\n        /* \"PramanToken_flattened.sol\":32875:33191  function _grantRole(bytes32 role, address account) internal virtual returns (bool) {... */\n    tag_181:\n      swap3\n      swap2\n      pop\n      pop\n      jump\t// out\n        /* \"PramanToken_flattened.sol\":33428:33745  function _revokeRole(bytes32 role, address account) internal virtual returns (bool) {... */\n    tag_134:\n        /* \"PramanToken_flattened.sol\":33506:33510  bool */\n      0x00\n        /* \"PramanToken_flattened.sol\":33526:33548  hasRole(role, account) */\n      tag_187\n        /* \"PramanToken_flattened.sol\":33534:33538  role */\n      dup4\n        /* \"PramanToken_flattened.sol\":33540:33547  account */\n      dup4\n        /* \"PramanToken_flattened.sol\":33526:33533  hasRole */\n      tag_75\n        /* \"PramanToken_flattened.sol\":33526:33548  hasRole(role, account) */\n      jump\t// in\n    tag_187:\n        /* \"PramanToken_flattened.sol\":33522:33739  if (hasRole(role, account)) {... */\n      iszero\n      tag_188\n      jumpi\n        /* \"PramanToken_flattened.sol\":33596:33601  false */\n      0x00\n        /* \"PramanToken_flattened.sol\":33564:33570  _roles */\n      0x05\n        /* \"PramanToken_flattened.sol\":33564:33576  _roles[role] */\n      0x00\n        /* \"PramanToken_flattened.sol\":33571:33575  role */\n      dup6\n        /* \"PramanToken_flattened.sol\":33564:33576  _roles[role] */\n      dup2\n      mstore\n      0x20\n      add\n      swap1\n      dup2\n      mstore\n      0x20\n      add\n      0x00\n      keccak256\n        /* \"PramanToken_flattened.sol\":33564:33584  _roles[role].hasRole */\n      0x00\n      add\n        /* \"PramanToken_flattened.sol\":33564:33593  _roles[role].hasRole[account] */\n      0x00\n        /* \"PramanToken_flattened.sol\":33585:33592  account */\n      dup5\n        /* \"PramanToken_flattened.sol\":33564:33593  _roles[role].hasRole[account] */\n      0xffffffffffffffffffffffffffffffffffffffff\n      and\n      0xffffffffffffffffffffffffffffffffffffffff\n      and\n      dup2\n      mstore\n      0x20\n      add\n      swap1\n      dup2\n      mstore\n      0x20\n      add\n      0x00\n      keccak256\n      0x00\n        /* \"PramanToken_flattened.sol\":33564:33601  _roles[role].hasRole[account] = false */\n      0x0100\n      exp\n      dup2\n      sload\n      dup2\n      0xff\n      mul\n      not\n      and\n      swap1\n      dup4\n      iszero\n      iszero\n      mul\n      or\n      swap1\n      sstore\n      pop\n        /* \"PramanToken_flattened.sol\":33647:33659  _msgSender() */\n      tag_189\n        /* \"PramanToken_flattened.sol\":33647:33657  _msgSender */\n      tag_111\n        /* \"PramanToken_flattened.sol\":33647:33659  _msgSender() */\n      jump\t// in\n    tag_189:\n        /* \"PramanToken_flattened.sol\":33620:33660  RoleRevoked(role, account, _msgSender()) */\n      0xffffffffffffffffffffffffffffffffffffffff\n      and\n        /* \"PramanToken_flattened.sol\":33638:33645  account */\n      dup3\n        /* \"PramanToken_flattened.sol\":33620:33660  RoleRevoked(role, account, _msgSender()) */\n      0xffffffffffffffffffffffffffffffffffffffff\n      and\n        /* \"PramanToken_flattened.sol\":33632:33636  role */\n      dup5\n        /* \"PramanToken_flattened.sol\":33620:33660  RoleRevoked(role, account, _msgSender()) */\n      0xf6391f5c32d9c69d2a47ea670b442974b53935d1edc7fd64eb21e047a839171b\n      mload(0x40)\n      mload(0x40)\n      dup1\n      swap2\n      sub\n      swap1\n      log4\n        /* \"PramanToken_flattened.sol\":33681:33685  true */\n      0x01\n        /* \"PramanToken_flattened.sol\":33674:33685  return true */\n      swap1\n      pop\n      jump(tag_186)\n        /* \"PramanToken_flattened.sol\":33522:33739  if (hasRole(role, account)) {... */\n    tag_188:\n        /* \"PramanToken_flattened.sol\":33723:33728  false */\n      0x00\n        /* \"PramanToken_flattened.sol\":33716:33728  return false */\n      swap1\n      pop\n        /* \"PramanToken_flattened.sol\":33428:33745  function _revokeRole(bytes32 role, address account) internal virtual returns (bool) {... */\n    tag_186:\n      swap3\n      swap2\n      pop\n      pop\n      jump\t// out\n        /* \"PramanToken_flattened.sol\":18264:18472  function _mint(address account, uint256 value) internal {... */\n    tag_139:\n        /* \"PramanToken_flattened.sol\":18353:18354  0 */\n      0x00\n        /* \"PramanToken_flattened.sol\":18334:18355  account == address(0) */\n      0xffffffffffffffffffffffffffffffffffffffff\n      and\n        /* \"PramanToken_flattened.sol\":18334:18341  account */\n      dup3\n        /* \"PramanToken_flattened.sol\":18334:18355  account == address(0) */\n      0xffffffffffffffffffffffffffffffffffffffff\n      and\n      sub\n        /* \"PramanToken_flattened.sol\":18330:18421  if (account == address(0)) {... */\n      tag_192\n      jumpi\n        /* \"PramanToken_flattened.sol\":18407:18408  0 */\n      0x00\n        /* \"PramanToken_flattened.sol\":18378:18410  ERC20InvalidReceiver(address(0)) */\n      mload(0x40)\n      0xec442f0500000000000000000000000000000000000000000000000000000000\n      dup2\n      mstore\n      0x04\n      add\n      tag_193\n      swap2\n      swap1\n      tag_172\n      jump\t// in\n    tag_193:\n      mload(0x40)\n      dup1\n      swap2\n      sub\n      swap1\n      revert\n        /* \"PramanToken_flattened.sol\":18330:18421  if (account == address(0)) {... */\n    tag_192:\n        /* \"PramanToken_flattened.sol\":18430:18465  _update(address(0), account, value) */\n      tag_194\n        /* \"PramanToken_flattened.sol\":18446:18447  0 */\n      0x00\n        /* \"PramanToken_flattened.sol\":18450:18457  account */\n      dup4\n        /* \"PramanToken_flattened.sol\":18459:18464  value */\n      dup4\n        /* \"PramanToken_flattened.sol\":18430:18437  _update */\n      tag_176\n        /* \"PramanToken_flattened.sol\":18430:18465  _update(address(0), account, value) */\n      jump\t// in\n    tag_194:\n        /* \"PramanToken_flattened.sol\":18264:18472  function _mint(address account, uint256 value) internal {... */\n      pop\n      pop\n      jump\t// out\n        /* \"PramanToken_flattened.sol\":20507:20939  function _approve(address owner, address spender, uint256 value, bool emitEvent) internal virtual {... */\n    tag_161:\n        /* \"PramanToken_flattened.sol\":20636:20637  0 */\n      0x00\n        /* \"PramanToken_flattened.sol\":20619:20638  owner == address(0) */\n      0xffffffffffffffffffffffffffffffffffffffff\n      and\n        /* \"PramanToken_flattened.sol\":20619:20624  owner */\n      dup5\n        /* \"PramanToken_flattened.sol\":20619:20638  owner == address(0) */\n      0xffffffffffffffffffffffffffffffffffffffff\n      and\n      sub\n        /* \"PramanToken_flattened.sol\":20615:20704  if (owner == address(0)) {... */\n      tag_196\n      jumpi\n        /* \"PramanToken_flattened.sol\":20690:20691  0 */\n      0x00\n        /* \"PramanToken_flattened.sol\":20661:20693  ERC20InvalidApprover(address(0)) */\n      mload(0x40)\n      0xe602df0500000000000000000000000000000000000000000000000000000000\n      dup2\n      mstore\n      0x04\n      add\n      tag_197\n      swap2\n      swap1\n      tag_172\n      jump\t// in\n    tag_197:\n      mload(0x40)\n      dup1\n      swap2\n      sub\n      swap1\n      revert\n        /* \"PramanToken_flattened.sol\":20615:20704  if (owner == address(0)) {... */\n    tag_196:\n        /* \"PramanToken_flattened.sol\":20736:20737  0 */\n      0x00\n        /* \"PramanToken_flattened.sol\":20717:20738  spender == address(0) */\n      0xffffffffffffffffffffffffffffffffffffffff\n      and\n        /* \"PramanToken_flattened.sol\":20717:20724  spender */\n      dup4\n        /* \"PramanToken_flattened.sol\":20717:20738  spender == address(0) */\n      0xffffffffffffffffffffffffffffffffffffffff\n      and\n      sub\n        /* \"PramanToken_flattened.sol\":20713:20803  if (spender == address(0)) {... */\n      tag_198\n      jumpi\n        /* \"PramanToken_flattened.sol\":20789:20790  0 */\n      0x00\n        /* \"PramanToken_flattened.sol\":20761:20792  ERC20InvalidSpender(address(0)) */\n      mload(0x40)\n      0x94280d6200000000000000000000000000000000000000000000000000000000\n      dup2\n      mstore\n      0x04\n      add\n      tag_199\n      swap2\n      swap1\n      tag_172\n      jump\t// in\n    tag_199:\n      mload(0x40)\n      dup1\n      swap2\n      sub\n      swap1\n      revert\n        /* \"PramanToken_flattened.sol\":20713:20803  if (spender == address(0)) {... */\n    tag_198:\n        /* \"PramanToken_flattened.sol\":20842:20847  value */\n      dup2\n        /* \"PramanToken_flattened.sol\":20812:20823  _allowances */\n      0x01\n        /* \"PramanToken_flattened.sol\":20812:20830  _allowances[owner] */\n      0x00\n        /* \"PramanToken_flattened.sol\":20824:20829  owner */\n      dup7\n        /* \"PramanToken_flattened.sol\":20812:20830  _allowances[owner] */\n      0xffffffffffffffffffffffffffffffffffffffff\n      and\n      0xffffffffffffffffffffffffffffffffffffffff\n      and\n      dup2\n      mstore\n      0x20\n      add\n      swap1\n      dup2\n      mstore\n      0x20\n      add\n      0x00\n      keccak256\n        /* \"PramanToken_flattened.sol\":20812:20839  _allowances[owner][spender] */\n      0x00\n        /* \"PramanToken_flattened.sol\":20831:20838  spender */\n      dup6\n        /* \"PramanToken_flattened.sol\":20812:20839  _allowances[owner][spender] */\n      0xffffffffffffffffffffffffffffffffffffffff\n      and\n      0xffffffffffffffffffffffffffffffffffffffff\n      and\n      dup2\n      mstore\n      0x20\n      add\n      swap1\n      dup2\n      mstore\n      0x20\n      add\n      0x00\n      keccak256\n        /* \"PramanToken_flattened.sol\":20812:20847  _allowances[owner][spender] = value */\n      dup2\n      swap1\n      sstore\n      pop\n        /* \"PramanToken_flattened.sol\":20861:20870  emitEvent */\n      dup1\n        /* \"PramanToken_flattened.sol\":20857:20933  if (emitEvent) {... */\n      iszero\n      tag_200\n      jumpi\n        /* \"PramanToken_flattened.sol\":20907:20914  spender */\n      dup3\n        /* \"PramanToken_flattened.sol\":20891:20922  Approval(owner, spender, value) */\n      0xffffffffffffffffffffffffffffffffffffffff\n      and\n        /* \"PramanToken_flattened.sol\":20900:20905  owner */\n      dup5\n        /* \"PramanToken_flattened.sol\":20891:20922  Approval(owner, spender, value) */\n      0xffffffffffffffffffffffffffffffffffffffff\n      and\n      0x8c5be1e5ebec7d5bd14f71427d1e84f3dd0314c0f7b2291e5b200ac8c7c3b925\n        /* \"PramanToken_flattened.sol\":20916:20921  value */\n      dup5\n        /* \"PramanToken_flattened.sol\":20891:20922  Approval(owner, spender, value) */\n      mload(0x40)\n      tag_201\n      swap2\n      swap1\n      tag_42\n      jump\t// in\n    tag_201:\n      mload(0x40)\n      dup1\n      swap2\n      sub\n      swap1\n      log3\n        /* \"PramanToken_flattened.sol\":20857:20933  if (emitEvent) {... */\n    tag_200:\n        /* \"PramanToken_flattened.sol\":20507:20939  function _approve(address owner, address spender, uint256 value, bool emitEvent) internal virtual {... */\n      pop\n      pop\n      pop\n      pop\n      jump\t// out\n        /* \"PramanToken_flattened.sol\":16814:17921  function _update(address from, address to, uint256 value) internal virtual {... */\n    tag_176:\n        /* \"PramanToken_flattened.sol\":16919:16920  0 */\n      0x00\n        /* \"PramanToken_flattened.sol\":16903:16921  from == address(0) */\n      0xffffffffffffffffffffffffffffffffffffffff\n      and\n        /* \"PramanToken_flattened.sol\":16903:16907  from */\n      dup4\n        /* \"PramanToken_flattened.sol\":16903:16921  from == address(0) */\n      0xffffffffffffffffffffffffffffffffffffffff\n      and\n      sub\n        /* \"PramanToken_flattened.sol\":16899:17439  if (from == address(0)) {... */\n      tag_203\n      jumpi\n        /* \"PramanToken_flattened.sol\":17055:17060  value */\n      dup1\n        /* \"PramanToken_flattened.sol\":17039:17051  _totalSupply */\n      0x02\n      0x00\n        /* \"PramanToken_flattened.sol\":17039:17060  _totalSupply += value */\n      dup3\n      dup3\n      sload\n      tag_204\n      swap2\n      swap1\n      tag_205\n      jump\t// in\n    tag_204:\n      swap3\n      pop\n      pop\n      dup2\n      swap1\n      sstore\n      pop\n        /* \"PramanToken_flattened.sol\":16899:17439  if (from == address(0)) {... */\n      jump(tag_206)\n    tag_203:\n        /* \"PramanToken_flattened.sol\":17091:17110  uint256 fromBalance */\n      0x00\n        /* \"PramanToken_flattened.sol\":17113:17122  _balances */\n      0x00\n        /* \"PramanToken_flattened.sol\":17113:17128  _balances[from] */\n      0x00\n        /* \"PramanToken_flattened.sol\":17123:17127  from */\n      dup6\n        /* \"PramanToken_flattened.sol\":17113:17128  _balances[from] */\n      0xffffffffffffffffffffffffffffffffffffffff\n      and\n      0xffffffffffffffffffffffffffffffffffffffff\n      and\n      dup2\n      mstore\n      0x20\n      add\n      swap1\n      dup2\n      mstore\n      0x20\n      add\n      0x00\n      keccak256\n      sload\n        /* \"PramanToken_flattened.sol\":17091:17128  uint256 fromBalance = _balances[from] */\n      swap1\n      pop\n        /* \"PramanToken_flattened.sol\":17160:17165  value */\n      dup2\n        /* \"PramanToken_flattened.sol\":17146:17157  fromBalance */\n      dup2\n        /* \"PramanToken_flattened.sol\":17146:17165  fromBalance < value */\n      lt\n        /* \"PramanToken_flattened.sol\":17142:17257  if (fromBalance < value) {... */\n      iszero\n      tag_207\n      jumpi\n        /* \"PramanToken_flattened.sol\":17217:17221  from */\n      dup4\n        /* \"PramanToken_flattened.sol\":17223:17234  fromBalance */\n      dup2\n        /* \"PramanToken_flattened.sol\":17236:17241  value */\n      dup4\n        /* \"PramanToken_flattened.sol\":17192:17242  ERC20InsufficientBalance(from, fromBalance, value) */\n      mload(0x40)\n      0xe450d38c00000000000000000000000000000000000000000000000000000000\n      dup2\n      mstore\n      0x04\n      add\n      tag_208\n      swap4\n      swap3\n      swap2\n      swap1\n      tag_167\n      jump\t// in\n    tag_208:\n      mload(0x40)\n      dup1\n      swap2\n      sub\n      swap1\n      revert\n        /* \"PramanToken_flattened.sol\":17142:17257  if (fromBalance < value) {... */\n    tag_207:\n        /* \"PramanToken_flattened.sol\":17409:17414  value */\n      dup2\n        /* \"PramanToken_flattened.sol\":17395:17406  fromBalance */\n      dup2\n        /* \"PramanToken_flattened.sol\":17395:17414  fromBalance - value */\n      sub\n        /* \"PramanToken_flattened.sol\":17377:17386  _balances */\n      0x00\n        /* \"PramanToken_flattened.sol\":17377:17392  _balances[from] */\n      0x00\n        /* \"PramanToken_flattened.sol\":17387:17391  from */\n      dup7\n        /* \"PramanToken_flattened.sol\":17377:17392  _balances[from] */\n      0xffffffffffffffffffffffffffffffffffffffff\n      and\n      0xffffffffffffffffffffffffffffffffffffffff\n      and\n      dup2\n      mstore\n      0x20\n      add\n      swap1\n      dup2\n      mstore\n      0x20\n      add\n      0x00\n      keccak256\n        /* \"PramanToken_flattened.sol\":17377:17414  _balances[from] = fromBalance - value */\n      dup2\n      swap1\n      sstore\n      pop\n        /* \"PramanToken_flattened.sol\":17077:17439  {... */\n      pop\n        /* \"PramanToken_flattened.sol\":16899:17439  if (from == address(0)) {... */\n    tag_206:\n        /* \"PramanToken_flattened.sol\":17467:17468  0 */\n      0x00\n        /* \"PramanToken_flattened.sol\":17453:17469  to == address(0) */\n      0xffffffffffffffffffffffffffffffffffffffff\n      and\n        /* \"PramanToken_flattened.sol\":17453:17455  to */\n      dup3\n        /* \"PramanToken_flattened.sol\":17453:17469  to == address(0) */\n      0xffffffffffffffffffffffffffffffffffffffff\n      and\n      sub\n        /* \"PramanToken_flattened.sol\":17449:17874  if (to == address(0)) {... */\n      tag_209\n      jumpi\n        /* \"PramanToken_flattened.sol\":17632:17637  value */\n      dup1\n        /* \"PramanToken_flattened.sol\":17616:17628  _totalSupply */\n      0x02\n      0x00\n        /* \"PramanToken_flattened.sol\":17616:17637  _totalSupply -= value */\n      dup3\n      dup3\n      sload\n      sub\n      swap3\n      pop\n      pop\n      dup2\n      swap1\n      sstore\n      pop\n        /* \"PramanToken_flattened.sol\":17449:17874  if (to == address(0)) {... */\n      jump(tag_210)\n    tag_209:\n        /* \"PramanToken_flattened.sol\":17844:17849  value */\n      dup1\n        /* \"PramanToken_flattened.sol\":17827:17836  _balances */\n      0x00\n        /* \"PramanToken_flattened.sol\":17827:17840  _balances[to] */\n      0x00\n        /* \"PramanToken_flattened.sol\":17837:17839  to */\n      dup5\n        /* \"PramanToken_flattened.sol\":17827:17840  _balances[to] */\n      0xffffffffffffffffffffffffffffffffffffffff\n      and\n      0xffffffffffffffffffffffffffffffffffffffff\n      and\n      dup2\n      mstore\n      0x20\n      add\n      swap1\n      dup2\n      mstore\n      0x20\n      add\n      0x00\n      keccak256\n      0x00\n        /* \"PramanToken_flattened.sol\":17827:17849  _balances[to] += value */\n      dup3\n      dup3\n      sload\n      add\n      swap3\n      pop\n      pop\n      dup2\n      swap1\n      sstore\n      pop\n        /* \"PramanToken_flattened.sol\":17449:17874  if (to == address(0)) {... */\n    tag_210:\n        /* \"PramanToken_flattened.sol\":17904:17906  to */\n      dup2\n        /* \"PramanToken_flattened.sol\":17889:17914  Transfer(from, to, value) */\n      0xffffffffffffffffffffffffffffffffffffffff\n      and\n        /* \"PramanToken_flattened.sol\":17898:17902  from */\n      dup4\n        /* \"PramanToken_flattened.sol\":17889:17914  Transfer(from, to, value) */\n      0xffffffffffffffffffffffffffffffffffffffff\n      and\n      0xddf252ad1be2c89b69c2b068fc378daa952ba7f163c4a11628f55a4df523b3ef\n        /* \"PramanToken_flattened.sol\":17908:17913  value */\n      dup4\n        /* \"PramanToken_flattened.sol\":17889:17914  Transfer(from, to, value) */\n      mload(0x40)\n      tag_211\n      swap2\n      swap1\n      tag_42\n      jump\t// in\n    tag_211:\n      mload(0x40)\n      dup1\n      swap2\n      sub\n      swap1\n      log3\n        /* \"PramanToken_flattened.sol\":16814:17921  function _update(address from, address to, uint256 value) internal virtual {... */\n      pop\n      pop\n      pop\n      jump\t// out\n        /* \"PramanToken_flattened.sol\":30128:30325  function _checkRole(bytes32 role, address account) internal view virtual {... */\n    tag_180:\n        /* \"PramanToken_flattened.sol\":30216:30238  hasRole(role, account) */\n      tag_213\n        /* \"PramanToken_flattened.sol\":30224:30228  role */\n      dup3\n        /* \"PramanToken_flattened.sol\":30230:30237  account */\n      dup3\n        /* \"PramanToken_flattened.sol\":30216:30223  hasRole */\n      tag_75\n        /* \"PramanToken_flattened.sol\":30216:30238  hasRole(role, account) */\n      jump\t// in\n    tag_213:\n        /* \"PramanToken_flattened.sol\":30211:30319  if (!hasRole(role, account)) {... */\n      tag_214\n      jumpi\n        /* \"PramanToken_flattened.sol\":30294:30301  account */\n      dup1\n        /* \"PramanToken_flattened.sol\":30303:30307  role */\n      dup3\n        /* \"PramanToken_flattened.sol\":30261:30308  AccessControlUnauthorizedAccount(account, role) */\n      mload(0x40)\n      0xe2517d3f00000000000000000000000000000000000000000000000000000000\n      dup2\n      mstore\n      0x04\n      add\n      tag_215\n      swap3\n      swap2\n      swap1\n      tag_216\n      jump\t// in\n    tag_215:\n      mload(0x40)\n      dup1\n      swap2\n      sub\n      swap1\n      revert\n        /* \"PramanToken_flattened.sol\":30211:30319  if (!hasRole(role, account)) {... */\n    tag_214:\n        /* \"PramanToken_flattened.sol\":30128:30325  function _checkRole(bytes32 role, address account) internal view virtual {... */\n      pop\n      pop\n      jump\t// out\n        /* \"#utility.yul\":88:205   */\n    tag_218:\n        /* \"#utility.yul\":197:198   */\n      0x00\n        /* \"#utility.yul\":194:195   */\n      0x00\n        /* \"#utility.yul\":187:199   */\n      revert\n        /* \"#utility.yul\":334:483   */\n    tag_220:\n        /* \"#utility.yul\":370:377   */\n      0x00\n        /* \"#utility.yul\":410:476   */\n      0xffffffff00000000000000000000000000000000000000000000000000000000\n        /* \"#utility.yul\":403:408   */\n      dup3\n        /* \"#utility.yul\":399:477   */\n      and\n        /* \"#utility.yul\":388:477   */\n      swap1\n      pop\n        /* \"#utility.yul\":334:483   */\n      swap2\n      swap1\n      pop\n      jump\t// out\n        /* \"#utility.yul\":489:609   */\n    tag_221:\n        /* \"#utility.yul\":561:584   */\n      tag_253\n        /* \"#utility.yul\":578:583   */\n      dup2\n        /* \"#utility.yul\":561:584   */\n      tag_220\n      jump\t// in\n    tag_253:\n        /* \"#utility.yul\":554:559   */\n      dup2\n        /* \"#utility.yul\":551:585   */\n      eq\n        /* \"#utility.yul\":541:603   */\n      tag_254\n      jumpi\n        /* \"#utility.yul\":599:600   */\n      0x00\n        /* \"#utility.yul\":596:597   */\n      0x00\n        /* \"#utility.yul\":589:601   */\n      revert\n        /* \"#utility.yul\":541:603   */\n    tag_254:\n        /* \"#utility.yul\":489:609   */\n      pop\n      jump\t// out\n        /* \"#utility.yul\":615:752   */\n    tag_222:\n        /* \"#utility.yul\":660:665   */\n      0x00\n        /* \"#utility.yul\":698:704   */\n      dup2\n        /* \"#utility.yul\":685:705   */\n      calldataload\n        /* \"#utility.yul\":676:705   */\n      swap1\n      pop\n        /* \"#utility.yul\":714:746   */\n      tag_256\n        /* \"#utility.yul\":740:745   */\n      dup2\n        /* \"#utility.yul\":714:746   */\n      tag_221\n      jump\t// in\n    tag_256:\n        /* \"#utility.yul\":615:752   */\n      swap3\n      swap2\n      pop\n      pop\n      jump\t// out\n        /* \"#utility.yul\":758:1085   */\n    tag_26:\n        /* \"#utility.yul\":816:822   */\n      0x00\n        /* \"#utility.yul\":865:867   */\n      0x20\n        /* \"#utility.yul\":853:862   */\n      dup3\n        /* \"#utility.yul\":844:851   */\n      dup5\n        /* \"#utility.yul\":840:863   */\n      sub\n        /* \"#utility.yul\":836:868   */\n      slt\n        /* \"#utility.yul\":833:952   */\n      iszero\n      tag_258\n      jumpi\n        /* \"#utility.yul\":871:950   */\n      tag_259\n      tag_218\n      jump\t// in\n    tag_259:\n        /* \"#utility.yul\":833:952   */\n    tag_258:\n        /* \"#utility.yul\":991:992   */\n      0x00\n        /* \"#utility.yul\":1016:1068   */\n      tag_260\n        /* \"#utility.yul\":1060:1067   */\n      dup5\n        /* \"#utility.yul\":1051:1057   */\n      dup3\n        /* \"#utility.yul\":1040:1049   */\n      dup6\n        /* \"#utility.yul\":1036:1058   */\n      add\n        /* \"#utility.yul\":1016:1068   */\n      tag_222\n      jump\t// in\n    tag_260:\n        /* \"#utility.yul\":1006:1068   */\n      swap2\n      pop\n        /* \"#utility.yul\":962:1078   */\n      pop\n        /* \"#utility.yul\":758:1085   */\n      swap3\n      swap2\n      pop\n      pop\n      jump\t// out\n        /* \"#utility.yul\":1091:1181   */\n    tag_223:\n        /* \"#utility.yul\":1125:1132   */\n      0x00\n        /* \"#utility.yul\":1168:1173   */\n      dup2\n        /* \"#utility.yul\":1161:1174   */\n      iszero\n        /* \"#utility.yul\":1154:1175   */\n      iszero\n        /* \"#utility.yul\":1143:1175   */\n      swap1\n      pop\n        /* \"#utility.yul\":1091:1181   */\n      swap2\n      swap1\n      pop\n      jump\t// out\n        /* \"#utility.yul\":1187:1296   */\n    tag_224:\n        /* \"#utility.yul\":1268:1289   */\n      tag_263\n        /* \"#utility.yul\":1283:1288   */\n      dup2\n        /* \"#utility.yul\":1268:1289   */\n      tag_223\n      jump\t// in\n    tag_263:\n        /* \"#utility.yul\":1263:1266   */\n      dup3\n        /* \"#utility.yul\":1256:1290   */\n      mstore\n        /* \"#utility.yul\":1187:1296   */\n      pop\n      pop\n      jump\t// out\n        /* \"#utility.yul\":1302:1512   */\n    tag_29:\n        /* \"#utility.yul\":1389:1393   */\n      0x00\n        /* \"#utility.yul\":1427:1429   */\n      0x20\n        /* \"#utility.yul\":1416:1425   */\n      dup3\n        /* \"#utility.yul\":1412:1430   */\n      add\n        /* \"#utility.yul\":1404:1430   */\n      swap1\n      pop\n        /* \"#utility.yul\":1440:1505   */\n      tag_265\n        /* \"#utility.yul\":1502:1503   */\n      0x00\n        /* \"#utility.yul\":1491:1500   */\n      dup4\n        /* \"#utility.yul\":1487:1504   */\n      add\n        /* \"#utility.yul\":1478:1484   */\n      dup5\n        /* \"#utility.yul\":1440:1505   */\n      tag_224\n      jump\t// in\n    tag_265:\n        /* \"#utility.yul\":1302:1512   */\n      swap3\n      swap2\n      pop\n      pop\n      jump\t// out\n        /* \"#utility.yul\":1518:1617   */\n    tag_225:\n        /* \"#utility.yul\":1570:1576   */\n      0x00\n        /* \"#utility.yul\":1604:1609   */\n      dup2\n        /* \"#utility.yul\":1598:1610   */\n      mload\n        /* \"#utility.yul\":1588:1610   */\n      swap1\n      pop\n        /* \"#utility.yul\":1518:1617   */\n      swap2\n      swap1\n      pop\n      jump\t// out\n        /* \"#utility.yul\":1623:1792   */\n    tag_226:\n        /* \"#utility.yul\":1707:1718   */\n      0x00\n        /* \"#utility.yul\":1741:1747   */\n      dup3\n        /* \"#utility.yul\":1736:1739   */\n      dup3\n        /* \"#utility.yul\":1729:1748   */\n      mstore\n        /* \"#utility.yul\":1781:1785   */\n      0x20\n        /* \"#utility.yul\":1776:1779   */\n      dup3\n        /* \"#utility.yul\":1772:1786   */\n      add\n        /* \"#utility.yul\":1757:1786   */\n      swap1\n      pop\n        /* \"#utility.yul\":1623:1792   */\n      swap3\n      swap2\n      pop\n      pop\n      jump\t// out\n        /* \"#utility.yul\":1798:1937   */\n    tag_227:\n        /* \"#utility.yul\":1887:1893   */\n      dup3\n        /* \"#utility.yul\":1882:1885   */\n      dup2\n        /* \"#utility.yul\":1877:1880   */\n      dup4\n        /* \"#utility.yul\":1871:1894   */\n      mcopy\n        /* \"#utility.yul\":1928:1929   */\n      0x00\n        /* \"#utility.yul\":1919:1925   */\n      dup4\n        /* \"#utility.yul\":1914:1917   */\n      dup4\n        /* \"#utility.yul\":1910:1926   */\n      add\n        /* \"#utility.yul\":1903:1930   */\n      mstore\n        /* \"#utility.yul\":1798:1937   */\n      pop\n      pop\n      pop\n      jump\t// out\n        /* \"#utility.yul\":1943:2045   */\n    tag_228:\n        /* \"#utility.yul\":1984:1990   */\n      0x00\n        /* \"#utility.yul\":2035:2037   */\n      0x1f\n        /* \"#utility.yul\":2031:2038   */\n      not\n        /* \"#utility.yul\":2026:2028   */\n      0x1f\n        /* \"#utility.yul\":2019:2024   */\n      dup4\n        /* \"#utility.yul\":2015:2029   */\n      add\n        /* \"#utility.yul\":2011:2039   */\n      and\n        /* \"#utility.yul\":2001:2039   */\n      swap1\n      pop\n        /* \"#utility.yul\":1943:2045   */\n      swap2\n      swap1\n      pop\n      jump\t// out\n        /* \"#utility.yul\":2051:2428   */\n    tag_229:\n        /* \"#utility.yul\":2139:2142   */\n      0x00\n        /* \"#utility.yul\":2167:2206   */\n      tag_271\n        /* \"#utility.yul\":2200:2205   */\n      dup3\n        /* \"#utility.yul\":2167:2206   */\n      tag_225\n      jump\t// in\n    tag_271:\n        /* \"#utility.yul\":2222:2293   */\n      tag_272\n        /* \"#utility.yul\":2286:2292   */\n      dup2\n        /* \"#utility.yul\":2281:2284   */\n      dup6\n        /* \"#utility.yul\":2222:2293   */\n      tag_226\n      jump\t// in\n    tag_272:\n        /* \"#utility.yul\":2215:2293   */\n      swap4\n      pop\n        /* \"#utility.yul\":2302:2367   */\n      tag_273\n        /* \"#utility.yul\":2360:2366   */\n      dup2\n        /* \"#utility.yul\":2355:2358   */\n      dup6\n        /* \"#utility.yul\":2348:2352   */\n      0x20\n        /* \"#utility.yul\":2341:2346   */\n      dup7\n        /* \"#utility.yul\":2337:2353   */\n      add\n        /* \"#utility.yul\":2302:2367   */\n      tag_227\n      jump\t// in\n    tag_273:\n        /* \"#utility.yul\":2392:2421   */\n      tag_274\n        /* \"#utility.yul\":2414:2420   */\n      dup2\n        /* \"#utility.yul\":2392:2421   */\n      tag_228\n      jump\t// in\n    tag_274:\n        /* \"#utility.yul\":2387:2390   */\n      dup5\n        /* \"#utility.yul\":2383:2422   */\n      add\n        /* \"#utility.yul\":2376:2422   */\n      swap2\n      pop\n        /* \"#utility.yul\":2143:2428   */\n      pop\n        /* \"#utility.yul\":2051:2428   */\n      swap3\n      swap2\n      pop\n      pop\n      jump\t// out\n        /* \"#utility.yul\":2434:2747   */\n    tag_33:\n        /* \"#utility.yul\":2547:2551   */\n      0x00\n        /* \"#utility.yul\":2585:2587   */\n      0x20\n        /* \"#utility.yul\":2574:2583   */\n      dup3\n        /* \"#utility.yul\":2570:2588   */\n      add\n        /* \"#utility.yul\":2562:2588   */\n      swap1\n      pop\n        /* \"#utility.yul\":2634:2643   */\n      dup2\n        /* \"#utility.yul\":2628:2632   */\n      dup2\n        /* \"#utility.yul\":2624:2644   */\n      sub\n        /* \"#utility.yul\":2620:2621   */\n      0x00\n        /* \"#utility.yul\":2609:2618   */\n      dup4\n        /* \"#utility.yul\":2605:2622   */\n      add\n        /* \"#utility.yul\":2598:2645   */\n      mstore\n        /* \"#utility.yul\":2662:2740   */\n      tag_276\n        /* \"#utility.yul\":2735:2739   */\n      dup2\n        /* \"#utility.yul\":2726:2732   */\n      dup5\n        /* \"#utility.yul\":2662:2740   */\n      tag_229\n      jump\t// in\n    tag_276:\n        /* \"#utility.yul\":2654:2740   */\n      swap1\n      pop\n        /* \"#utility.yul\":2434:2747   */\n      swap3\n      swap2\n      pop\n      pop\n      jump\t// out\n        /* \"#utility.yul\":2753:2879   */\n    tag_230:\n        /* \"#utility.yul\":2790:2797   */\n      0x00\n        /* \"#utility.yul\":2830:2872   */\n      0xffffffffffffffffffffffffffffffffffffffff\n        /* \"#utility.yul\":2823:2828   */\n      dup3\n        /* \"#utility.yul\":2819:2873   */\n      and\n        /* \"#utility.yul\":2808:2873   */\n      swap1\n      pop\n        /* \"#utility.yul\":2753:2879   */\n      swap2\n      swap1\n      pop\n      jump\t// out\n        /* \"#utility.yul\":2885:2981   */\n    tag_231:\n        /* \"#utility.yul\":2922:2929   */\n      0x00\n        /* \"#utility.yul\":2951:2975   */\n      tag_279\n        /* \"#utility.yul\":2969:2974   */\n      dup3\n        /* \"#utility.yul\":2951:2975   */\n      tag_230\n      jump\t// in\n    tag_279:\n        /* \"#utility.yul\":2940:2975   */\n      swap1\n      pop\n        /* \"#utility.yul\":2885:2981   */\n      swap2\n      swap1\n      pop\n      jump\t// out\n        /* \"#utility.yul\":2987:3109   */\n    tag_232:\n        /* \"#utility.yul\":3060:3084   */\n      tag_281\n        /* \"#utility.yul\":3078:3083   */\n      dup2\n        /* \"#utility.yul\":3060:3084   */\n      tag_231\n      jump\t// in\n    tag_281:\n        /* \"#utility.yul\":3053:3058   */\n      dup2\n        /* \"#utility.yul\":3050:3085   */\n      eq\n        /* \"#utility.yul\":3040:3103   */\n      tag_282\n      jumpi\n        /* \"#utility.yul\":3099:3100   */\n      0x00\n        /* \"#utility.yul\":3096:3097   */\n      0x00\n        /* \"#utility.yul\":3089:3101   */\n      revert\n        /* \"#utility.yul\":3040:3103   */\n    tag_282:\n        /* \"#utility.yul\":2987:3109   */\n      pop\n      jump\t// out\n        /* \"#utility.yul\":3115:3254   */\n    tag_233:\n        /* \"#utility.yul\":3161:3166   */\n      0x00\n        /* \"#utility.yul\":3199:3205   */\n      dup2\n        /* \"#utility.yul\":3186:3206   */\n      calldataload\n        /* \"#utility.yul\":3177:3206   */\n      swap1\n      pop\n        /* \"#utility.yul\":3215:3248   */\n      tag_284\n        /* \"#utility.yul\":3242:3247   */\n      dup2\n        /* \"#utility.yul\":3215:3248   */\n      tag_232\n      jump\t// in\n    tag_284:\n        /* \"#utility.yul\":3115:3254   */\n      swap3\n      swap2\n      pop\n      pop\n      jump\t// out\n        /* \"#utility.yul\":3260:3337   */\n    tag_234:\n        /* \"#utility.yul\":3297:3304   */\n      0x00\n        /* \"#utility.yul\":3326:3331   */\n      dup2\n        /* \"#utility.yul\":3315:3331   */\n      swap1\n      pop\n        /* \"#utility.yul\":3260:3337   */\n      swap2\n      swap1\n      pop\n      jump\t// out\n        /* \"#utility.yul\":3343:3465   */\n    tag_235:\n        /* \"#utility.yul\":3416:3440   */\n      tag_287\n        /* \"#utility.yul\":3434:3439   */\n      dup2\n        /* \"#utility.yul\":3416:3440   */\n      tag_234\n      jump\t// in\n    tag_287:\n        /* \"#utility.yul\":3409:3414   */\n      dup2\n        /* \"#utility.yul\":3406:3441   */\n      eq\n        /* \"#utility.yul\":3396:3459   */\n      tag_288\n      jumpi\n        /* \"#utility.yul\":3455:3456   */\n      0x00\n        /* \"#utility.yul\":3452:3453   */\n      0x00\n        /* \"#utility.yul\":3445:3457   */\n      revert\n        /* \"#utility.yul\":3396:3459   */\n    tag_288:\n        /* \"#utility.yul\":3343:3465   */\n      pop\n      jump\t// out\n        /* \"#utility.yul\":3471:3610   */\n    tag_236:\n        /* \"#utility.yul\":3517:3522   */\n      0x00\n        /* \"#utility.yul\":3555:3561   */\n      dup2\n        /* \"#utility.yul\":3542:3562   */\n      calldataload\n        /* \"#utility.yul\":3533:3562   */\n      swap1\n      pop\n        /* \"#utility.yul\":3571:3604   */\n      tag_290\n        /* \"#utility.yul\":3598:3603   */\n      dup2\n        /* \"#utility.yul\":3571:3604   */\n      tag_235\n      jump\t// in\n    tag_290:\n        /* \"#utility.yul\":3471:3610   */\n      swap3\n      swap2\n      pop\n      pop\n      jump\t// out\n        /* \"#utility.yul\":3616:4090   */\n    tag_36:\n        /* \"#utility.yul\":3684:3690   */\n      0x00\n        /* \"#utility.yul\":3692:3698   */\n      0x00\n        /* \"#utility.yul\":3741:3743   */\n      0x40\n        /* \"#utility.yul\":3729:3738   */\n      dup4\n        /* \"#utility.yul\":3720:3727   */\n      dup6\n        /* \"#utility.yul\":3716:3739   */\n      sub\n        /* \"#utility.yul\":3712:3744   */\n      slt\n        /* \"#utility.yul\":3709:3828   */\n      iszero\n      tag_292\n      jumpi\n        /* \"#utility.yul\":3747:3826   */\n      tag_293\n      tag_218\n      jump\t// in\n    tag_293:\n        /* \"#utility.yul\":3709:3828   */\n    tag_292:\n        /* \"#utility.yul\":3867:3868   */\n      0x00\n        /* \"#utility.yul\":3892:3945   */\n      tag_294\n        /* \"#utility.yul\":3937:3944   */\n      dup6\n        /* \"#utility.yul\":3928:3934   */\n      dup3\n        /* \"#utility.yul\":3917:3926   */\n      dup7\n        /* \"#utility.yul\":3913:3935   */\n      add\n        /* \"#utility.yul\":3892:3945   */\n      tag_233\n      jump\t// in\n    tag_294:\n        /* \"#utility.yul\":3882:3945   */\n      swap3\n      pop\n        /* \"#utility.yul\":3838:3955   */\n      pop\n        /* \"#utility.yul\":3994:3996   */\n      0x20\n        /* \"#utility.yul\":4020:4073   */\n      tag_295\n        /* \"#utility.yul\":4065:4072   */\n      dup6\n        /* \"#utility.yul\":4056:4062   */\n      dup3\n        /* \"#utility.yul\":4045:4054   */\n      dup7\n        /* \"#utility.yul\":4041:4063   */\n      add\n        /* \"#utility.yul\":4020:4073   */\n      tag_236\n      jump\t// in\n    tag_295:\n        /* \"#utility.yul\":4010:4073   */\n      swap2\n      pop\n        /* \"#utility.yul\":3965:4083   */\n      pop\n        /* \"#utility.yul\":3616:4090   */\n      swap3\n      pop\n      swap3\n      swap1\n      pop\n      jump\t// out\n        /* \"#utility.yul\":4096:4214   */\n    tag_237:\n        /* \"#utility.yul\":4183:4207   */\n      tag_297\n        /* \"#utility.yul\":4201:4206   */\n      dup2\n        /* \"#utility.yul\":4183:4207   */\n      tag_234\n      jump\t// in\n    tag_297:\n        /* \"#utility.yul\":4178:4181   */\n      dup3\n        /* \"#utility.yul\":4171:4208   */\n      mstore\n        /* \"#utility.yul\":4096:4214   */\n      pop\n      pop\n      jump\t// out\n        /* \"#utility.yul\":4220:4442   */\n    tag_42:\n        /* \"#utility.yul\":4313:4317   */\n      0x00\n        /* \"#utility.yul\":4351:4353   */\n      0x20\n        /* \"#utility.yul\":4340:4349   */\n      dup3\n        /* \"#utility.yul\":4336:4354   */\n      add\n        /* \"#utility.yul\":4328:4354   */\n      swap1\n      pop\n        /* \"#utility.yul\":4364:4435   */\n      tag_299\n        /* \"#utility.yul\":4432:4433   */\n      0x00\n        /* \"#utility.yul\":4421:4430   */\n      dup4\n        /* \"#utility.yul\":4417:4434   */\n      add\n        /* \"#utility.yul\":4408:4414   */\n      dup5\n        /* \"#utility.yul\":4364:4435   */\n      tag_237\n      jump\t// in\n    tag_299:\n        /* \"#utility.yul\":4220:4442   */\n      swap3\n      swap2\n      pop\n      pop\n      jump\t// out\n        /* \"#utility.yul\":4448:5067   */\n    tag_45:\n        /* \"#utility.yul\":4525:4531   */\n      0x00\n        /* \"#utility.yul\":4533:4539   */\n      0x00\n        /* \"#utility.yul\":4541:4547   */\n      0x00\n        /* \"#utility.yul\":4590:4592   */\n      0x60\n        /* \"#utility.yul\":4578:4587   */\n      dup5\n        /* \"#utility.yul\":4569:4576   */\n      dup7\n        /* \"#utility.yul\":4565:4588   */\n      sub\n        /* \"#utility.yul\":4561:4593   */\n      slt\n        /* \"#utility.yul\":4558:4677   */\n      iszero\n      tag_301\n      jumpi\n        /* \"#utility.yul\":4596:4675   */\n      tag_302\n      tag_218\n      jump\t// in\n    tag_302:\n        /* \"#utility.yul\":4558:4677   */\n    tag_301:\n        /* \"#utility.yul\":4716:4717   */\n      0x00\n        /* \"#utility.yul\":4741:4794   */\n      tag_303\n        /* \"#utility.yul\":4786:4793   */\n      dup7\n        /* \"#utility.yul\":4777:4783   */\n      dup3\n        /* \"#utility.yul\":4766:4775   */\n      dup8\n        /* \"#utility.yul\":4762:4784   */\n      add\n        /* \"#utility.yul\":4741:4794   */\n      tag_233\n      jump\t// in\n    tag_303:\n        /* \"#utility.yul\":4731:4794   */\n      swap4\n      pop\n        /* \"#utility.yul\":4687:4804   */\n      pop\n        /* \"#utility.yul\":4843:4845   */\n      0x20\n        /* \"#utility.yul\":4869:4922   */\n      tag_304\n        /* \"#utility.yul\":4914:4921   */\n      dup7\n        /* \"#utility.yul\":4905:4911   */\n      dup3\n        /* \"#utility.yul\":4894:4903   */\n      dup8\n        /* \"#utility.yul\":4890:4912   */\n      add\n        /* \"#utility.yul\":4869:4922   */\n      tag_233\n      jump\t// in\n    tag_304:\n        /* \"#utility.yul\":4859:4922   */\n      swap3\n      pop\n        /* \"#utility.yul\":4814:4932   */\n      pop\n        /* \"#utility.yul\":4971:4973   */\n      0x40\n        /* \"#utility.yul\":4997:5050   */\n      tag_305\n        /* \"#utility.yul\":5042:5049   */\n      dup7\n        /* \"#utility.yul\":5033:5039   */\n      dup3\n        /* \"#utility.yul\":5022:5031   */\n      dup8\n        /* \"#utility.yul\":5018:5040   */\n      add\n        /* \"#utility.yul\":4997:5050   */\n      tag_236\n      jump\t// in\n    tag_305:\n        /* \"#utility.yul\":4987:5050   */\n      swap2\n      pop\n        /* \"#utility.yul\":4942:5060   */\n      pop\n        /* \"#utility.yul\":4448:5067   */\n      swap3\n      pop\n      swap3\n      pop\n      swap3\n      jump\t// out\n        /* \"#utility.yul\":5073:5150   */\n    tag_238:\n        /* \"#utility.yul\":5110:5117   */\n      0x00\n        /* \"#utility.yul\":5139:5144   */\n      dup2\n        /* \"#utility.yul\":5128:5144   */\n      swap1\n      pop\n        /* \"#utility.yul\":5073:5150   */\n      swap2\n      swap1\n      pop\n      jump\t// out\n        /* \"#utility.yul\":5156:5278   */\n    tag_239:\n        /* \"#utility.yul\":5229:5253   */\n      tag_308\n        /* \"#utility.yul\":5247:5252   */\n      dup2\n        /* \"#utility.yul\":5229:5253   */\n      tag_238\n      jump\t// in\n    tag_308:\n        /* \"#utility.yul\":5222:5227   */\n      dup2\n        /* \"#utility.yul\":5219:5254   */\n      eq\n        /* \"#utility.yul\":5209:5272   */\n      tag_309\n      jumpi\n        /* \"#utility.yul\":5268:5269   */\n      0x00\n        /* \"#utility.yul\":5265:5266   */\n      0x00\n        /* \"#utility.yul\":5258:5270   */\n      revert\n        /* \"#utility.yul\":5209:5272   */\n    tag_309:\n        /* \"#utility.yul\":5156:5278   */\n      pop\n      jump\t// out\n        /* \"#utility.yul\":5284:5423   */\n    tag_240:\n        /* \"#utility.yul\":5330:5335   */\n      0x00\n        /* \"#utility.yul\":5368:5374   */\n      dup2\n        /* \"#utility.yul\":5355:5375   */\n      calldataload\n        /* \"#utility.yul\":5346:5375   */\n      swap1\n      pop\n        /* \"#utility.yul\":5384:5417   */\n      tag_311\n        /* \"#utility.yul\":5411:5416   */\n      dup2\n        /* \"#utility.yul\":5384:5417   */\n      tag_239\n      jump\t// in\n    tag_311:\n        /* \"#utility.yul\":5284:5423   */\n      swap3\n      swap2\n      pop\n      pop\n      jump\t// out\n        /* \"#utility.yul\":5429:5758   */\n    tag_50:\n        /* \"#utility.yul\":5488:5494   */\n      0x00\n        /* \"#utility.yul\":5537:5539   */\n      0x20\n        /* \"#utility.yul\":5525:5534   */\n      dup3\n        /* \"#utility.yul\":5516:5523   */\n      dup5\n        /* \"#utility.yul\":5512:5535   */\n      sub\n        /* \"#utility.yul\":5508:5540   */\n      slt\n        /* \"#utility.yul\":5505:5624   */\n      iszero\n      tag_313\n      jumpi\n        /* \"#utility.yul\":5543:5622   */\n      tag_314\n      tag_218\n      jump\t// in\n    tag_314:\n        /* \"#utility.yul\":5505:5624   */\n    tag_313:\n        /* \"#utility.yul\":5663:5664   */\n      0x00\n        /* \"#utility.yul\":5688:5741   */\n      tag_315\n        /* \"#utility.yul\":5733:5740   */\n      dup5\n        /* \"#utility.yul\":5724:5730   */\n      dup3\n        /* \"#utility.yul\":5713:5722   */\n      dup6\n        /* \"#utility.yul\":5709:5731   */\n      add\n        /* \"#utility.yul\":5688:5741   */\n      tag_240\n      jump\t// in\n    tag_315:\n        /* \"#utility.yul\":5678:5741   */\n      swap2\n      pop\n        /* \"#utility.yul\":5634:5751   */\n      pop\n        /* \"#utility.yul\":5429:5758   */\n      swap3\n      swap2\n      pop\n      pop\n      jump\t// out\n        /* \"#utility.yul\":5764:5882   */\n    tag_241:\n        /* \"#utility.yul\":5851:5875   */\n      tag_317\n        /* \"#utility.yul\":5869:5874   */\n      dup2\n        /* \"#utility.yul\":5851:5875   */\n      tag_238\n      jump\t// in\n    tag_317:\n        /* \"#utility.yul\":5846:5849   */\n      dup3\n        /* \"#utility.yul\":5839:5876   */\n      mstore\n        /* \"#utility.yul\":5764:5882   */\n      pop\n      pop\n      jump\t// out\n        /* \"#utility.yul\":5888:6110   */\n    tag_53:\n        /* \"#utility.yul\":5981:5985   */\n      0x00\n        /* \"#utility.yul\":6019:6021   */\n      0x20\n        /* \"#utility.yul\":6008:6017   */\n      dup3\n        /* \"#utility.yul\":6004:6022   */\n      add\n        /* \"#utility.yul\":5996:6022   */\n      swap1\n      pop\n        /* \"#utility.yul\":6032:6103   */\n      tag_319\n        /* \"#utility.yul\":6100:6101   */\n      0x00\n        /* \"#utility.yul\":6089:6098   */\n      dup4\n        /* \"#utility.yul\":6085:6102   */\n      add\n        /* \"#utility.yul\":6076:6082   */\n      dup5\n        /* \"#utility.yul\":6032:6103   */\n      tag_241\n      jump\t// in\n    tag_319:\n        /* \"#utility.yul\":5888:6110   */\n      swap3\n      swap2\n      pop\n      pop\n      jump\t// out\n        /* \"#utility.yul\":6116:6590   */\n    tag_56:\n        /* \"#utility.yul\":6184:6190   */\n      0x00\n        /* \"#utility.yul\":6192:6198   */\n      0x00\n        /* \"#utility.yul\":6241:6243   */\n      0x40\n        /* \"#utility.yul\":6229:6238   */\n      dup4\n        /* \"#utility.yul\":6220:6227   */\n      dup6\n        /* \"#utility.yul\":6216:6239   */\n      sub\n        /* \"#utility.yul\":6212:6244   */\n      slt\n        /* \"#utility.yul\":6209:6328   */\n      iszero\n      tag_321\n      jumpi\n        /* \"#utility.yul\":6247:6326   */\n      tag_322\n      tag_218\n      jump\t// in\n    tag_322:\n        /* \"#utility.yul\":6209:6328   */\n    tag_321:\n        /* \"#utility.yul\":6367:6368   */\n      0x00\n        /* \"#utility.yul\":6392:6445   */\n      tag_323\n        /* \"#utility.yul\":6437:6444   */\n      dup6\n        /* \"#utility.yul\":6428:6434   */\n      dup3\n        /* \"#utility.yul\":6417:6426   */\n      dup7\n        /* \"#utility.yul\":6413:6435   */\n      add\n        /* \"#utility.yul\":6392:6445   */\n      tag_240\n      jump\t// in\n    tag_323:\n        /* \"#utility.yul\":6382:6445   */\n      swap3\n      pop\n        /* \"#utility.yul\":6338:6455   */\n      pop\n        /* \"#utility.yul\":6494:6496   */\n      0x20\n        /* \"#utility.yul\":6520:6573   */\n      tag_324\n        /* \"#utility.yul\":6565:6572   */\n      dup6\n        /* \"#utility.yul\":6556:6562   */\n      dup3\n        /* \"#utility.yul\":6545:6554   */\n      dup7\n        /* \"#utility.yul\":6541:6563   */\n      add\n        /* \"#utility.yul\":6520:6573   */\n      tag_233\n      jump\t// in\n    tag_324:\n        /* \"#utility.yul\":6510:6573   */\n      swap2\n      pop\n        /* \"#utility.yul\":6465:6583   */\n      pop\n        /* \"#utility.yul\":6116:6590   */\n      swap3\n      pop\n      swap3\n      swap1\n      pop\n      jump\t// out\n        /* \"#utility.yul\":6596:6682   */\n    tag_242:\n        /* \"#utility.yul\":6631:6638   */\n      0x00\n        /* \"#utility.yul\":6671:6675   */\n      0xff\n        /* \"#utility.yul\":6664:6669   */\n      dup3\n        /* \"#utility.yul\":6660:6676   */\n      and\n        /* \"#utility.yul\":6649:6676   */\n      swap1\n      pop\n        /* \"#utility.yul\":6596:6682   */\n      swap2\n      swap1\n      pop\n      jump\t// out\n        /* \"#utility.yul\":6688:6800   */\n    tag_243:\n        /* \"#utility.yul\":6771:6793   */\n      tag_327\n        /* \"#utility.yul\":6787:6792   */\n      dup2\n        /* \"#utility.yul\":6771:6793   */\n      tag_242\n      jump\t// in\n    tag_327:\n        /* \"#utility.yul\":6766:6769   */\n      dup3\n        /* \"#utility.yul\":6759:6794   */\n      mstore\n        /* \"#utility.yul\":6688:6800   */\n      pop\n      pop\n      jump\t// out\n        /* \"#utility.yul\":6806:7020   */\n    tag_61:\n        /* \"#utility.yul\":6895:6899   */\n      0x00\n        /* \"#utility.yul\":6933:6935   */\n      0x20\n        /* \"#utility.yul\":6922:6931   */\n      dup3\n        /* \"#utility.yul\":6918:6936   */\n      add\n        /* \"#utility.yul\":6910:6936   */\n      swap1\n      pop\n        /* \"#utility.yul\":6946:7013   */\n      tag_329\n        /* \"#utility.yul\":7010:7011   */\n      0x00\n        /* \"#utility.yul\":6999:7008   */\n      dup4\n        /* \"#utility.yul\":6995:7012   */\n      add\n        /* \"#utility.yul\":6986:6992   */\n      dup5\n        /* \"#utility.yul\":6946:7013   */\n      tag_243\n      jump\t// in\n    tag_329:\n        /* \"#utility.yul\":6806:7020   */\n      swap3\n      swap2\n      pop\n      pop\n      jump\t// out\n        /* \"#utility.yul\":7026:7355   */\n    tag_70:\n        /* \"#utility.yul\":7085:7091   */\n      0x00\n        /* \"#utility.yul\":7134:7136   */\n      0x20\n        /* \"#utility.yul\":7122:7131   */\n      dup3\n        /* \"#utility.yul\":7113:7120   */\n      dup5\n        /* \"#utility.yul\":7109:7132   */\n      sub\n        /* \"#utility.yul\":7105:7137   */\n      slt\n        /* \"#utility.yul\":7102:7221   */\n      iszero\n      tag_331\n      jumpi\n        /* \"#utility.yul\":7140:7219   */\n      tag_332\n      tag_218\n      jump\t// in\n    tag_332:\n        /* \"#utility.yul\":7102:7221   */\n    tag_331:\n        /* \"#utility.yul\":7260:7261   */\n      0x00\n        /* \"#utility.yul\":7285:7338   */\n      tag_333\n        /* \"#utility.yul\":7330:7337   */\n      dup5\n        /* \"#utility.yul\":7321:7327   */\n      dup3\n        /* \"#utility.yul\":7310:7319   */\n      dup6\n        /* \"#utility.yul\":7306:7328   */\n      add\n        /* \"#utility.yul\":7285:7338   */\n      tag_233\n      jump\t// in\n    tag_333:\n        /* \"#utility.yul\":7275:7338   */\n      swap2\n      pop\n        /* \"#utility.yul\":7231:7348   */\n      pop\n        /* \"#utility.yul\":7026:7355   */\n      swap3\n      swap2\n      pop\n      pop\n      jump\t// out\n        /* \"#utility.yul\":7361:7835   */\n    tag_95:\n        /* \"#utility.yul\":7429:7435   */\n      0x00\n        /* \"#utility.yul\":7437:7443   */\n      0x00\n        /* \"#utility.yul\":7486:7488   */\n      0x40\n        /* \"#utility.yul\":7474:7483   */\n      dup4\n        /* \"#utility.yul\":7465:7472   */\n      dup6\n        /* \"#utility.yul\":7461:7484   */\n      sub\n        /* \"#utility.yul\":7457:7489   */\n      slt\n        /* \"#utility.yul\":7454:7573   */\n      iszero\n      tag_335\n      jumpi\n        /* \"#utility.yul\":7492:7571   */\n      tag_336\n      tag_218\n      jump\t// in\n    tag_336:\n        /* \"#utility.yul\":7454:7573   */\n    tag_335:\n        /* \"#utility.yul\":7612:7613   */\n      0x00\n        /* \"#utility.yul\":7637:7690   */\n      tag_337\n        /* \"#utility.yul\":7682:7689   */\n      dup6\n        /* \"#utility.yul\":7673:7679   */\n      dup3\n        /* \"#utility.yul\":7662:7671   */\n      dup7\n        /* \"#utility.yul\":7658:7680   */\n      add\n        /* \"#utility.yul\":7637:7690   */\n      tag_233\n      jump\t// in\n    tag_337:\n        /* \"#utility.yul\":7627:7690   */\n      swap3\n      pop\n        /* \"#utility.yul\":7583:7700   */\n      pop\n        /* \"#utility.yul\":7739:7741   */\n      0x20\n        /* \"#utility.yul\":7765:7818   */\n      tag_338\n        /* \"#utility.yul\":7810:7817   */\n      dup6\n        /* \"#utility.yul\":7801:7807   */\n      dup3\n        /* \"#utility.yul\":7790:7799   */\n      dup7\n        /* \"#utility.yul\":7786:7808   */\n      add\n        /* \"#utility.yul\":7765:7818   */\n      tag_233\n      jump\t// in\n    tag_338:\n        /* \"#utility.yul\":7755:7818   */\n      swap2\n      pop\n        /* \"#utility.yul\":7710:7828   */\n      pop\n        /* \"#utility.yul\":7361:7835   */\n      swap3\n      pop\n      swap3\n      swap1\n      pop\n      jump\t// out\n        /* \"#utility.yul\":7841:8021   */\n    tag_244:\n        /* \"#utility.yul\":7889:7966   */\n      0x4e487b7100000000000000000000000000000000000000000000000000000000\n        /* \"#utility.yul\":7886:7887   */\n      0x00\n        /* \"#utility.yul\":7879:7967   */\n      mstore\n        /* \"#utility.yul\":7986:7990   */\n      0x22\n        /* \"#utility.yul\":7983:7984   */\n      0x04\n        /* \"#utility.yul\":7976:7991   */\n      mstore\n        /* \"#utility.yul\":8010:8014   */\n      0x24\n        /* \"#utility.yul\":8007:8008   */\n      0x00\n        /* \"#utility.yul\":8000:8015   */\n      revert\n        /* \"#utility.yul\":8027:8347   */\n    tag_104:\n        /* \"#utility.yul\":8071:8077   */\n      0x00\n        /* \"#utility.yul\":8108:8109   */\n      0x02\n        /* \"#utility.yul\":8102:8106   */\n      dup3\n        /* \"#utility.yul\":8098:8110   */\n      div\n        /* \"#utility.yul\":8088:8110   */\n      swap1\n      pop\n        /* \"#utility.yul\":8155:8156   */\n      0x01\n        /* \"#utility.yul\":8149:8153   */\n      dup3\n        /* \"#utility.yul\":8145:8157   */\n      and\n        /* \"#utility.yul\":8176:8194   */\n      dup1\n        /* \"#utility.yul\":8166:8247   */\n      tag_341\n      jumpi\n        /* \"#utility.yul\":8232:8236   */\n      0x7f\n        /* \"#utility.yul\":8224:8230   */\n      dup3\n        /* \"#utility.yul\":8220:8237   */\n      and\n        /* \"#utility.yul\":8210:8237   */\n      swap2\n      pop\n        /* \"#utility.yul\":8166:8247   */\n    tag_341:\n        /* \"#utility.yul\":8294:8296   */\n      0x20\n        /* \"#utility.yul\":8286:8292   */\n      dup3\n        /* \"#utility.yul\":8283:8297   */\n      lt\n        /* \"#utility.yul\":8263:8281   */\n      dup2\n        /* \"#utility.yul\":8260:8298   */\n      sub\n        /* \"#utility.yul\":8257:8341   */\n      tag_342\n      jumpi\n        /* \"#utility.yul\":8313:8331   */\n      tag_343\n      tag_244\n      jump\t// in\n    tag_343:\n        /* \"#utility.yul\":8257:8341   */\n    tag_342:\n        /* \"#utility.yul\":8078:8347   */\n      pop\n        /* \"#utility.yul\":8027:8347   */\n      swap2\n      swap1\n      pop\n      jump\t// out\n        /* \"#utility.yul\":8353:8471   */\n    tag_245:\n        /* \"#utility.yul\":8440:8464   */\n      tag_345\n        /* \"#utility.yul\":8458:8463   */\n      dup2\n        /* \"#utility.yul\":8440:8464   */\n      tag_231\n      jump\t// in\n    tag_345:\n        /* \"#utility.yul\":8435:8438   */\n      dup3\n        /* \"#utility.yul\":8428:8465   */\n      mstore\n        /* \"#utility.yul\":8353:8471   */\n      pop\n      pop\n      jump\t// out\n        /* \"#utility.yul\":8477:8919   */\n    tag_167:\n        /* \"#utility.yul\":8626:8630   */\n      0x00\n        /* \"#utility.yul\":8664:8666   */\n      0x60\n        /* \"#utility.yul\":8653:8662   */\n      dup3\n        /* \"#utility.yul\":8649:8667   */\n      add\n        /* \"#utility.yul\":8641:8667   */\n      swap1\n      pop\n        /* \"#utility.yul\":8677:8748   */\n      tag_347\n        /* \"#utility.yul\":8745:8746   */\n      0x00\n        /* \"#utility.yul\":8734:8743   */\n      dup4\n        /* \"#utility.yul\":8730:8747   */\n      add\n        /* \"#utility.yul\":8721:8727   */\n      dup7\n        /* \"#utility.yul\":8677:8748   */\n      tag_245\n      jump\t// in\n    tag_347:\n        /* \"#utility.yul\":8758:8830   */\n      tag_348\n        /* \"#utility.yul\":8826:8828   */\n      0x20\n        /* \"#utility.yul\":8815:8824   */\n      dup4\n        /* \"#utility.yul\":8811:8829   */\n      add\n        /* \"#utility.yul\":8802:8808   */\n      dup6\n        /* \"#utility.yul\":8758:8830   */\n      tag_237\n      jump\t// in\n    tag_348:\n        /* \"#utility.yul\":8840:8912   */\n      tag_349\n        /* \"#utility.yul\":8908:8910   */\n      0x40\n        /* \"#utility.yul\":8897:8906   */\n      dup4\n        /* \"#utility.yul\":8893:8911   */\n      add\n        /* \"#utility.yul\":8884:8890   */\n      dup5\n        /* \"#utility.yul\":8840:8912   */\n      tag_237\n      jump\t// in\n    tag_349:\n        /* \"#utility.yul\":8477:8919   */\n      swap5\n      swap4\n      pop\n      pop\n      pop\n      pop\n      jump\t// out\n        /* \"#utility.yul\":8925:9147   */\n    tag_172:\n        /* \"#utility.yul\":9018:9022   */\n      0x00\n        /* \"#utility.yul\":9056:9058   */\n      0x20\n        /* \"#utility.yul\":9045:9054   */\n      dup3\n        /* \"#utility.yul\":9041:9059   */\n      add\n        /* \"#utility.yul\":9033:9059   */\n      swap1\n      pop\n        /* \"#utility.yul\":9069:9140   */\n      tag_351\n        /* \"#utility.yul\":9137:9138   */\n      0x00\n        /* \"#utility.yul\":9126:9135   */\n      dup4\n        /* \"#utility.yul\":9122:9139   */\n      add\n        /* \"#utility.yul\":9113:9119   */\n      dup5\n        /* \"#utility.yul\":9069:9140   */\n      tag_245\n      jump\t// in\n    tag_351:\n        /* \"#utility.yul\":8925:9147   */\n      swap3\n      swap2\n      pop\n      pop\n      jump\t// out\n        /* \"#utility.yul\":9153:9333   */\n    tag_246:\n        /* \"#utility.yul\":9201:9278   */\n      0x4e487b7100000000000000000000000000000000000000000000000000000000\n        /* \"#utility.yul\":9198:9199   */\n      0x00\n        /* \"#utility.yul\":9191:9279   */\n      mstore\n        /* \"#utility.yul\":9298:9302   */\n      0x11\n        /* \"#utility.yul\":9295:9296   */\n      0x04\n        /* \"#utility.yul\":9288:9303   */\n      mstore\n        /* \"#utility.yul\":9322:9326   */\n      0x24\n        /* \"#utility.yul\":9319:9320   */\n      0x00\n        /* \"#utility.yul\":9312:9327   */\n      revert\n        /* \"#utility.yul\":9339:9530   */\n    tag_205:\n        /* \"#utility.yul\":9379:9382   */\n      0x00\n        /* \"#utility.yul\":9398:9418   */\n      tag_354\n        /* \"#utility.yul\":9416:9417   */\n      dup3\n        /* \"#utility.yul\":9398:9418   */\n      tag_234\n      jump\t// in\n    tag_354:\n        /* \"#utility.yul\":9393:9418   */\n      swap2\n      pop\n        /* \"#utility.yul\":9432:9452   */\n      tag_355\n        /* \"#utility.yul\":9450:9451   */\n      dup4\n        /* \"#utility.yul\":9432:9452   */\n      tag_234\n      jump\t// in\n    tag_355:\n        /* \"#utility.yul\":9427:9452   */\n      swap3\n      pop\n        /* \"#utility.yul\":9475:9476   */\n      dup3\n        /* \"#utility.yul\":9472:9473   */\n      dup3\n        /* \"#utility.yul\":9468:9477   */\n      add\n        /* \"#utility.yul\":9461:9477   */\n      swap1\n      pop\n        /* \"#utility.yul\":9496:9499   */\n      dup1\n        /* \"#utility.yul\":9493:9494   */\n      dup3\n        /* \"#utility.yul\":9490:9500   */\n      gt\n        /* \"#utility.yul\":9487:9523   */\n      iszero\n      tag_356\n      jumpi\n        /* \"#utility.yul\":9503:9521   */\n      tag_357\n      tag_246\n      jump\t// in\n    tag_357:\n        /* \"#utility.yul\":9487:9523   */\n    tag_356:\n        /* \"#utility.yul\":9339:9530   */\n      swap3\n      swap2\n      pop\n      pop\n      jump\t// out\n        /* \"#utility.yul\":9536:9868   */\n    tag_216:\n        /* \"#utility.yul\":9657:9661   */\n      0x00\n        /* \"#utility.yul\":9695:9697   */\n      0x40\n        /* \"#utility.yul\":9684:9693   */\n      dup3\n        /* \"#utility.yul\":9680:9698   */\n      add\n        /* \"#utility.yul\":9672:9698   */\n      swap1\n      pop\n        /* \"#utility.yul\":9708:9779   */\n      tag_359\n        /* \"#utility.yul\":9776:9777   */\n      0x00\n        /* \"#utility.yul\":9765:9774   */\n      dup4\n        /* \"#utility.yul\":9761:9778   */\n      add\n        /* \"#utility.yul\":9752:9758   */\n      dup6\n        /* \"#utility.yul\":9708:9779   */\n      tag_245\n      jump\t// in\n    tag_359:\n        /* \"#utility.yul\":9789:9861   */\n      tag_360\n        /* \"#utility.yul\":9857:9859   */\n      0x20\n        /* \"#utility.yul\":9846:9855   */\n      dup4\n        /* \"#utility.yul\":9842:9860   */\n      add\n        /* \"#utility.yul\":9833:9839   */\n      dup5\n        /* \"#utility.yul\":9789:9861   */\n      tag_241\n      jump\t// in\n    tag_360:\n        /* \"#utility.yul\":9536:9868   */\n      swap4\n      swap3\n      pop\n      pop\n      pop\n      jump\t// out\n\n    auxdata: 0xa2646970667358221220c9e91838cf2998dfcca9ac829be34be0ae3d93b7fcaab7f0d889206f4c1ba4f164736f6c634300081e0033\n}\n",
				"bytecode": {
					"linkReferences": {},
					"object": "608060405234801561000f575f5ffd5b506040518060400160405280600681526020017f5072616d616e00000000000000000000000000000000000000000000000000008152506040518060400160405280600381526020017f50524d0000000000000000000000000000000000000000000000000000000000815250816003908161008b9190610665565b50806004908161009b9190610665565b5050506100b05f5f1b3361011e60201b60201c565b506100e17f9f2df0fed2c77648de5860a4cc508cd0818c85b8b8a1ab4ceeef8d981c8956a63361011e60201b60201c565b50610119336100f461018260201b60201c565b600a610100919061089c565b620f424061010e91906108e6565b61018a60201b60201c565b610a0f565b5f60055f8481526020019081526020015f205f015f8373ffffffffffffffffffffffffffffffffffffffff1673ffffffffffffffffffffffffffffffffffffffff1681526020019081526020015f205f9054906101000a900460ff16905092915050565b5f6012905090565b5f73ffffffffffffffffffffffffffffffffffffffff168273ffffffffffffffffffffffffffffffffffffffff16036101fa575f6040517fec442f050000000000000000000000000000000000000000000000000000000081526004016101f19190610966565b60405180910390fd5b61020b5f838361020f60201b60201c565b5050565b5f73ffffffffffffffffffffffffffffffffffffffff168373ffffffffffffffffffffffffffffffffffffffff160361025f578060025f828254610253919061097f565b9250508190555061032d565b5f5f5f8573ffffffffffffffffffffffffffffffffffffffff1673ffffffffffffffffffffffffffffffffffffffff1681526020019081526020015f20549050818110156102e8578381836040517fe450d38c0000000000000000000000000000000000000000000000000000000081526004016102df939291906109c1565b60405180910390fd5b8181035f5f8673ffffffffffffffffffffffffffffffffffffffff1673ffffffffffffffffffffffffffffffffffffffff1681526020019081526020015f2081905550505b5f73ffffffffffffffffffffffffffffffffffffffff168273ffffffffffffffffffffffffffffffffffffffff1603610374578060025f82825403925050819055506103be565b805f5f8473ffffffffffffffffffffffffffffffffffffffff1673ffffffffffffffffffffffffffffffffffffffff1681526020019081526020015f205f82825401925050819055505b8173ffffffffffffffffffffffffffffffffffffffff168373ffffffffffffffffffffffffffffffffffffffff167fddf252ad1be2c89b69c2b068fc378daa952ba7f163c4a11628f55a4df523b3ef8360405161041b91906109f6565b60405180910390a3505050565b5f81519050919050565b7f4e487b71000000000000000000000000000000000000000000000000000000005f52604160045260245ffd5b7f4e487b71000000000000000000000000000000000000000000000000000000005f52602260045260245ffd5b5f60028204905060018216806104a357607f821691505b6020821081036104b6576104b561045f565b5b50919050565b5f819050815f5260205f209050919050565b5f6020601f8301049050919050565b5f82821b905092915050565b5f600883026105187fffffffffffffffffffffffffffffffffffffffffffffffffffffffffffffffff826104dd565b61052286836104dd565b95508019841693508086168417925050509392505050565b5f819050919050565b5f819050919050565b5f61056661056161055c8461053a565b610543565b61053a565b9050919050565b5f819050919050565b61057f8361054c565b61059361058b8261056d565b8484546104e9565b825550505050565b5f5f905090565b6105aa61059b565b6105b5818484610576565b505050565b5b818110156105d8576105cd5f826105a2565b6001810190506105bb565b5050565b601f82111561061d576105ee816104bc565b6105f7846104ce565b81016020851015610606578190505b61061a610612856104ce565b8301826105ba565b50505b505050565b5f82821c905092915050565b5f61063d5f1984600802610622565b1980831691505092915050565b5f610655838361062e565b9150826002028217905092915050565b61066e82610428565b67ffffffffffffffff81111561068757610686610432565b5b610691825461048c565b61069c8282856105dc565b5f60209050601f8311600181146106cd575f84156106bb578287015190505b6106c5858261064a565b86555061072c565b601f1984166106db866104bc565b5f5b82811015610702578489015182556001820191506020850194506020810190506106dd565b8683101561071f578489015161071b601f89168261062e565b8355505b6001600288020188555050505b505050505050565b7f4e487b71000000000000000000000000000000000000000000000000000000005f52601160045260245ffd5b5f8160011c9050919050565b5f5f8291508390505b60018511156107b65780860481111561079257610791610734565b5b60018516156107a15780820291505b80810290506107af85610761565b9450610776565b94509492505050565b5f826107ce5760019050610889565b816107db575f9050610889565b81600181146107f157600281146107fb5761082a565b6001915050610889565b60ff84111561080d5761080c610734565b5b8360020a91508482111561082457610823610734565b5b50610889565b5060208310610133831016604e8410600b841016171561085f5782820a90508381111561085a57610859610734565b5b610889565b61086c848484600161076d565b9250905081840481111561088357610882610734565b5b81810290505b9392505050565b5f60ff82169050919050565b5f6108a68261053a565b91506108b183610890565b92506108de7fffffffffffffffffffffffffffffffffffffffffffffffffffffffffffffffff84846107bf565b905092915050565b5f6108f08261053a565b91506108fb8361053a565b92508282026109098161053a565b915082820484148315176109205761091f610734565b5b5092915050565b5f73ffffffffffffffffffffffffffffffffffffffff82169050919050565b5f61095082610927565b9050919050565b61096081610946565b82525050565b5f6020820190506109795f830184610957565b92915050565b5f6109898261053a565b91506109948361053a565b92508282019050808211156109ac576109ab610734565b5b92915050565b6109bb8161053a565b82525050565b5f6060820190506109d45f830186610957565b6109e160208301856109b2565b6109ee60408301846109b2565b949350505050565b5f602082019050610a095f8301846109b2565b92915050565b61164980610a1c5f395ff3fe608060405234801561000f575f5ffd5b5060043610610114575f3560e01c806340c10f19116100a0578063a217fddf1161006f578063a217fddf14610304578063a9059cbb14610322578063d539139314610352578063d547741f14610370578063dd62ed3e1461038c57610114565b806340c10f191461026a57806370a082311461028657806391d14854146102b657806395d89b41146102e657610114565b806323b872dd116100e757806323b872dd146101b4578063248a9ca3146101e45780632f2ff15d14610214578063313ce5671461023057806336568abe1461024e57610114565b806301ffc9a71461011857806306fdde0314610148578063095ea7b31461016657806318160ddd14610196575b5f5ffd5b610132600480360381019061012d9190611140565b6103bc565b60405161013f9190611185565b60405180910390f35b610150610435565b60405161015d919061120e565b60405180910390f35b610180600480360381019061017b91906112bb565b6104c5565b60405161018d9190611185565b60405180910390f35b61019e6104e7565b6040516101ab9190611308565b60405180910390f35b6101ce60048036038101906101c99190611321565b6104f0565b6040516101db9190611185565b60405180910390f35b6101fe60048036038101906101f991906113a4565b61051e565b60405161020b91906113de565b60405180910390f35b61022e600480360381019061022991906113f7565b61053b565b005b61023861055d565b6040516102459190611450565b60405180910390f35b610268600480360381019061026391906113f7565b610565565b005b610284600480360381019061027f91906112bb565b6105e0565b005b6102a0600480360381019061029b9190611469565b610619565b6040516102ad9190611308565b60405180910390f35b6102d060048036038101906102cb91906113f7565b61065e565b6040516102dd9190611185565b60405180910390f35b6102ee6106c2565b6040516102fb919061120e565b60405180910390f35b61030c610752565b60405161031991906113de565b60405180910390f35b61033c600480360381019061033791906112bb565b610758565b6040516103499190611185565b60405180910390f35b61035a61077a565b60405161036791906113de565b60405180910390f35b61038a600480360381019061038591906113f7565b61079e565b005b6103a660048036038101906103a19190611494565b6107c0565b6040516103b39190611308565b60405180910390f35b5f7f7965db0b000000000000000000000000000000000000000000000000000000007bffffffffffffffffffffffffffffffffffffffffffffffffffffffff1916827bffffffffffffffffffffffffffffffffffffffffffffffffffffffff1916148061042e575061042d82610842565b5b9050919050565b606060038054610444906114ff565b80601f0160208091040260200160405190810160405280929190818152602001828054610470906114ff565b80156104bb5780601f10610492576101008083540402835291602001916104bb565b820191905f5260205f20905b81548152906001019060200180831161049e57829003601f168201915b5050505050905090565b5f5f6104cf6108ab565b90506104dc8185856108b2565b600191505092915050565b5f600254905090565b5f5f6104fa6108ab565b90506105078582856108c4565b610512858585610957565b60019150509392505050565b5f60055f8381526020019081526020015f20600101549050919050565b6105448261051e565b61054d81610a47565b6105578383610a5b565b50505050565b5f6012905090565b61056d6108ab565b73ffffffffffffffffffffffffffffffffffffffff168173ffffffffffffffffffffffffffffffffffffffff16146105d1576040517f6697b23200000000000000000000000000000000000000000000000000000000815260040160405180910390fd5b6105db8282610b45565b505050565b7f9f2df0fed2c77648de5860a4cc508cd0818c85b8b8a1ab4ceeef8d981c8956a661060a81610a47565b6106148383610c2f565b505050565b5f5f5f8373ffffffffffffffffffffffffffffffffffffffff1673ffffffffffffffffffffffffffffffffffffffff1681526020019081526020015f20549050919050565b5f60055f8481526020019081526020015f205f015f8373ffffffffffffffffffffffffffffffffffffffff1673ffffffffffffffffffffffffffffffffffffffff1681526020019081526020015f205f9054906101000a900460ff16905092915050565b6060600480546106d1906114ff565b80601f01602080910402602001604051908101604052809291908181526020018280546106fd906114ff565b80156107485780601f1061071f57610100808354040283529160200191610748565b820191905f5260205f20905b81548152906001019060200180831161072b57829003601f168201915b5050505050905090565b5f5f1b81565b5f5f6107626108ab565b905061076f818585610957565b600191505092915050565b7f9f2df0fed2c77648de5860a4cc508cd0818c85b8b8a1ab4ceeef8d981c8956a681565b6107a78261051e565b6107b081610a47565b6107ba8383610b45565b50505050565b5f60015f8473ffffffffffffffffffffffffffffffffffffffff1673ffffffffffffffffffffffffffffffffffffffff1681526020019081526020015f205f8373ffffffffffffffffffffffffffffffffffffffff1673ffffffffffffffffffffffffffffffffffffffff1681526020019081526020015f2054905092915050565b5f7f01ffc9a7000000000000000000000000000000000000000000000000000000007bffffffffffffffffffffffffffffffffffffffffffffffffffffffff1916827bffffffffffffffffffffffffffffffffffffffffffffffffffffffff1916149050919050565b5f33905090565b6108bf8383836001610cae565b505050565b5f6108cf84846107c0565b90507fffffffffffffffffffffffffffffffffffffffffffffffffffffffffffffffff8110156109515781811015610942578281836040517ffb8f41b20000000000000000000000000000000000000000000000000000000081526004016109399392919061153e565b60405180910390fd5b61095084848484035f610cae565b5b50505050565b5f73ffffffffffffffffffffffffffffffffffffffff168373ffffffffffffffffffffffffffffffffffffffff16036109c7575f6040517f96c6fd1e0000000000000000000000000000000000000000000000000000000081526004016109be9190611573565b60405180910390fd5b5f73ffffffffffffffffffffffffffffffffffffffff168273ffffffffffffffffffffffffffffffffffffffff1603610a37575f6040517fec442f05000000000000000000000000000000000000000000000000000000008152600401610a2e9190611573565b60405180910390fd5b610a42838383610e7d565b505050565b610a5881610a536108ab565b611096565b50565b5f610a66838361065e565b610b3b57600160055f8581526020019081526020015f205f015f8473ffffffffffffffffffffffffffffffffffffffff1673ffffffffffffffffffffffffffffffffffffffff1681526020019081526020015f205f6101000a81548160ff021916908315150217905550610ad86108ab565b73ffffffffffffffffffffffffffffffffffffffff168273ffffffffffffffffffffffffffffffffffffffff16847f2f8788117e7eff1d82e926ec794901d17c78024a50270940304540a733656f0d60405160405180910390a460019050610b3f565b5f90505b92915050565b5f610b50838361065e565b15610c25575f60055f8581526020019081526020015f205f015f8473ffffffffffffffffffffffffffffffffffffffff1673ffffffffffffffffffffffffffffffffffffffff1681526020019081526020015f205f6101000a81548160ff021916908315150217905550610bc26108ab565b73ffffffffffffffffffffffffffffffffffffffff168273ffffffffffffffffffffffffffffffffffffffff16847ff6391f5c32d9c69d2a47ea670b442974b53935d1edc7fd64eb21e047a839171b60405160405180910390a460019050610c29565b5f90505b92915050565b5f73ffffffffffffffffffffffffffffffffffffffff168273ffffffffffffffffffffffffffffffffffffffff1603610c9f575f6040517fec442f05000000000000000000000000000000000000000000000000000000008152600401610c969190611573565b60405180910390fd5b610caa5f8383610e7d565b5050565b5f73ffffffffffffffffffffffffffffffffffffffff168473ffffffffffffffffffffffffffffffffffffffff1603610d1e575f6040517fe602df05000000000000000000000000000000000000000000000000000000008152600401610d159190611573565b60405180910390fd5b5f73ffffffffffffffffffffffffffffffffffffffff168373ffffffffffffffffffffffffffffffffffffffff1603610d8e575f6040517f94280d62000000000000000000000000000000000000000000000000000000008152600401610d859190611573565b60405180910390fd5b8160015f8673ffffffffffffffffffffffffffffffffffffffff1673ffffffffffffffffffffffffffffffffffffffff1681526020019081526020015f205f8573ffffffffffffffffffffffffffffffffffffffff1673ffffffffffffffffffffffffffffffffffffffff1681526020019081526020015f20819055508015610e77578273ffffffffffffffffffffffffffffffffffffffff168473ffffffffffffffffffffffffffffffffffffffff167f8c5be1e5ebec7d5bd14f71427d1e84f3dd0314c0f7b2291e5b200ac8c7c3b92584604051610e6e9190611308565b60405180910390a35b50505050565b5f73ffffffffffffffffffffffffffffffffffffffff168373ffffffffffffffffffffffffffffffffffffffff1603610ecd578060025f828254610ec191906115b9565b92505081905550610f9b565b5f5f5f8573ffffffffffffffffffffffffffffffffffffffff1673ffffffffffffffffffffffffffffffffffffffff1681526020019081526020015f2054905081811015610f56578381836040517fe450d38c000000000000000000000000000000000000000000000000000000008152600401610f4d9392919061153e565b60405180910390fd5b8181035f5f8673ffffffffffffffffffffffffffffffffffffffff1673ffffffffffffffffffffffffffffffffffffffff1681526020019081526020015f2081905550505b5f73ffffffffffffffffffffffffffffffffffffffff168273ffffffffffffffffffffffffffffffffffffffff1603610fe2578060025f828254039250508190555061102c565b805f5f8473ffffffffffffffffffffffffffffffffffffffff1673ffffffffffffffffffffffffffffffffffffffff1681526020019081526020015f205f82825401925050819055505b8173ffffffffffffffffffffffffffffffffffffffff168373ffffffffffffffffffffffffffffffffffffffff167fddf252ad1be2c89b69c2b068fc378daa952ba7f163c4a11628f55a4df523b3ef836040516110899190611308565b60405180910390a3505050565b6110a0828261065e565b6110e35780826040517fe2517d3f0000000000000000000000000000000000000000000000000000000081526004016110da9291906115ec565b60405180910390fd5b5050565b5f5ffd5b5f7fffffffff0000000000000000000000000000000000000000000000000000000082169050919050565b61111f816110eb565b8114611129575f5ffd5b50565b5f8135905061113a81611116565b92915050565b5f60208284031215611155576111546110e7565b5b5f6111628482850161112c565b91505092915050565b5f8115159050919050565b61117f8161116b565b82525050565b5f6020820190506111985f830184611176565b92915050565b5f81519050919050565b5f82825260208201905092915050565b8281835e5f83830152505050565b5f601f19601f8301169050919050565b5f6111e08261119e565b6111ea81856111a8565b93506111fa8185602086016111b8565b611203816111c6565b840191505092915050565b5f6020820190508181035f83015261122681846111d6565b905092915050565b5f73ffffffffffffffffffffffffffffffffffffffff82169050919050565b5f6112578261122e565b9050919050565b6112678161124d565b8114611271575f5ffd5b50565b5f813590506112828161125e565b92915050565b5f819050919050565b61129a81611288565b81146112a4575f5ffd5b50565b5f813590506112b581611291565b92915050565b5f5f604083850312156112d1576112d06110e7565b5b5f6112de85828601611274565b92505060206112ef858286016112a7565b9150509250929050565b61130281611288565b82525050565b5f60208201905061131b5f8301846112f9565b92915050565b5f5f5f60608486031215611338576113376110e7565b5b5f61134586828701611274565b935050602061135686828701611274565b9250506040611367868287016112a7565b9150509250925092565b5f819050919050565b61138381611371565b811461138d575f5ffd5b50565b5f8135905061139e8161137a565b92915050565b5f602082840312156113b9576113b86110e7565b5b5f6113c684828501611390565b91505092915050565b6113d881611371565b82525050565b5f6020820190506113f15f8301846113cf565b92915050565b5f5f6040838503121561140d5761140c6110e7565b5b5f61141a85828601611390565b925050602061142b85828601611274565b9150509250929050565b5f60ff82169050919050565b61144a81611435565b82525050565b5f6020820190506114635f830184611441565b92915050565b5f6020828403121561147e5761147d6110e7565b5b5f61148b84828501611274565b91505092915050565b5f5f604083850312156114aa576114a96110e7565b5b5f6114b785828601611274565b92505060206114c885828601611274565b9150509250929050565b7f4e487b71000000000000000000000000000000000000000000000000000000005f52602260045260245ffd5b5f600282049050600182168061151657607f821691505b602082108103611529576115286114d2565b5b50919050565b6115388161124d565b82525050565b5f6060820190506115515f83018661152f565b61155e60208301856112f9565b61156b60408301846112f9565b949350505050565b5f6020820190506115865f83018461152f565b92915050565b7f4e487b71000000000000000000000000000000000000000000000000000000005f52601160045260245ffd5b5f6115c382611288565b91506115ce83611288565b92508282019050808211156115e6576115e561158c565b5b92915050565b5f6040820190506115ff5f83018561152f565b61160c60208301846113cf565b939250505056fea2646970667358221220c9e91838cf2998dfcca9ac829be34be0ae3d93b7fcaab7f0d889206f4c1ba4f164736f6c634300081e0033",
					"opcodes": "PUSH1 0x80 PUSH1 0x40 MSTORE CALLVALUE DUP1 ISZERO PUSH2 0xF JUMPI PUSH0 PUSH0 REVERT JUMPDEST POP PUSH1 0x40 MLOAD DUP1 PUSH1 0x40 ADD PUSH1 0x40 MSTORE DUP1 PUSH1 0x6 DUP2 MSTORE PUSH1 0x20 ADD PUSH32 0x5072616D616E0000000000000000000000000000000000000000000000000000 DUP2 MSTORE POP PUSH1 0x40 MLOAD DUP1 PUSH1 0x40 ADD PUSH1 0x40 MSTORE DUP1 PUSH1 0x3 DUP2 MSTORE PUSH1 0x20 ADD PUSH32 0x50524D0000000000000000000000000000000000000000000000000000000000 DUP2 MSTORE POP DUP2 PUSH1 0x3 SWAP1 DUP2 PUSH2 0x8B SWAP2 SWAP1 PUSH2 0x665 JUMP JUMPDEST POP DUP1 PUSH1 0x4 SWAP1 DUP2 PUSH2 0x9B SWAP2 SWAP1 PUSH2 0x665 JUMP JUMPDEST POP POP POP PUSH2 0xB0 PUSH0 PUSH0 SHL CALLER PUSH2 0x11E PUSH1 0x20 SHL PUSH1 0x20 SHR JUMP JUMPDEST POP PUSH2 0xE1 PUSH32 0x9F2DF0FED2C77648DE5860A4CC508CD0818C85B8B8A1AB4CEEEF8D981C8956A6 CALLER PUSH2 0x11E PUSH1 0x20 SHL PUSH1 0x20 SHR JUMP JUMPDEST POP PUSH2 0x119 CALLER PUSH2 0xF4 PUSH2 0x182 PUSH1 0x20 SHL PUSH1 0x20 SHR JUMP JUMPDEST PUSH1 0xA PUSH2 0x100 SWAP2 SWAP1 PUSH2 0x89C JUMP JUMPDEST PUSH3 0xF4240 PUSH2 0x10E SWAP2 SWAP1 PUSH2 0x8E6 JUMP JUMPDEST PUSH2 0x18A PUSH1 0x20 SHL PUSH1 0x20 SHR JUMP JUMPDEST PUSH2 0xA0F JUMP JUMPDEST PUSH0 PUSH1 0x5 PUSH0 DUP5 DUP2 MSTORE PUSH1 0x20 ADD SWAP1 DUP2 MSTORE PUSH1 0x20 ADD PUSH0 KECCAK256 PUSH0 ADD PUSH0 DUP4 PUSH20 0xFFFFFFFFFFFFFFFFFFFFFFFFFFFFFFFFFFFFFFFF AND PUSH20 0xFFFFFFFFFFFFFFFFFFFFFFFFFFFFFFFFFFFFFFFF AND DUP2 MSTORE PUSH1 0x20 ADD SWAP1 DUP2 MSTORE PUSH1 0x20 ADD PUSH0 KECCAK256 PUSH0 SWAP1 SLOAD SWAP1 PUSH2 0x100 EXP SWAP1 DIV PUSH1 0xFF AND SWAP1 POP SWAP3 SWAP2 POP POP JUMP JUMPDEST PUSH0 PUSH1 0x12 SWAP1 POP SWAP1 JUMP JUMPDEST PUSH0 PUSH20 0xFFFFFFFFFFFFFFFFFFFFFFFFFFFFFFFFFFFFFFFF AND DUP3 PUSH20 0xFFFFFFFFFFFFFFFFFFFFFFFFFFFFFFFFFFFFFFFF AND SUB PUSH2 0x1FA JUMPI PUSH0 PUSH1 0x40 MLOAD PUSH32 0xEC442F0500000000000000000000000000000000000000000000000000000000 DUP2 MSTORE PUSH1 0x4 ADD PUSH2 0x1F1 SWAP2 SWAP1 PUSH2 0x966 JUMP JUMPDEST PUSH1 0x40 MLOAD DUP1 SWAP2 SUB SWAP1 REVERT JUMPDEST PUSH2 0x20B PUSH0 DUP4 DUP4 PUSH2 0x20F PUSH1 0x20 SHL PUSH1 0x20 SHR JUMP JUMPDEST POP POP JUMP JUMPDEST PUSH0 PUSH20 0xFFFFFFFFFFFFFFFFFFFFFFFFFFFFFFFFFFFFFFFF AND DUP4 PUSH20 0xFFFFFFFFFFFFFFFFFFFFFFFFFFFFFFFFFFFFFFFF AND SUB PUSH2 0x25F JUMPI DUP1 PUSH1 0x2 PUSH0 DUP3 DUP3 SLOAD PUSH2 0x253 SWAP2 SWAP1 PUSH2 0x97F JUMP JUMPDEST SWAP3 POP POP DUP2 SWAP1 SSTORE POP PUSH2 0x32D JUMP JUMPDEST PUSH0 PUSH0 PUSH0 DUP6 PUSH20 0xFFFFFFFFFFFFFFFFFFFFFFFFFFFFFFFFFFFFFFFF AND PUSH20 0xFFFFFFFFFFFFFFFFFFFFFFFFFFFFFFFFFFFFFFFF AND DUP2 MSTORE PUSH1 0x20 ADD SWAP1 DUP2 MSTORE PUSH1 0x20 ADD PUSH0 KECCAK256 SLOAD SWAP1 POP DUP2 DUP2 LT ISZERO PUSH2 0x2E8 JUMPI DUP4 DUP2 DUP4 PUSH1 0x40 MLOAD PUSH32 0xE450D38C00000000000000000000000000000000000000000000000000000000 DUP2 MSTORE PUSH1 0x4 ADD PUSH2 0x2DF SWAP4 SWAP3 SWAP2 SWAP1 PUSH2 0x9C1 JUMP JUMPDEST PUSH1 0x40 MLOAD DUP1 SWAP2 SUB SWAP1 REVERT JUMPDEST DUP2 DUP2 SUB PUSH0 PUSH0 DUP7 PUSH20 0xFFFFFFFFFFFFFFFFFFFFFFFFFFFFFFFFFFFFFFFF AND PUSH20 0xFFFFFFFFFFFFFFFFFFFFFFFFFFFFFFFFFFFFFFFF AND DUP2 MSTORE PUSH1 0x20 ADD SWAP1 DUP2 MSTORE PUSH1 0x20 ADD PUSH0 KECCAK256 DUP2 SWAP1 SSTORE POP POP JUMPDEST PUSH0 PUSH20 0xFFFFFFFFFFFFFFFFFFFFFFFFFFFFFFFFFFFFFFFF AND DUP3 PUSH20 0xFFFFFFFFFFFFFFFFFFFFFFFFFFFFFFFFFFFFFFFF AND SUB PUSH2 0x374 JUMPI DUP1 PUSH1 0x2 PUSH0 DUP3 DUP3 SLOAD SUB SWAP3 POP POP DUP2 SWAP1 SSTORE POP PUSH2 0x3BE JUMP JUMPDEST DUP1 PUSH0 PUSH0 DUP5 PUSH20 0xFFFFFFFFFFFFFFFFFFFFFFFFFFFFFFFFFFFFFFFF AND PUSH20 0xFFFFFFFFFFFFFFFFFFFFFFFFFFFFFFFFFFFFFFFF AND DUP2 MSTORE PUSH1 0x20 ADD SWAP1 DUP2 MSTORE PUSH1 0x20 ADD PUSH0 KECCAK256 PUSH0 DUP3 DUP3 SLOAD ADD SWAP3 POP POP DUP2 SWAP1 SSTORE POP JUMPDEST DUP2 PUSH20 0xFFFFFFFFFFFFFFFFFFFFFFFFFFFFFFFFFFFFFFFF AND DUP4 PUSH20 0xFFFFFFFFFFFFFFFFFFFFFFFFFFFFFFFFFFFFFFFF AND PUSH32 0xDDF252AD1BE2C89B69C2B068FC378DAA952BA7F163C4A11628F55A4DF523B3EF DUP4 PUSH1 0x40 MLOAD PUSH2 0x41B SWAP2 SWAP1 PUSH2 0x9F6 JUMP JUMPDEST PUSH1 0x40 MLOAD DUP1 SWAP2 SUB SWAP1 LOG3 POP POP POP JUMP JUMPDEST PUSH0 DUP2 MLOAD SWAP1 POP SWAP2 SWAP1 POP JUMP JUMPDEST PUSH32 0x4E487B7100000000000000000000000000000000000000000000000000000000 PUSH0 MSTORE PUSH1 0x41 PUSH1 0x4 MSTORE PUSH1 0x24 PUSH0 REVERT JUMPDEST PUSH32 0x4E487B7100000000000000000000000000000000000000000000000000000000 PUSH0 MSTORE PUSH1 0x22 PUSH1 0x4 MSTORE PUSH1 0x24 PUSH0 REVERT JUMPDEST PUSH0 PUSH1 0x2 DUP3 DIV SWAP1 POP PUSH1 0x1 DUP3 AND DUP1 PUSH2 0x4A3 JUMPI PUSH1 0x7F DUP3 AND SWAP2 POP JUMPDEST PUSH1 0x20 DUP3 LT DUP2 SUB PUSH2 0x4B6 JUMPI PUSH2 0x4B5 PUSH2 0x45F JUMP JUMPDEST JUMPDEST POP SWAP2 SWAP1 POP JUMP JUMPDEST PUSH0 DUP2 SWAP1 POP DUP2 PUSH0 MSTORE PUSH1 0x20 PUSH0 KECCAK256 SWAP1 POP SWAP2 SWAP1 POP JUMP JUMPDEST PUSH0 PUSH1 0x20 PUSH1 0x1F DUP4 ADD DIV SWAP1 POP SWAP2 SWAP1 POP JUMP JUMPDEST PUSH0 DUP3 DUP3 SHL SWAP1 POP SWAP3 SWAP2 POP POP JUMP JUMPDEST PUSH0 PUSH1 0x8 DUP4 MUL PUSH2 0x518 PUSH32 0xFFFFFFFFFFFFFFFFFFFFFFFFFFFFFFFFFFFFFFFFFFFFFFFFFFFFFFFFFFFFFFFF DUP3 PUSH2 0x4DD JUMP JUMPDEST PUSH2 0x522 DUP7 DUP4 PUSH2 0x4DD JUMP JUMPDEST SWAP6 POP DUP1 NOT DUP5 AND SWAP4 POP DUP1 DUP7 AND DUP5 OR SWAP3 POP POP POP SWAP4 SWAP3 POP POP POP JUMP JUMPDEST PUSH0 DUP2 SWAP1 POP SWAP2 SWAP1 POP JUMP JUMPDEST PUSH0 DUP2 SWAP1 POP SWAP2 SWAP1 POP JUMP JUMPDEST PUSH0 PUSH2 0x566 PUSH2 0x561 PUSH2 0x55C DUP5 PUSH2 0x53A JUMP JUMPDEST PUSH2 0x543 JUMP JUMPDEST PUSH2 0x53A JUMP JUMPDEST SWAP1 POP SWAP2 SWAP1 POP JUMP JUMPDEST PUSH0 DUP2 SWAP1 POP SWAP2 SWAP1 POP JUMP JUMPDEST PUSH2 0x57F DUP4 PUSH2 0x54C JUMP JUMPDEST PUSH2 0x593 PUSH2 0x58B DUP3 PUSH2 0x56D JUMP JUMPDEST DUP5 DUP5 SLOAD PUSH2 0x4E9 JUMP JUMPDEST DUP3 SSTORE POP POP POP POP JUMP JUMPDEST PUSH0 PUSH0 SWAP1 POP SWAP1 JUMP JUMPDEST PUSH2 0x5AA PUSH2 0x59B JUMP JUMPDEST PUSH2 0x5B5 DUP2 DUP5 DUP5 PUSH2 0x576 JUMP JUMPDEST POP POP POP JUMP JUMPDEST JUMPDEST DUP2 DUP2 LT ISZERO PUSH2 0x5D8 JUMPI PUSH2 0x5CD PUSH0 DUP3 PUSH2 0x5A2 JUMP JUMPDEST PUSH1 0x1 DUP2 ADD SWAP1 POP PUSH2 0x5BB JUMP JUMPDEST POP POP JUMP JUMPDEST PUSH1 0x1F DUP3 GT ISZERO PUSH2 0x61D JUMPI PUSH2 0x5EE DUP2 PUSH2 0x4BC JUMP JUMPDEST PUSH2 0x5F7 DUP5 PUSH2 0x4CE JUMP JUMPDEST DUP2 ADD PUSH1 0x20 DUP6 LT ISZERO PUSH2 0x606 JUMPI DUP2 SWAP1 POP JUMPDEST PUSH2 0x61A PUSH2 0x612 DUP6 PUSH2 0x4CE JUMP JUMPDEST DUP4 ADD DUP3 PUSH2 0x5BA JUMP JUMPDEST POP POP JUMPDEST POP POP POP JUMP JUMPDEST PUSH0 DUP3 DUP3 SHR SWAP1 POP SWAP3 SWAP2 POP POP JUMP JUMPDEST PUSH0 PUSH2 0x63D PUSH0 NOT DUP5 PUSH1 0x8 MUL PUSH2 0x622 JUMP JUMPDEST NOT DUP1 DUP4 AND SWAP2 POP POP SWAP3 SWAP2 POP POP JUMP JUMPDEST PUSH0 PUSH2 0x655 DUP4 DUP4 PUSH2 0x62E JUMP JUMPDEST SWAP2 POP DUP3 PUSH1 0x2 MUL DUP3 OR SWAP1 POP SWAP3 SWAP2 POP POP JUMP JUMPDEST PUSH2 0x66E DUP3 PUSH2 0x428 JUMP JUMPDEST PUSH8 0xFFFFFFFFFFFFFFFF DUP2 GT ISZERO PUSH2 0x687 JUMPI PUSH2 0x686 PUSH2 0x432 JUMP JUMPDEST JUMPDEST PUSH2 0x691 DUP3 SLOAD PUSH2 0x48C JUMP JUMPDEST PUSH2 0x69C DUP3 DUP3 DUP6 PUSH2 0x5DC JUMP JUMPDEST PUSH0 PUSH1 0x20 SWAP1 POP PUSH1 0x1F DUP4 GT PUSH1 0x1 DUP2 EQ PUSH2 0x6CD JUMPI PUSH0 DUP5 ISZERO PUSH2 0x6BB JUMPI DUP3 DUP8 ADD MLOAD SWAP1 POP JUMPDEST PUSH2 0x6C5 DUP6 DUP3 PUSH2 0x64A JUMP JUMPDEST DUP7 SSTORE POP PUSH2 0x72C JUMP JUMPDEST PUSH1 0x1F NOT DUP5 AND PUSH2 0x6DB DUP7 PUSH2 0x4BC JUMP JUMPDEST PUSH0 JUMPDEST DUP3 DUP2 LT ISZERO PUSH2 0x702 JUMPI DUP5 DUP10 ADD MLOAD DUP3 SSTORE PUSH1 0x1 DUP3 ADD SWAP2 POP PUSH1 0x20 DUP6 ADD SWAP5 POP PUSH1 0x20 DUP2 ADD SWAP1 POP PUSH2 0x6DD JUMP JUMPDEST DUP7 DUP4 LT ISZERO PUSH2 0x71F JUMPI DUP5 DUP10 ADD MLOAD PUSH2 0x71B PUSH1 0x1F DUP10 AND DUP3 PUSH2 0x62E JUMP JUMPDEST DUP4 SSTORE POP JUMPDEST PUSH1 0x1 PUSH1 0x2 DUP9 MUL ADD DUP9 SSTORE POP POP POP JUMPDEST POP POP POP POP POP POP JUMP JUMPDEST PUSH32 0x4E487B7100000000000000000000000000000000000000000000000000000000 PUSH0 MSTORE PUSH1 0x11 PUSH1 0x4 MSTORE PUSH1 0x24 PUSH0 REVERT JUMPDEST PUSH0 DUP2 PUSH1 0x1 SHR SWAP1 POP SWAP2 SWAP1 POP JUMP JUMPDEST PUSH0 PUSH0 DUP3 SWAP2 POP DUP4 SWAP1 POP JUMPDEST PUSH1 0x1 DUP6 GT ISZERO PUSH2 0x7B6 JUMPI DUP1 DUP7 DIV DUP2 GT ISZERO PUSH2 0x792 JUMPI PUSH2 0x791 PUSH2 0x734 JUMP JUMPDEST JUMPDEST PUSH1 0x1 DUP6 AND ISZERO PUSH2 0x7A1 JUMPI DUP1 DUP3 MUL SWAP2 POP JUMPDEST DUP1 DUP2 MUL SWAP1 POP PUSH2 0x7AF DUP6 PUSH2 0x761 JUMP JUMPDEST SWAP5 POP PUSH2 0x776 JUMP JUMPDEST SWAP5 POP SWAP5 SWAP3 POP POP POP JUMP JUMPDEST PUSH0 DUP3 PUSH2 0x7CE JUMPI PUSH1 0x1 SWAP1 POP PUSH2 0x889 JUMP JUMPDEST DUP2 PUSH2 0x7DB JUMPI PUSH0 SWAP1 POP PUSH2 0x889 JUMP JUMPDEST DUP2 PUSH1 0x1 DUP2 EQ PUSH2 0x7F1 JUMPI PUSH1 0x2 DUP2 EQ PUSH2 0x7FB JUMPI PUSH2 0x82A JUMP JUMPDEST PUSH1 0x1 SWAP2 POP POP PUSH2 0x889 JUMP JUMPDEST PUSH1 0xFF DUP5 GT ISZERO PUSH2 0x80D JUMPI PUSH2 0x80C PUSH2 0x734 JUMP JUMPDEST JUMPDEST DUP4 PUSH1 0x2 EXP SWAP2 POP DUP5 DUP3 GT ISZERO PUSH2 0x824 JUMPI PUSH2 0x823 PUSH2 0x734 JUMP JUMPDEST JUMPDEST POP PUSH2 0x889 JUMP JUMPDEST POP PUSH1 0x20 DUP4 LT PUSH2 0x133 DUP4 LT AND PUSH1 0x4E DUP5 LT PUSH1 0xB DUP5 LT AND OR ISZERO PUSH2 0x85F JUMPI DUP3 DUP3 EXP SWAP1 POP DUP4 DUP2 GT ISZERO PUSH2 0x85A JUMPI PUSH2 0x859 PUSH2 0x734 JUMP JUMPDEST JUMPDEST PUSH2 0x889 JUMP JUMPDEST PUSH2 0x86C DUP5 DUP5 DUP5 PUSH1 0x1 PUSH2 0x76D JUMP JUMPDEST SWAP3 POP SWAP1 POP DUP2 DUP5 DIV DUP2 GT ISZERO PUSH2 0x883 JUMPI PUSH2 0x882 PUSH2 0x734 JUMP JUMPDEST JUMPDEST DUP2 DUP2 MUL SWAP1 POP JUMPDEST SWAP4 SWAP3 POP POP POP JUMP JUMPDEST PUSH0 PUSH1 0xFF DUP3 AND SWAP1 POP SWAP2 SWAP1 POP JUMP JUMPDEST PUSH0 PUSH2 0x8A6 DUP3 PUSH2 0x53A JUMP JUMPDEST SWAP2 POP PUSH2 0x8B1 DUP4 PUSH2 0x890 JUMP JUMPDEST SWAP3 POP PUSH2 0x8DE PUSH32 0xFFFFFFFFFFFFFFFFFFFFFFFFFFFFFFFFFFFFFFFFFFFFFFFFFFFFFFFFFFFFFFFF DUP5 DUP5 PUSH2 0x7BF JUMP JUMPDEST SWAP1 POP SWAP3 SWAP2 POP POP JUMP JUMPDEST PUSH0 PUSH2 0x8F0 DUP3 PUSH2 0x53A JUMP JUMPDEST SWAP2 POP PUSH2 0x8FB DUP4 PUSH2 0x53A JUMP JUMPDEST SWAP3 POP DUP3 DUP3 MUL PUSH2 0x909 DUP2 PUSH2 0x53A JUMP JUMPDEST SWAP2 POP DUP3 DUP3 DIV DUP5 EQ DUP4 ISZERO OR PUSH2 0x920 JUMPI PUSH2 0x91F PUSH2 0x734 JUMP JUMPDEST JUMPDEST POP SWAP3 SWAP2 POP POP JUMP JUMPDEST PUSH0 PUSH20 0xFFFFFFFFFFFFFFFFFFFFFFFFFFFFFFFFFFFFFFFF DUP3 AND SWAP1 POP SWAP2 SWAP1 POP JUMP JUMPDEST PUSH0 PUSH2 0x950 DUP3 PUSH2 0x927 JUMP JUMPDEST SWAP1 POP SWAP2 SWAP1 POP JUMP JUMPDEST PUSH2 0x960 DUP2 PUSH2 0x946 JUMP JUMPDEST DUP3 MSTORE POP POP JUMP JUMPDEST PUSH0 PUSH1 0x20 DUP3 ADD SWAP1 POP PUSH2 0x979 PUSH0 DUP4 ADD DUP5 PUSH2 0x957 JUMP JUMPDEST SWAP3 SWAP2 POP POP JUMP JUMPDEST PUSH0 PUSH2 0x989 DUP3 PUSH2 0x53A JUMP JUMPDEST SWAP2 POP PUSH2 0x994 DUP4 PUSH2 0x53A JUMP JUMPDEST SWAP3 POP DUP3 DUP3 ADD SWAP1 POP DUP1 DUP3 GT ISZERO PUSH2 0x9AC JUMPI PUSH2 0x9AB PUSH2 0x734 JUMP JUMPDEST JUMPDEST SWAP3 SWAP2 POP POP JUMP JUMPDEST PUSH2 0x9BB DUP2 PUSH2 0x53A JUMP JUMPDEST DUP3 MSTORE POP POP JUMP JUMPDEST PUSH0 PUSH1 0x60 DUP3 ADD SWAP1 POP PUSH2 0x9D4 PUSH0 DUP4 ADD DUP7 PUSH2 0x957 JUMP JUMPDEST PUSH2 0x9E1 PUSH1 0x20 DUP4 ADD DUP6 PUSH2 0x9B2 JUMP JUMPDEST PUSH2 0x9EE PUSH1 0x40 DUP4 ADD DUP5 PUSH2 0x9B2 JUMP JUMPDEST SWAP5 SWAP4 POP POP POP POP JUMP JUMPDEST PUSH0 PUSH1 0x20 DUP3 ADD SWAP1 POP PUSH2 0xA09 PUSH0 DUP4 ADD DUP5 PUSH2 0x9B2 JUMP JUMPDEST SWAP3 SWAP2 POP POP JUMP JUMPDEST PUSH2 0x1649 DUP1 PUSH2 0xA1C PUSH0 CODECOPY PUSH0 RETURN INVALID PUSH1 0x80 PUSH1 0x40 MSTORE CALLVALUE DUP1 ISZERO PUSH2 0xF JUMPI PUSH0 PUSH0 REVERT JUMPDEST POP PUSH1 0x4 CALLDATASIZE LT PUSH2 0x114 JUMPI PUSH0 CALLDATALOAD PUSH1 0xE0 SHR DUP1 PUSH4 0x40C10F19 GT PUSH2 0xA0 JUMPI DUP1 PUSH4 0xA217FDDF GT PUSH2 0x6F JUMPI DUP1 PUSH4 0xA217FDDF EQ PUSH2 0x304 JUMPI DUP1 PUSH4 0xA9059CBB EQ PUSH2 0x322 JUMPI DUP1 PUSH4 0xD5391393 EQ PUSH2 0x352 JUMPI DUP1 PUSH4 0xD547741F EQ PUSH2 0x370 JUMPI DUP1 PUSH4 0xDD62ED3E EQ PUSH2 0x38C JUMPI PUSH2 0x114 JUMP JUMPDEST DUP1 PUSH4 0x40C10F19 EQ PUSH2 0x26A JUMPI DUP1 PUSH4 0x70A08231 EQ PUSH2 0x286 JUMPI DUP1 PUSH4 0x91D14854 EQ PUSH2 0x2B6 JUMPI DUP1 PUSH4 0x95D89B41 EQ PUSH2 0x2E6 JUMPI PUSH2 0x114 JUMP JUMPDEST DUP1 PUSH4 0x23B872DD GT PUSH2 0xE7 JUMPI DUP1 PUSH4 0x23B872DD EQ PUSH2 0x1B4 JUMPI DUP1 PUSH4 0x248A9CA3 EQ PUSH2 0x1E4 JUMPI DUP1 PUSH4 0x2F2FF15D EQ PUSH2 0x214 JUMPI DUP1 PUSH4 0x313CE567 EQ PUSH2 0x230 JUMPI DUP1 PUSH4 0x36568ABE EQ PUSH2 0x24E JUMPI PUSH2 0x114 JUMP JUMPDEST DUP1 PUSH4 0x1FFC9A7 EQ PUSH2 0x118 JUMPI DUP1 PUSH4 0x6FDDE03 EQ PUSH2 0x148 JUMPI DUP1 PUSH4 0x95EA7B3 EQ PUSH2 0x166 JUMPI DUP1 PUSH4 0x18160DDD EQ PUSH2 0x196 JUMPI JUMPDEST PUSH0 PUSH0 REVERT JUMPDEST PUSH2 0x132 PUSH1 0x4 DUP1 CALLDATASIZE SUB DUP2 ADD SWAP1 PUSH2 0x12D SWAP2 SWAP1 PUSH2 0x1140 JUMP JUMPDEST PUSH2 0x3BC JUMP JUMPDEST PUSH1 0x40 MLOAD PUSH2 0x13F SWAP2 SWAP1 PUSH2 0x1185 JUMP JUMPDEST PUSH1 0x40 MLOAD DUP1 SWAP2 SUB SWAP1 RETURN JUMPDEST PUSH2 0x150 PUSH2 0x435 JUMP JUMPDEST PUSH1 0x40 MLOAD PUSH2 0x15D SWAP2 SWAP1 PUSH2 0x120E JUMP JUMPDEST PUSH1 0x40 MLOAD DUP1 SWAP2 SUB SWAP1 RETURN JUMPDEST PUSH2 0x180 PUSH1 0x4 DUP1 CALLDATASIZE SUB DUP2 ADD SWAP1 PUSH2 0x17B SWAP2 SWAP1 PUSH2 0x12BB JUMP JUMPDEST PUSH2 0x4C5 JUMP JUMPDEST PUSH1 0x40 MLOAD PUSH2 0x18D SWAP2 SWAP1 PUSH2 0x1185 JUMP JUMPDEST PUSH1 0x40 MLOAD DUP1 SWAP2 SUB SWAP1 RETURN JUMPDEST PUSH2 0x19E PUSH2 0x4E7 JUMP JUMPDEST PUSH1 0x40 MLOAD PUSH2 0x1AB SWAP2 SWAP1 PUSH2 0x1308 JUMP JUMPDEST PUSH1 0x40 MLOAD DUP1 SWAP2 SUB SWAP1 RETURN JUMPDEST PUSH2 0x1CE PUSH1 0x4 DUP1 CALLDATASIZE SUB DUP2 ADD SWAP1 PUSH2 0x1C9 SWAP2 SWAP1 PUSH2 0x1321 JUMP JUMPDEST PUSH2 0x4F0 JUMP JUMPDEST PUSH1 0x40 MLOAD PUSH2 0x1DB SWAP2 SWAP1 PUSH2 0x1185 JUMP JUMPDEST PUSH1 0x40 MLOAD DUP1 SWAP2 SUB SWAP1 RETURN JUMPDEST PUSH2 0x1FE PUSH1 0x4 DUP1 CALLDATASIZE SUB DUP2 ADD SWAP1 PUSH2 0x1F9 SWAP2 SWAP1 PUSH2 0x13A4 JUMP JUMPDEST PUSH2 0x51E JUMP JUMPDEST PUSH1 0x40 MLOAD PUSH2 0x20B SWAP2 SWAP1 PUSH2 0x13DE JUMP JUMPDEST PUSH1 0x40 MLOAD DUP1 SWAP2 SUB SWAP1 RETURN JUMPDEST PUSH2 0x22E PUSH1 0x4 DUP1 CALLDATASIZE SUB DUP2 ADD SWAP1 PUSH2 0x229 SWAP2 SWAP1 PUSH2 0x13F7 JUMP JUMPDEST PUSH2 0x53B JUMP JUMPDEST STOP JUMPDEST PUSH2 0x238 PUSH2 0x55D JUMP JUMPDEST PUSH1 0x40 MLOAD PUSH2 0x245 SWAP2 SWAP1 PUSH2 0x1450 JUMP JUMPDEST PUSH1 0x40 MLOAD DUP1 SWAP2 SUB SWAP1 RETURN JUMPDEST PUSH2 0x268 PUSH1 0x4 DUP1 CALLDATASIZE SUB DUP2 ADD SWAP1 PUSH2 0x263 SWAP2 SWAP1 PUSH2 0x13F7 JUMP JUMPDEST PUSH2 0x565 JUMP JUMPDEST STOP JUMPDEST PUSH2 0x284 PUSH1 0x4 DUP1 CALLDATASIZE SUB DUP2 ADD SWAP1 PUSH2 0x27F SWAP2 SWAP1 PUSH2 0x12BB JUMP JUMPDEST PUSH2 0x5E0 JUMP JUMPDEST STOP JUMPDEST PUSH2 0x2A0 PUSH1 0x4 DUP1 CALLDATASIZE SUB DUP2 ADD SWAP1 PUSH2 0x29B SWAP2 SWAP1 PUSH2 0x1469 JUMP JUMPDEST PUSH2 0x619 JUMP JUMPDEST PUSH1 0x40 MLOAD PUSH2 0x2AD SWAP2 SWAP1 PUSH2 0x1308 JUMP JUMPDEST PUSH1 0x40 MLOAD DUP1 SWAP2 SUB SWAP1 RETURN JUMPDEST PUSH2 0x2D0 PUSH1 0x4 DUP1 CALLDATASIZE SUB DUP2 ADD SWAP1 PUSH2 0x2CB SWAP2 SWAP1 PUSH2 0x13F7 JUMP JUMPDEST PUSH2 0x65E JUMP JUMPDEST PUSH1 0x40 MLOAD PUSH2 0x2DD SWAP2 SWAP1 PUSH2 0x1185 JUMP JUMPDEST PUSH1 0x40 MLOAD DUP1 SWAP2 SUB SWAP1 RETURN JUMPDEST PUSH2 0x2EE PUSH2 0x6C2 JUMP JUMPDEST PUSH1 0x40 MLOAD PUSH2 0x2FB SWAP2 SWAP1 PUSH2 0x120E JUMP JUMPDEST PUSH1 0x40 MLOAD DUP1 SWAP2 SUB SWAP1 RETURN JUMPDEST PUSH2 0x30C PUSH2 0x752 JUMP JUMPDEST PUSH1 0x40 MLOAD PUSH2 0x319 SWAP2 SWAP1 PUSH2 0x13DE JUMP JUMPDEST PUSH1 0x40 MLOAD DUP1 SWAP2 SUB SWAP1 RETURN JUMPDEST PUSH2 0x33C PUSH1 0x4 DUP1 CALLDATASIZE SUB DUP2 ADD SWAP1 PUSH2 0x337 SWAP2 SWAP1 PUSH2 0x12BB JUMP JUMPDEST PUSH2 0x758 JUMP JUMPDEST PUSH1 0x40 MLOAD PUSH2 0x349 SWAP2 SWAP1 PUSH2 0x1185 JUMP JUMPDEST PUSH1 0x40 MLOAD DUP1 SWAP2 SUB SWAP1 RETURN JUMPDEST PUSH2 0x35A PUSH2 0x77A JUMP JUMPDEST PUSH1 0x40 MLOAD PUSH2 0x367 SWAP2 SWAP1 PUSH2 0x13DE JUMP JUMPDEST PUSH1 0x40 MLOAD DUP1 SWAP2 SUB SWAP1 RETURN JUMPDEST PUSH2 0x38A PUSH1 0x4 DUP1 CALLDATASIZE SUB DUP2 ADD SWAP1 PUSH2 0x385 SWAP2 SWAP1 PUSH2 0x13F7 JUMP JUMPDEST PUSH2 0x79E JUMP JUMPDEST STOP JUMPDEST PUSH2 0x3A6 PUSH1 0x4 DUP1 CALLDATASIZE SUB DUP2 ADD SWAP1 PUSH2 0x3A1 SWAP2 SWAP1 PUSH2 0x1494 JUMP JUMPDEST PUSH2 0x7C0 JUMP JUMPDEST PUSH1 0x40 MLOAD PUSH2 0x3B3 SWAP2 SWAP1 PUSH2 0x1308 JUMP JUMPDEST PUSH1 0x40 MLOAD DUP1 SWAP2 SUB SWAP1 RETURN JUMPDEST PUSH0 PUSH32 0x7965DB0B00000000000000000000000000000000000000000000000000000000 PUSH28 0xFFFFFFFFFFFFFFFFFFFFFFFFFFFFFFFFFFFFFFFFFFFFFFFFFFFFFFFF NOT AND DUP3 PUSH28 0xFFFFFFFFFFFFFFFFFFFFFFFFFFFFFFFFFFFFFFFFFFFFFFFFFFFFFFFF NOT AND EQ DUP1 PUSH2 0x42E JUMPI POP PUSH2 0x42D DUP3 PUSH2 0x842 JUMP JUMPDEST JUMPDEST SWAP1 POP SWAP2 SWAP1 POP JUMP JUMPDEST PUSH1 0x60 PUSH1 0x3 DUP1 SLOAD PUSH2 0x444 SWAP1 PUSH2 0x14FF JUMP JUMPDEST DUP1 PUSH1 0x1F ADD PUSH1 0x20 DUP1 SWAP2 DIV MUL PUSH1 0x20 ADD PUSH1 0x40 MLOAD SWAP1 DUP2 ADD PUSH1 0x40 MSTORE DUP1 SWAP3 SWAP2 SWAP1 DUP2 DUP2 MSTORE PUSH1 0x20 ADD DUP3 DUP1 SLOAD PUSH2 0x470 SWAP1 PUSH2 0x14FF JUMP JUMPDEST DUP1 ISZERO PUSH2 0x4BB JUMPI DUP1 PUSH1 0x1F LT PUSH2 0x492 JUMPI PUSH2 0x100 DUP1 DUP4 SLOAD DIV MUL DUP4 MSTORE SWAP2 PUSH1 0x20 ADD SWAP2 PUSH2 0x4BB JUMP JUMPDEST DUP3 ADD SWAP2 SWAP1 PUSH0 MSTORE PUSH1 0x20 PUSH0 KECCAK256 SWAP1 JUMPDEST DUP2 SLOAD DUP2 MSTORE SWAP1 PUSH1 0x1 ADD SWAP1 PUSH1 0x20 ADD DUP1 DUP4 GT PUSH2 0x49E JUMPI DUP3 SWAP1 SUB PUSH1 0x1F AND DUP3 ADD SWAP2 JUMPDEST POP POP POP POP POP SWAP1 POP SWAP1 JUMP JUMPDEST PUSH0 PUSH0 PUSH2 0x4CF PUSH2 0x8AB JUMP JUMPDEST SWAP1 POP PUSH2 0x4DC DUP2 DUP6 DUP6 PUSH2 0x8B2 JUMP JUMPDEST PUSH1 0x1 SWAP2 POP POP SWAP3 SWAP2 POP POP JUMP JUMPDEST PUSH0 PUSH1 0x2 SLOAD SWAP1 POP SWAP1 JUMP JUMPDEST PUSH0 PUSH0 PUSH2 0x4FA PUSH2 0x8AB JUMP JUMPDEST SWAP1 POP PUSH2 0x507 DUP6 DUP3 DUP6 PUSH2 0x8C4 JUMP JUMPDEST PUSH2 0x512 DUP6 DUP6 DUP6 PUSH2 0x957 JUMP JUMPDEST PUSH1 0x1 SWAP2 POP POP SWAP4 SWAP3 POP POP POP JUMP JUMPDEST PUSH0 PUSH1 0x5 PUSH0 DUP4 DUP2 MSTORE PUSH1 0x20 ADD SWAP1 DUP2 MSTORE PUSH1 0x20 ADD PUSH0 KECCAK256 PUSH1 0x1 ADD SLOAD SWAP1 POP SWAP2 SWAP1 POP JUMP JUMPDEST PUSH2 0x544 DUP3 PUSH2 0x51E JUMP JUMPDEST PUSH2 0x54D DUP2 PUSH2 0xA47 JUMP JUMPDEST PUSH2 0x557 DUP4 DUP4 PUSH2 0xA5B JUMP JUMPDEST POP POP POP POP JUMP JUMPDEST PUSH0 PUSH1 0x12 SWAP1 POP SWAP1 JUMP JUMPDEST PUSH2 0x56D PUSH2 0x8AB JUMP JUMPDEST PUSH20 0xFFFFFFFFFFFFFFFFFFFFFFFFFFFFFFFFFFFFFFFF AND DUP2 PUSH20 0xFFFFFFFFFFFFFFFFFFFFFFFFFFFFFFFFFFFFFFFF AND EQ PUSH2 0x5D1 JUMPI PUSH1 0x40 MLOAD PUSH32 0x6697B23200000000000000000000000000000000000000000000000000000000 DUP2 MSTORE PUSH1 0x4 ADD PUSH1 0x40 MLOAD DUP1 SWAP2 SUB SWAP1 REVERT JUMPDEST PUSH2 0x5DB DUP3 DUP3 PUSH2 0xB45 JUMP JUMPDEST POP POP POP JUMP JUMPDEST PUSH32 0x9F2DF0FED2C77648DE5860A4CC508CD0818C85B8B8A1AB4CEEEF8D981C8956A6 PUSH2 0x60A DUP2 PUSH2 0xA47 JUMP JUMPDEST PUSH2 0x614 DUP4 DUP4 PUSH2 0xC2F JUMP JUMPDEST POP POP POP JUMP JUMPDEST PUSH0 PUSH0 PUSH0 DUP4 PUSH20 0xFFFFFFFFFFFFFFFFFFFFFFFFFFFFFFFFFFFFFFFF AND PUSH20 0xFFFFFFFFFFFFFFFFFFFFFFFFFFFFFFFFFFFFFFFF AND DUP2 MSTORE PUSH1 0x20 ADD SWAP1 DUP2 MSTORE PUSH1 0x20 ADD PUSH0 KECCAK256 SLOAD SWAP1 POP SWAP2 SWAP1 POP JUMP JUMPDEST PUSH0 PUSH1 0x5 PUSH0 DUP5 DUP2 MSTORE PUSH1 0x20 ADD SWAP1 DUP2 MSTORE PUSH1 0x20 ADD PUSH0 KECCAK256 PUSH0 ADD PUSH0 DUP4 PUSH20 0xFFFFFFFFFFFFFFFFFFFFFFFFFFFFFFFFFFFFFFFF AND PUSH20 0xFFFFFFFFFFFFFFFFFFFFFFFFFFFFFFFFFFFFFFFF AND DUP2 MSTORE PUSH1 0x20 ADD SWAP1 DUP2 MSTORE PUSH1 0x20 ADD PUSH0 KECCAK256 PUSH0 SWAP1 SLOAD SWAP1 PUSH2 0x100 EXP SWAP1 DIV PUSH1 0xFF AND SWAP1 POP SWAP3 SWAP2 POP POP JUMP JUMPDEST PUSH1 0x60 PUSH1 0x4 DUP1 SLOAD PUSH2 0x6D1 SWAP1 PUSH2 0x14FF JUMP JUMPDEST DUP1 PUSH1 0x1F ADD PUSH1 0x20 DUP1 SWAP2 DIV MUL PUSH1 0x20 ADD PUSH1 0x40 MLOAD SWAP1 DUP2 ADD PUSH1 0x40 MSTORE DUP1 SWAP3 SWAP2 SWAP1 DUP2 DUP2 MSTORE PUSH1 0x20 ADD DUP3 DUP1 SLOAD PUSH2 0x6FD SWAP1 PUSH2 0x14FF JUMP JUMPDEST DUP1 ISZERO PUSH2 0x748 JUMPI DUP1 PUSH1 0x1F LT PUSH2 0x71F JUMPI PUSH2 0x100 DUP1 DUP4 SLOAD DIV MUL DUP4 MSTORE SWAP2 PUSH1 0x20 ADD SWAP2 PUSH2 0x748 JUMP JUMPDEST DUP3 ADD SWAP2 SWAP1 PUSH0 MSTORE PUSH1 0x20 PUSH0 KECCAK256 SWAP1 JUMPDEST DUP2 SLOAD DUP2 MSTORE SWAP1 PUSH1 0x1 ADD SWAP1 PUSH1 0x20 ADD DUP1 DUP4 GT PUSH2 0x72B JUMPI DUP3 SWAP1 SUB PUSH1 0x1F AND DUP3 ADD SWAP2 JUMPDEST POP POP POP POP POP SWAP1 POP SWAP1 JUMP JUMPDEST PUSH0 PUSH0 SHL DUP2 JUMP JUMPDEST PUSH0 PUSH0 PUSH2 0x762 PUSH2 0x8AB JUMP JUMPDEST SWAP1 POP PUSH2 0x76F DUP2 DUP6 DUP6 PUSH2 0x957 JUMP JUMPDEST PUSH1 0x1 SWAP2 POP POP SWAP3 SWAP2 POP POP JUMP JUMPDEST PUSH32 0x9F2DF0FED2C77648DE5860A4CC508CD0818C85B8B8A1AB4CEEEF8D981C8956A6 DUP2 JUMP JUMPDEST PUSH2 0x7A7 DUP3 PUSH2 0x51E JUMP JUMPDEST PUSH2 0x7B0 DUP2 PUSH2 0xA47 JUMP JUMPDEST PUSH2 0x7BA DUP4 DUP4 PUSH2 0xB45 JUMP JUMPDEST POP POP POP POP JUMP JUMPDEST PUSH0 PUSH1 0x1 PUSH0 DUP5 PUSH20 0xFFFFFFFFFFFFFFFFFFFFFFFFFFFFFFFFFFFFFFFF AND PUSH20 0xFFFFFFFFFFFFFFFFFFFFFFFFFFFFFFFFFFFFFFFF AND DUP2 MSTORE PUSH1 0x20 ADD SWAP1 DUP2 MSTORE PUSH1 0x20 ADD PUSH0 KECCAK256 PUSH0 DUP4 PUSH20 0xFFFFFFFFFFFFFFFFFFFFFFFFFFFFFFFFFFFFFFFF AND PUSH20 0xFFFFFFFFFFFFFFFFFFFFFFFFFFFFFFFFFFFFFFFF AND DUP2 MSTORE PUSH1 0x20 ADD SWAP1 DUP2 MSTORE PUSH1 0x20 ADD PUSH0 KECCAK256 SLOAD SWAP1 POP SWAP3 SWAP2 POP POP JUMP JUMPDEST PUSH0 PUSH32 0x1FFC9A700000000000000000000000000000000000000000000000000000000 PUSH28 0xFFFFFFFFFFFFFFFFFFFFFFFFFFFFFFFFFFFFFFFFFFFFFFFFFFFFFFFF NOT AND DUP3 PUSH28 0xFFFFFFFFFFFFFFFFFFFFFFFFFFFFFFFFFFFFFFFFFFFFFFFFFFFFFFFF NOT AND EQ SWAP1 POP SWAP2 SWAP1 POP JUMP JUMPDEST PUSH0 CALLER SWAP1 POP SWAP1 JUMP JUMPDEST PUSH2 0x8BF DUP4 DUP4 DUP4 PUSH1 0x1 PUSH2 0xCAE JUMP JUMPDEST POP POP POP JUMP JUMPDEST PUSH0 PUSH2 0x8CF DUP5 DUP5 PUSH2 0x7C0 JUMP JUMPDEST SWAP1 POP PUSH32 0xFFFFFFFFFFFFFFFFFFFFFFFFFFFFFFFFFFFFFFFFFFFFFFFFFFFFFFFFFFFFFFFF DUP2 LT ISZERO PUSH2 0x951 JUMPI DUP2 DUP2 LT ISZERO PUSH2 0x942 JUMPI DUP3 DUP2 DUP4 PUSH1 0x40 MLOAD PUSH32 0xFB8F41B200000000000000000000000000000000000000000000000000000000 DUP2 MSTORE PUSH1 0x4 ADD PUSH2 0x939 SWAP4 SWAP3 SWAP2 SWAP1 PUSH2 0x153E JUMP JUMPDEST PUSH1 0x40 MLOAD DUP1 SWAP2 SUB SWAP1 REVERT JUMPDEST PUSH2 0x950 DUP5 DUP5 DUP5 DUP5 SUB PUSH0 PUSH2 0xCAE JUMP JUMPDEST JUMPDEST POP POP POP POP JUMP JUMPDEST PUSH0 PUSH20 0xFFFFFFFFFFFFFFFFFFFFFFFFFFFFFFFFFFFFFFFF AND DUP4 PUSH20 0xFFFFFFFFFFFFFFFFFFFFFFFFFFFFFFFFFFFFFFFF AND SUB PUSH2 0x9C7 JUMPI PUSH0 PUSH1 0x40 MLOAD PUSH32 0x96C6FD1E00000000000000000000000000000000000000000000000000000000 DUP2 MSTORE PUSH1 0x4 ADD PUSH2 0x9BE SWAP2 SWAP1 PUSH2 0x1573 JUMP JUMPDEST PUSH1 0x40 MLOAD DUP1 SWAP2 SUB SWAP1 REVERT JUMPDEST PUSH0 PUSH20 0xFFFFFFFFFFFFFFFFFFFFFFFFFFFFFFFFFFFFFFFF AND DUP3 PUSH20 0xFFFFFFFFFFFFFFFFFFFFFFFFFFFFFFFFFFFFFFFF AND SUB PUSH2 0xA37 JUMPI PUSH0 PUSH1 0x40 MLOAD PUSH32 0xEC442F0500000000000000000000000000000000000000000000000000000000 DUP2 MSTORE PUSH1 0x4 ADD PUSH2 0xA2E SWAP2 SWAP1 PUSH2 0x1573 JUMP JUMPDEST PUSH1 0x40 MLOAD DUP1 SWAP2 SUB SWAP1 REVERT JUMPDEST PUSH2 0xA42 DUP4 DUP4 DUP4 PUSH2 0xE7D JUMP JUMPDEST POP POP POP JUMP JUMPDEST PUSH2 0xA58 DUP2 PUSH2 0xA53 PUSH2 0x8AB JUMP JUMPDEST PUSH2 0x1096 JUMP JUMPDEST POP JUMP JUMPDEST PUSH0 PUSH2 0xA66 DUP4 DUP4 PUSH2 0x65E JUMP JUMPDEST PUSH2 0xB3B JUMPI PUSH1 0x1 PUSH1 0x5 PUSH0 DUP6 DUP2 MSTORE PUSH1 0x20 ADD SWAP1 DUP2 MSTORE PUSH1 0x20 ADD PUSH0 KECCAK256 PUSH0 ADD PUSH0 DUP5 PUSH20 0xFFFFFFFFFFFFFFFFFFFFFFFFFFFFFFFFFFFFFFFF AND PUSH20 0xFFFFFFFFFFFFFFFFFFFFFFFFFFFFFFFFFFFFFFFF AND DUP2 MSTORE PUSH1 0x20 ADD SWAP1 DUP2 MSTORE PUSH1 0x20 ADD PUSH0 KECCAK256 PUSH0 PUSH2 0x100 EXP DUP2 SLOAD DUP2 PUSH1 0xFF MUL NOT AND SWAP1 DUP4 ISZERO ISZERO MUL OR SWAP1 SSTORE POP PUSH2 0xAD8 PUSH2 0x8AB JUMP JUMPDEST PUSH20 0xFFFFFFFFFFFFFFFFFFFFFFFFFFFFFFFFFFFFFFFF AND DUP3 PUSH20 0xFFFFFFFFFFFFFFFFFFFFFFFFFFFFFFFFFFFFFFFF AND DUP5 PUSH32 0x2F8788117E7EFF1D82E926EC794901D17C78024A50270940304540A733656F0D PUSH1 0x40 MLOAD PUSH1 0x40 MLOAD DUP1 SWAP2 SUB SWAP1 LOG4 PUSH1 0x1 SWAP1 POP PUSH2 0xB3F JUMP JUMPDEST PUSH0 SWAP1 POP JUMPDEST SWAP3 SWAP2 POP POP JUMP JUMPDEST PUSH0 PUSH2 0xB50 DUP4 DUP4 PUSH2 0x65E JUMP JUMPDEST ISZERO PUSH2 0xC25 JUMPI PUSH0 PUSH1 0x5 PUSH0 DUP6 DUP2 MSTORE PUSH1 0x20 ADD SWAP1 DUP2 MSTORE PUSH1 0x20 ADD PUSH0 KECCAK256 PUSH0 ADD PUSH0 DUP5 PUSH20 0xFFFFFFFFFFFFFFFFFFFFFFFFFFFFFFFFFFFFFFFF AND PUSH20 0xFFFFFFFFFFFFFFFFFFFFFFFFFFFFFFFFFFFFFFFF AND DUP2 MSTORE PUSH1 0x20 ADD SWAP1 DUP2 MSTORE PUSH1 0x20 ADD PUSH0 KECCAK256 PUSH0 PUSH2 0x100 EXP DUP2 SLOAD DUP2 PUSH1 0xFF MUL NOT AND SWAP1 DUP4 ISZERO ISZERO MUL OR SWAP1 SSTORE POP PUSH2 0xBC2 PUSH2 0x8AB JUMP JUMPDEST PUSH20 0xFFFFFFFFFFFFFFFFFFFFFFFFFFFFFFFFFFFFFFFF AND DUP3 PUSH20 0xFFFFFFFFFFFFFFFFFFFFFFFFFFFFFFFFFFFFFFFF AND DUP5 PUSH32 0xF6391F5C32D9C69D2A47EA670B442974B53935D1EDC7FD64EB21E047A839171B PUSH1 0x40 MLOAD PUSH1 0x40 MLOAD DUP1 SWAP2 SUB SWAP1 LOG4 PUSH1 0x1 SWAP1 POP PUSH2 0xC29 JUMP JUMPDEST PUSH0 SWAP1 POP JUMPDEST SWAP3 SWAP2 POP POP JUMP JUMPDEST PUSH0 PUSH20 0xFFFFFFFFFFFFFFFFFFFFFFFFFFFFFFFFFFFFFFFF AND DUP3 PUSH20 0xFFFFFFFFFFFFFFFFFFFFFFFFFFFFFFFFFFFFFFFF AND SUB PUSH2 0xC9F JUMPI PUSH0 PUSH1 0x40 MLOAD PUSH32 0xEC442F0500000000000000000000000000000000000000000000000000000000 DUP2 MSTORE PUSH1 0x4 ADD PUSH2 0xC96 SWAP2 SWAP1 PUSH2 0x1573 JUMP JUMPDEST PUSH1 0x40 MLOAD DUP1 SWAP2 SUB SWAP1 REVERT JUMPDEST PUSH2 0xCAA PUSH0 DUP4 DUP4 PUSH2 0xE7D JUMP JUMPDEST POP POP JUMP JUMPDEST PUSH0 PUSH20 0xFFFFFFFFFFFFFFFFFFFFFFFFFFFFFFFFFFFFFFFF AND DUP5 PUSH20 0xFFFFFFFFFFFFFFFFFFFFFFFFFFFFFFFFFFFFFFFF AND SUB PUSH2 0xD1E JUMPI PUSH0 PUSH1 0x40 MLOAD PUSH32 0xE602DF0500000000000000000000000000000000000000000000000000000000 DUP2 MSTORE PUSH1 0x4 ADD PUSH2 0xD15 SWAP2 SWAP1 PUSH2 0x1573 JUMP JUMPDEST PUSH1 0x40 MLOAD DUP1 SWAP2 SUB SWAP1 REVERT JUMPDEST PUSH0 PUSH20 0xFFFFFFFFFFFFFFFFFFFFFFFFFFFFFFFFFFFFFFFF AND DUP4 PUSH20 0xFFFFFFFFFFFFFFFFFFFFFFFFFFFFFFFFFFFFFFFF AND SUB PUSH2 0xD8E JUMPI PUSH0 PUSH1 0x40 MLOAD PUSH32 0x94280D6200000000000000000000000000000000000000000000000000000000 DUP2 MSTORE PUSH1 0x4 ADD PUSH2 0xD85 SWAP2 SWAP1 PUSH2 0x1573 JUMP JUMPDEST PUSH1 0x40 MLOAD DUP1 SWAP2 SUB SWAP1 REVERT JUMPDEST DUP2 PUSH1 0x1 PUSH0 DUP7 PUSH20 0xFFFFFFFFFFFFFFFFFFFFFFFFFFFFFFFFFFFFFFFF AND PUSH20 0xFFFFFFFFFFFFFFFFFFFFFFFFFFFFFFFFFFFFFFFF AND DUP2 MSTORE PUSH1 0x20 ADD SWAP1 DUP2 MSTORE PUSH1 0x20 ADD PUSH0 KECCAK256 PUSH0 DUP6 PUSH20 0xFFFFFFFFFFFFFFFFFFFFFFFFFFFFFFFFFFFFFFFF AND PUSH20 0xFFFFFFFFFFFFFFFFFFFFFFFFFFFFFFFFFFFFFFFF AND DUP2 MSTORE PUSH1 0x20 ADD SWAP1 DUP2 MSTORE PUSH1 0x20 ADD PUSH0 KECCAK256 DUP2 SWAP1 SSTORE POP DUP1 ISZERO PUSH2 0xE77 JUMPI DUP3 PUSH20 0xFFFFFFFFFFFFFFFFFFFFFFFFFFFFFFFFFFFFFFFF AND DUP5 PUSH20 0xFFFFFFFFFFFFFFFFFFFFFFFFFFFFFFFFFFFFFFFF AND PUSH32 0x8C5BE1E5EBEC7D5BD14F71427D1E84F3DD0314C0F7B2291E5B200AC8C7C3B925 DUP5 PUSH1 0x40 MLOAD PUSH2 0xE6E SWAP2 SWAP1 PUSH2 0x1308 JUMP JUMPDEST PUSH1 0x40 MLOAD DUP1 SWAP2 SUB SWAP1 LOG3 JUMPDEST POP POP POP POP JUMP JUMPDEST PUSH0 PUSH20 0xFFFFFFFFFFFFFFFFFFFFFFFFFFFFFFFFFFFFFFFF AND DUP4 PUSH20 0xFFFFFFFFFFFFFFFFFFFFFFFFFFFFFFFFFFFFFFFF AND SUB PUSH2 0xECD JUMPI DUP1 PUSH1 0x2 PUSH0 DUP3 DUP3 SLOAD PUSH2 0xEC1 SWAP2 SWAP1 PUSH2 0x15B9 JUMP JUMPDEST SWAP3 POP POP DUP2 SWAP1 SSTORE POP PUSH2 0xF9B JUMP JUMPDEST PUSH0 PUSH0 PUSH0 DUP6 PUSH20 0xFFFFFFFFFFFFFFFFFFFFFFFFFFFFFFFFFFFFFFFF AND PUSH20 0xFFFFFFFFFFFFFFFFFFFFFFFFFFFFFFFFFFFFFFFF AND DUP2 MSTORE PUSH1 0x20 ADD SWAP1 DUP2 MSTORE PUSH1 0x20 ADD PUSH0 KECCAK256 SLOAD SWAP1 POP DUP2 DUP2 LT ISZERO PUSH2 0xF56 JUMPI DUP4 DUP2 DUP4 PUSH1 0x40 MLOAD PUSH32 0xE450D38C00000000000000000000000000000000000000000000000000000000 DUP2 MSTORE PUSH1 0x4 ADD PUSH2 0xF4D SWAP4 SWAP3 SWAP2 SWAP1 PUSH2 0x153E JUMP JUMPDEST PUSH1 0x40 MLOAD DUP1 SWAP2 SUB SWAP1 REVERT JUMPDEST DUP2 DUP2 SUB PUSH0 PUSH0 DUP7 PUSH20 0xFFFFFFFFFFFFFFFFFFFFFFFFFFFFFFFFFFFFFFFF AND PUSH20 0xFFFFFFFFFFFFFFFFFFFFFFFFFFFFFFFFFFFFFFFF AND DUP2 MSTORE PUSH1 0x20 ADD SWAP1 DUP2 MSTORE PUSH1 0x20 ADD PUSH0 KECCAK256 DUP2 SWAP1 SSTORE POP POP JUMPDEST PUSH0 PUSH20 0xFFFFFFFFFFFFFFFFFFFFFFFFFFFFFFFFFFFFFFFF AND DUP3 PUSH20 0xFFFFFFFFFFFFFFFFFFFFFFFFFFFFFFFFFFFFFFFF AND SUB PUSH2 0xFE2 JUMPI DUP1 PUSH1 0x2 PUSH0 DUP3 DUP3 SLOAD SUB SWAP3 POP POP DUP2 SWAP1 SSTORE POP PUSH2 0x102C JUMP JUMPDEST DUP1 PUSH0 PUSH0 DUP5 PUSH20 0xFFFFFFFFFFFFFFFFFFFFFFFFFFFFFFFFFFFFFFFF AND PUSH20 0xFFFFFFFFFFFFFFFFFFFFFFFFFFFFFFFFFFFFFFFF AND DUP2 MSTORE PUSH1 0x20 ADD SWAP1 DUP2 MSTORE PUSH1 0x20 ADD PUSH0 KECCAK256 PUSH0 DUP3 DUP3 SLOAD ADD SWAP3 POP POP DUP2 SWAP1 SSTORE POP JUMPDEST DUP2 PUSH20 0xFFFFFFFFFFFFFFFFFFFFFFFFFFFFFFFFFFFFFFFF AND DUP4 PUSH20 0xFFFFFFFFFFFFFFFFFFFFFFFFFFFFFFFFFFFFFFFF AND PUSH32 0xDDF252AD1BE2C89B69C2B068FC378DAA952BA7F163C4A11628F55A4DF523B3EF DUP4 PUSH1 0x40 MLOAD PUSH2 0x1089 SWAP2 SWAP1 PUSH2 0x1308 JUMP JUMPDEST PUSH1 0x40 MLOAD DUP1 SWAP2 SUB SWAP1 LOG3 POP POP POP JUMP JUMPDEST PUSH2 0x10A0 DUP3 DUP3 PUSH2 0x65E JUMP JUMPDEST PUSH2 0x10E3 JUMPI DUP1 DUP3 PUSH1 0x40 MLOAD PUSH32 0xE2517D3F00000000000000000000000000000000000000000000000000000000 DUP2 MSTORE PUSH1 0x4 ADD PUSH2 0x10DA SWAP3 SWAP2 SWAP1 PUSH2 0x15EC JUMP JUMPDEST PUSH1 0x40 MLOAD DUP1 SWAP2 SUB SWAP1 REVERT JUMPDEST POP POP JUMP JUMPDEST PUSH0 PUSH0 REVERT JUMPDEST PUSH0 PUSH32 0xFFFFFFFF00000000000000000000000000000000000000000000000000000000 DUP3 AND SWAP1 POP SWAP2 SWAP1 POP JUMP JUMPDEST PUSH2 0x111F DUP2 PUSH2 0x10EB JUMP JUMPDEST DUP2 EQ PUSH2 0x1129 JUMPI PUSH0 PUSH0 REVERT JUMPDEST POP JUMP JUMPDEST PUSH0 DUP2 CALLDATALOAD SWAP1 POP PUSH2 0x113A DUP2 PUSH2 0x1116 JUMP JUMPDEST SWAP3 SWAP2 POP POP JUMP JUMPDEST PUSH0 PUSH1 0x20 DUP3 DUP5 SUB SLT ISZERO PUSH2 0x1155 JUMPI PUSH2 0x1154 PUSH2 0x10E7 JUMP JUMPDEST JUMPDEST PUSH0 PUSH2 0x1162 DUP5 DUP3 DUP6 ADD PUSH2 0x112C JUMP JUMPDEST SWAP2 POP POP SWAP3 SWAP2 POP POP JUMP JUMPDEST PUSH0 DUP2 ISZERO ISZERO SWAP1 POP SWAP2 SWAP1 POP JUMP JUMPDEST PUSH2 0x117F DUP2 PUSH2 0x116B JUMP JUMPDEST DUP3 MSTORE POP POP JUMP JUMPDEST PUSH0 PUSH1 0x20 DUP3 ADD SWAP1 POP PUSH2 0x1198 PUSH0 DUP4 ADD DUP5 PUSH2 0x1176 JUMP JUMPDEST SWAP3 SWAP2 POP POP JUMP JUMPDEST PUSH0 DUP2 MLOAD SWAP1 POP SWAP2 SWAP1 POP JUMP JUMPDEST PUSH0 DUP3 DUP3 MSTORE PUSH1 0x20 DUP3 ADD SWAP1 POP SWAP3 SWAP2 POP POP JUMP JUMPDEST DUP3 DUP2 DUP4 MCOPY PUSH0 DUP4 DUP4 ADD MSTORE POP POP POP JUMP JUMPDEST PUSH0 PUSH1 0x1F NOT PUSH1 0x1F DUP4 ADD AND SWAP1 POP SWAP2 SWAP1 POP JUMP JUMPDEST PUSH0 PUSH2 0x11E0 DUP3 PUSH2 0x119E JUMP JUMPDEST PUSH2 0x11EA DUP2 DUP6 PUSH2 0x11A8 JUMP JUMPDEST SWAP4 POP PUSH2 0x11FA DUP2 DUP6 PUSH1 0x20 DUP7 ADD PUSH2 0x11B8 JUMP JUMPDEST PUSH2 0x1203 DUP2 PUSH2 0x11C6 JUMP JUMPDEST DUP5 ADD SWAP2 POP POP SWAP3 SWAP2 POP POP JUMP JUMPDEST PUSH0 PUSH1 0x20 DUP3 ADD SWAP1 POP DUP2 DUP2 SUB PUSH0 DUP4 ADD MSTORE PUSH2 0x1226 DUP2 DUP5 PUSH2 0x11D6 JUMP JUMPDEST SWAP1 POP SWAP3 SWAP2 POP POP JUMP JUMPDEST PUSH0 PUSH20 0xFFFFFFFFFFFFFFFFFFFFFFFFFFFFFFFFFFFFFFFF DUP3 AND SWAP1 POP SWAP2 SWAP1 POP JUMP JUMPDEST PUSH0 PUSH2 0x1257 DUP3 PUSH2 0x122E JUMP JUMPDEST SWAP1 POP SWAP2 SWAP1 POP JUMP JUMPDEST PUSH2 0x1267 DUP2 PUSH2 0x124D JUMP JUMPDEST DUP2 EQ PUSH2 0x1271 JUMPI PUSH0 PUSH0 REVERT JUMPDEST POP JUMP JUMPDEST PUSH0 DUP2 CALLDATALOAD SWAP1 POP PUSH2 0x1282 DUP2 PUSH2 0x125E JUMP JUMPDEST SWAP3 SWAP2 POP POP JUMP JUMPDEST PUSH0 DUP2 SWAP1 POP SWAP2 SWAP1 POP JUMP JUMPDEST PUSH2 0x129A DUP2 PUSH2 0x1288 JUMP JUMPDEST DUP2 EQ PUSH2 0x12A4 JUMPI PUSH0 PUSH0 REVERT JUMPDEST POP JUMP JUMPDEST PUSH0 DUP2 CALLDATALOAD SWAP1 POP PUSH2 0x12B5 DUP2 PUSH2 0x1291 JUMP JUMPDEST SWAP3 SWAP2 POP POP JUMP JUMPDEST PUSH0 PUSH0 PUSH1 0x40 DUP4 DUP6 SUB SLT ISZERO PUSH2 0x12D1 JUMPI PUSH2 0x12D0 PUSH2 0x10E7 JUMP JUMPDEST JUMPDEST PUSH0 PUSH2 0x12DE DUP6 DUP3 DUP7 ADD PUSH2 0x1274 JUMP JUMPDEST SWAP3 POP POP PUSH1 0x20 PUSH2 0x12EF DUP6 DUP3 DUP7 ADD PUSH2 0x12A7 JUMP JUMPDEST SWAP2 POP POP SWAP3 POP SWAP3 SWAP1 POP JUMP JUMPDEST PUSH2 0x1302 DUP2 PUSH2 0x1288 JUMP JUMPDEST DUP3 MSTORE POP POP JUMP JUMPDEST PUSH0 PUSH1 0x20 DUP3 ADD SWAP1 POP PUSH2 0x131B PUSH0 DUP4 ADD DUP5 PUSH2 0x12F9 JUMP JUMPDEST SWAP3 SWAP2 POP POP JUMP JUMPDEST PUSH0 PUSH0 PUSH0 PUSH1 0x60 DUP5 DUP7 SUB SLT ISZERO PUSH2 0x1338 JUMPI PUSH2 0x1337 PUSH2 0x10E7 JUMP JUMPDEST JUMPDEST PUSH0 PUSH2 0x1345 DUP7 DUP3 DUP8 ADD PUSH2 0x1274 JUMP JUMPDEST SWAP4 POP POP PUSH1 0x20 PUSH2 0x1356 DUP7 DUP3 DUP8 ADD PUSH2 0x1274 JUMP JUMPDEST SWAP3 POP POP PUSH1 0x40 PUSH2 0x1367 DUP7 DUP3 DUP8 ADD PUSH2 0x12A7 JUMP JUMPDEST SWAP2 POP POP SWAP3 POP SWAP3 POP SWAP3 JUMP JUMPDEST PUSH0 DUP2 SWAP1 POP SWAP2 SWAP1 POP JUMP JUMPDEST PUSH2 0x1383 DUP2 PUSH2 0x1371 JUMP JUMPDEST DUP2 EQ PUSH2 0x138D JUMPI PUSH0 PUSH0 REVERT JUMPDEST POP JUMP JUMPDEST PUSH0 DUP2 CALLDATALOAD SWAP1 POP PUSH2 0x139E DUP2 PUSH2 0x137A JUMP JUMPDEST SWAP3 SWAP2 POP POP JUMP JUMPDEST PUSH0 PUSH1 0x20 DUP3 DUP5 SUB SLT ISZERO PUSH2 0x13B9 JUMPI PUSH2 0x13B8 PUSH2 0x10E7 JUMP JUMPDEST JUMPDEST PUSH0 PUSH2 0x13C6 DUP5 DUP3 DUP6 ADD PUSH2 0x1390 JUMP JUMPDEST SWAP2 POP POP SWAP3 SWAP2 POP POP JUMP JUMPDEST PUSH2 0x13D8 DUP2 PUSH2 0x1371 JUMP JUMPDEST DUP3 MSTORE POP POP JUMP JUMPDEST PUSH0 PUSH1 0x20 DUP3 ADD SWAP1 POP PUSH2 0x13F1 PUSH0 DUP4 ADD DUP5 PUSH2 0x13CF JUMP JUMPDEST SWAP3 SWAP2 POP POP JUMP JUMPDEST PUSH0 PUSH0 PUSH1 0x40 DUP4 DUP6 SUB SLT ISZERO PUSH2 0x140D JUMPI PUSH2 0x140C PUSH2 0x10E7 JUMP JUMPDEST JUMPDEST PUSH0 PUSH2 0x141A DUP6 DUP3 DUP7 ADD PUSH2 0x1390 JUMP JUMPDEST SWAP3 POP POP PUSH1 0x20 PUSH2 0x142B DUP6 DUP3 DUP7 ADD PUSH2 0x1274 JUMP JUMPDEST SWAP2 POP POP SWAP3 POP SWAP3 SWAP1 POP JUMP JUMPDEST PUSH0 PUSH1 0xFF DUP3 AND SWAP1 POP SWAP2 SWAP1 POP JUMP JUMPDEST PUSH2 0x144A DUP2 PUSH2 0x1435 JUMP JUMPDEST DUP3 MSTORE POP POP JUMP JUMPDEST PUSH0 PUSH1 0x20 DUP3 ADD SWAP1 POP PUSH2 0x1463 PUSH0 DUP4 ADD DUP5 PUSH2 0x1441 JUMP JUMPDEST SWAP3 SWAP2 POP POP JUMP JUMPDEST PUSH0 PUSH1 0x20 DUP3 DUP5 SUB SLT ISZERO PUSH2 0x147E JUMPI PUSH2 0x147D PUSH2 0x10E7 JUMP JUMPDEST JUMPDEST PUSH0 PUSH2 0x148B DUP5 DUP3 DUP6 ADD PUSH2 0x1274 JUMP JUMPDEST SWAP2 POP POP SWAP3 SWAP2 POP POP JUMP JUMPDEST PUSH0 PUSH0 PUSH1 0x40 DUP4 DUP6 SUB SLT ISZERO PUSH2 0x14AA JUMPI PUSH2 0x14A9 PUSH2 0x10E7 JUMP JUMPDEST JUMPDEST PUSH0 PUSH2 0x14B7 DUP6 DUP3 DUP7 ADD PUSH2 0x1274 JUMP JUMPDEST SWAP3 POP POP PUSH1 0x20 PUSH2 0x14C8 DUP6 DUP3 DUP7 ADD PUSH2 0x1274 JUMP JUMPDEST SWAP2 POP POP SWAP3 POP SWAP3 SWAP1 POP JUMP JUMPDEST PUSH32 0x4E487B7100000000000000000000000000000000000000000000000000000000 PUSH0 MSTORE PUSH1 0x22 PUSH1 0x4 MSTORE PUSH1 0x24 PUSH0 REVERT JUMPDEST PUSH0 PUSH1 0x2 DUP3 DIV SWAP1 POP PUSH1 0x1 DUP3 AND DUP1 PUSH2 0x1516 JUMPI PUSH1 0x7F DUP3 AND SWAP2 POP JUMPDEST PUSH1 0x20 DUP3 LT DUP2 SUB PUSH2 0x1529 JUMPI PUSH2 0x1528 PUSH2 0x14D2 JUMP JUMPDEST JUMPDEST POP SWAP2 SWAP1 POP JUMP JUMPDEST PUSH2 0x1538 DUP2 PUSH2 0x124D JUMP JUMPDEST DUP3 MSTORE POP POP JUMP JUMPDEST PUSH0 PUSH1 0x60 DUP3 ADD SWAP1 POP PUSH2 0x1551 PUSH0 DUP4 ADD DUP7 PUSH2 0x152F JUMP JUMPDEST PUSH2 0x155E PUSH1 0x20 DUP4 ADD DUP6 PUSH2 0x12F9 JUMP JUMPDEST PUSH2 0x156B PUSH1 0x40 DUP4 ADD DUP5 PUSH2 0x12F9 JUMP JUMPDEST SWAP5 SWAP4 POP POP POP POP JUMP JUMPDEST PUSH0 PUSH1 0x20 DUP3 ADD SWAP1 POP PUSH2 0x1586 PUSH0 DUP4 ADD DUP5 PUSH2 0x152F JUMP JUMPDEST SWAP3 SWAP2 POP POP JUMP JUMPDEST PUSH32 0x4E487B7100000000000000000000000000000000000000000000000000000000 PUSH0 MSTORE PUSH1 0x11 PUSH1 0x4 MSTORE PUSH1 0x24 PUSH0 REVERT JUMPDEST PUSH0 PUSH2 0x15C3 DUP3 PUSH2 0x1288 JUMP JUMPDEST SWAP2 POP PUSH2 0x15CE DUP4 PUSH2 0x1288 JUMP JUMPDEST SWAP3 POP DUP3 DUP3 ADD SWAP1 POP DUP1 DUP3 GT ISZERO PUSH2 0x15E6 JUMPI PUSH2 0x15E5 PUSH2 0x158C JUMP JUMPDEST JUMPDEST SWAP3 SWAP2 POP POP JUMP JUMPDEST PUSH0 PUSH1 0x40 DUP3 ADD SWAP1 POP PUSH2 0x15FF PUSH0 DUP4 ADD DUP6 PUSH2 0x152F JUMP JUMPDEST PUSH2 0x160C PUSH1 0x20 DUP4 ADD DUP5 PUSH2 0x13CF JUMP JUMPDEST SWAP4 SWAP3 POP POP POP JUMP INVALID LOG2 PUSH5 0x6970667358 0x22 SLT KECCAK256 0xC9 0xE9 XOR CODESIZE 0xCF 0x29 SWAP9 0xDF 0xCC 0xA9 0xAC DUP3 SWAP12 CALLF 0x4BE0 0xAE RETURNDATASIZE SWAP4 0xB7 0xFC 0xAA 0xB7 CREATE 0xD8 DUP10 KECCAK256 PUSH16 0x4C1BA4F164736F6C634300081E003300 "
				},
				"gasEstimates": {
					"creation": {
						"codeDepositCost": "1141000",
						"executionCost": "infinite",
						"totalCost": "infinite"
					},
					"external": {
						"DEFAULT_ADMIN_ROLE()": "351",
						"MINTER_ROLE()": "391",
						"allowance(address,address)": "infinite",
						"approve(address,uint256)": "infinite",
						"balanceOf(address)": "2873",
						"decimals()": "427",
						"getRoleAdmin(bytes32)": "infinite",
						"grantRole(bytes32,address)": "infinite",
						"hasRole(bytes32,address)": "3188",
						"mint(address,uint256)": "infinite",
						"name()": "infinite",
						"renounceRole(bytes32,address)": "infinite",
						"revokeRole(bytes32,address)": "infinite",
						"supportsInterface(bytes4)": "741",
						"symbol()": "infinite",
						"totalSupply()": "2522",
						"transfer(address,uint256)": "infinite",
						"transferFrom(address,address,uint256)": "infinite"
					}
				},
				"methodIdentifiers": {
					"DEFAULT_ADMIN_ROLE()": "a217fddf",
					"MINTER_ROLE()": "d5391393",
					"allowance(address,address)": "dd62ed3e",
					"approve(address,uint256)": "095ea7b3",
					"balanceOf(address)": "70a08231",
					"decimals()": "313ce567",
					"getRoleAdmin(bytes32)": "248a9ca3",
					"grantRole(bytes32,address)": "2f2ff15d",
					"hasRole(bytes32,address)": "91d14854",
					"mint(address,uint256)": "40c10f19",
					"name()": "06fdde03",
					"renounceRole(bytes32,address)": "36568abe",
					"revokeRole(bytes32,address)": "d547741f",
					"supportsInterface(bytes4)": "01ffc9a7",
					"symbol()": "95d89b41",
					"totalSupply()": "18160ddd",
					"transfer(address,uint256)": "a9059cbb",
					"transferFrom(address,address,uint256)": "23b872dd"
				}
			},
			"storageLayout": {
				"storage": [
					{
						"astId": 279,
						"contract": "PramanToken_flattened.sol:Praman",
						"label": "_balances",
						"offset": 0,
						"slot": "0",
						"type": "t_mapping(t_address,t_uint256)"
					},
					{
						"astId": 285,
						"contract": "PramanToken_flattened.sol:Praman",
						"label": "_allowances",
						"offset": 0,
						"slot": "1",
						"type": "t_mapping(t_address,t_mapping(t_address,t_uint256))"
					},
					{
						"astId": 287,
						"contract": "PramanToken_flattened.sol:Praman",
						"label": "_totalSupply",
						"offset": 0,
						"slot": "2",
						"type": "t_uint256"
					},
					{
						"astId": 289,
						"contract": "PramanToken_flattened.sol:Praman",
						"label": "_name",
						"offset": 0,
						"slot": "3",
						"type": "t_string_storage"
					},
					{
						"astId": 291,
						"contract": "PramanToken_flattened.sol:Praman",
						"label": "_symbol",
						"offset": 0,
						"slot": "4",
						"type": "t_string_storage"
					},
					{
						"astId": 905,
						"contract": "PramanToken_flattened.sol:Praman",
						"label": "_roles",
						"offset": 0,
						"slot": "5",
						"type": "t_mapping(t_bytes32,t_struct(RoleData)900_storage)"
					}
				],
				"types": {
					"t_address": {
						"encoding": "inplace",
						"label": "address",
						"numberOfBytes": "20"
					},
					"t_bool": {
						"encoding": "inplace",
						"label": "bool",
						"numberOfBytes": "1"
					},
					"t_bytes32": {
						"encoding": "inplace",
						"label": "bytes32",
						"numberOfBytes": "32"
					},
					"t_mapping(t_address,t_bool)": {
						"encoding": "mapping",
						"key": "t_address",
						"label": "mapping(address => bool)",
						"numberOfBytes": "32",
						"value": "t_bool"
					},
					"t_mapping(t_address,t_mapping(t_address,t_uint256))": {
						"encoding": "mapping",
						"key": "t_address",
						"label": "mapping(address => mapping(address => uint256))",
						"numberOfBytes": "32",
						"value": "t_mapping(t_address,t_uint256)"
					},
					"t_mapping(t_address,t_uint256)": {
						"encoding": "mapping",
						"key": "t_address",
						"label": "mapping(address => uint256)",
						"numberOfBytes": "32",
						"value": "t_uint256"
					},
					"t_mapping(t_bytes32,t_struct(RoleData)900_storage)": {
						"encoding": "mapping",
						"key": "t_bytes32",
						"label": "mapping(bytes32 => struct AccessControl.RoleData)",
						"numberOfBytes": "32",
						"value": "t_struct(RoleData)900_storage"
					},
					"t_string_storage": {
						"encoding": "bytes",
						"label": "string",
						"numberOfBytes": "32"
					},
					"t_struct(RoleData)900_storage": {
						"encoding": "inplace",
						"label": "struct AccessControl.RoleData",
						"members": [
							{
								"astId": 897,
								"contract": "PramanToken_flattened.sol:Praman",
								"label": "hasRole",
								"offset": 0,
								"slot": "0",
								"type": "t_mapping(t_address,t_bool)"
							},
							{
								"astId": 899,
								"contract": "PramanToken_flattened.sol:Praman",
								"label": "adminRole",
								"offset": 0,
								"slot": "1",
								"type": "t_bytes32"
							}
						],
						"numberOfBytes": "64"
					},
					"t_uint256": {
						"encoding": "inplace",
						"label": "uint256",
						"numberOfBytes": "32"
					}
				}
			},
			"userdoc": {
				"kind": "user",
				"methods": {},
				"version": 1
			}
		}
	}
}